:020000040800F2
:100000000000012061020008650200086702000884
:100010007D0200087F020008950200080000000031
:10002000000000000000000000000000AB0200081B
:10003000AD02000800000000AF020008550C0008E7
:10004000C5020008C5020008C5020008C502000874
:10005000C5020008C5020008C5020008C502000864
:10006000C5020008C5020008C5020008C502000854
:10007000C5020008C5020008C5020008C502000844
:10008000C5020008C5020008C50200080000000003
:10009000000000000000000000000000C502000891
:1000A000C5020008C5020008C5020008C502000814
:1000B000C5020008C5020008C5020008C502000804
:1000C000C5020008C5020008C5020008C5020008F4
:1000D000C5020008C5020008C502000800000000B3
:1000E000C5020008C5020008C502000800000000A3
:1000F000000000000000000000000000C502000831
:1001000000000000C5020008C5020008C502000882
:1001100000000000000000000000000000000000DF
:10012000C5020008C5020008C5020008C502000893
:10013000C5020008000000000000000000000000F0
:10014000000000000000000000000000C5020008E0
:10015000C5020008C5020008C5020008C502000863
:10016000C5020008C50200080000000000000000F1
:10017000000000000000000000000000000000007F
:1001800000000000C50200080000000000000000A0
:10019000C502000807B500F097FC274B27488342AB
:1001A00026D3274B274900208B422DD300F0A4FDF6
:1001B000254E264C01A9684600F07EFCA41BA41025
:1001C0000025AC4229DC224E224CA41BA4100025A1
:1001D000AC4227DCDDE9000100F098FD1E4D1F4C0C
:1001E000641B0646A410002C21DC304600F060FCA5
:1001F000D3E900120C3353F8044C891A9442CED937
:10020000555815600432F9E753F8082B53F8044C9D
:100210009442C9D910600432FAE756F8253098475D
:100220000135CEE756F8253098470135D0E7013C37
:1002300055F824309847D6E7C8020008E0020008C5
:10024000E0020008F0020008F0020008F0020008D6
:10025000F0020008F0020008F0020008F0020008B6
:1002600014480047FEE71EF0040F0CBFEFF30880B0
:10027000EFF309807146104A1047FEE7FEE71EF0D3
:10028000040F0CBFEFF30880EFF3098071460B4AAF
:100290001047FEE71EF0040F0CBFEFF30880EFF3EA
:1002A00009807146064A1047FEE7FEE7FEE7FEE7D3
:1002B00070470000950100087B02000893020008C7
:0602C000A9020008FEE7A0
:1002C800740D0008000000200C000020740D0008C8
:1002D80000000010000000100C0000201800002092
:0802E8000000001000000010EE
:1002F00010B5084B044618684FF47A73B0FBF3F05E
:1003000000F078F8002221464FF0FF3000F03EF870
:10031000002010BD0800002008B50B4B1A6842F4FD
:1003200000721A601A6842F480621A601A6842F415
:1003300080721A60032000F017F80F20FFF7D8FF33
:1003400000F006FD002008BD003C0240024A136890
:1003500001331360704700BF10000020014B186884
:10036000704700BF10000020074AD36823F4E06301
:100370001B041B0C43F0BF63000243F4003300F482
:10038000E0600343D360704700ED00E0174B70B5A9
:10039000DC68C4F30224C4F10705042D04F104034E
:1003A00028BF04254FF0FF36062B06FA05F38CBF55
:1003B000033C002421EA0303A34006FA04F422EAE2
:1003C0000404002843EA0403A8BF00F160404FEA98
:1003D0000313BCBF00F00F00054ADBB2AABF00F553
:1003E0006140135480F8003370BD00BF00ED00E0A1
:1003F00014ED00E00138B0F1807F0AD2064B074AC5
:100400005860F02182F823100020072298601A60BB
:1004100070470120704700BF10E000E000ED00E0F1
:10042000044B1A6804280CBF42F0040222F00402B4
:100430001A60704710E000E02DE9F04F85B00B68BE
:10044000DFF89C81644A01934FF001090023019C6D
:1004500009FA03F704EA0706B74240F0AD804C689A
:1004600024F0100ABAF1020F16D14FEAD30E00EBB6
:100470008E0E03F0070BDEF820504FEA8B0B4FF087
:100480000F0C0CFA0BFC25EA0C0C0D6905FA0BF5A8
:1004900045EA0C05CEF820504FEA430E0325D0F86C
:1004A00000B005FA0EF5ED4304F0030C05EA0B0B62
:1004B0000CFA0EFC0AF1FF3A4CEA0B0CBAF1010FF0
:1004C0000095C0F800C015D8D0F808C005EA0C0C9B
:1004D000CD6805FA0EFA4AEA0C0CC0F808C0D0F84C
:1004E00004C02CEA0707C4F3001C0CFA03FC4CEA16
:1004F00007074760C768009D3D408F6807FA0EF701
:100500003D43C560E50057D54FF0000BCDF80CB06A
:10051000D8F84470314D47F48047C8F84470D8F893
:10052000447007F480470397039F23F0030707F104
:10053000804707F59C3703F0030ED7F808A04FEA71
:100540008E0E4FF00F0C0CFA0EFCA8422AEA0C0C8F
:1005500039D005F58065A84237D005F58065A842F9
:1005600035D005F58065A84233D005F58065A842F1
:1005700014BF0525042505FA0EF545EA0C05BD60F6
:100580001568F74314F4803F0CBF3D4035431560B8
:10059000556814F4003F0CBF3D40354355609568E5
:1005A00014F4801F0CBF3D4035439560D568A4020C
:1005B00054BF3D403543D5600133102B7FF447AF26
:1005C00005B0BDE8F08F5D46D5E70125D3E70225EC
:1005D000D1E70325CFE700BF003C01400000024007
:1005E000003802400AB1816170470904FBE700004E
:1005F0000368F7B50446D80738D4236899076DD443
:1006000023681E0700F1B98023685D0728D5002301
:100610000193A64BA64D1A6C42F080521A641B6CD3
:1006200003F080530193019B2B6843F480732B608C
:10063000FFF794FE06462B68DA0540F1C0809D4B1B
:10064000227A1A70A368002B00F0C780FFF786FE9D
:10065000964D064641F288372B6F9B0740F1B680D6
:10066000A269002A40F0C980002015E08F4B9A68EB
:1006700002F00C02042A07D09A6802F00C02082A41
:100680000CD15B685A0209D5884B1B689B03B4D513
:100690006368002BB1D1012003B0F0BD864B2279F5
:1006A0001A7063686BB1FFF759FE804D06462B68E0
:1006B0009F03A2D4FFF752FE801B6428F7D90320C2
:1006C000EAE7FFF74BFE794D06462B68980394D571
:1006D000FFF744FE801B6428F7D9F0E7734B9A6854
:1006E00012F00C0F07D09A6802F00C02082A16D1FB
:1006F0005B68590213D46D4B1A68920702D5E26801
:10070000012AC8D11868F82292FAA2F2B2FA82F14C
:1007100022698A4020F0F8010A431A6070E7E26813
:10072000664BDAB101221A60FFF718FE5F4D0646EC
:100730002B689B070CD52968F82393FAA3F3B3FA27
:1007400083F22369934021F0F80213432B6057E7AB
:10075000FFF704FE801B0228EAD9B0E71A60FFF712
:10076000FDFD524D06462B689F077FF549AFFFF709
:10077000F5FD801B0228F6D9A1E76269504B7AB1DA
:1007800001221A60FFF7EAFD484D06466B6F980795
:100790003FF53AAFFFF7E2FD801B0228F6D98EE75E
:1007A0001A60FFF7DBFD414D06466B6F99077FF539
:1007B0002BAFFFF7D3FD801B0228F6D97FE7FFF7A9
:1007C000CDFD801B02287FF636AF78E7FFF7C6FD28
:1007D000801BB8427FF640AF71E7FFF7BFFD334D96
:1007E000064641F288372B6F98077FF539AFFFF740
:1007F000B5FD801BB842F6D961E72C4DAB6803F01C
:100800000C03082B3FF447AF2E4E0023022A33601F
:100810003ED1FFF7A3FD07462B68990132D447F676
:10082000C07797FAA7F74FF44032B7FA87F792FAF2
:10083000A2F24FF07061B2FA82F091FAA1F1D4E91C
:1008400007321343626A02FA07F7A26A5208013AB2
:1008500082403B431343E26A144CB1FA81F102FA3D
:1008600001F10B436B6001233360FFF777FD054611
:1008700023689A013FF5F8AEFFF770FD401B022890
:10088000F6D91CE7FFF76AFDC01B0228C4D916E79A
:10089000FFF764FD04462B689B017FF5E5AEFFF78B
:1008A0005DFD001B0228F6D909E700BF00380240B1
:1008B0000070004070380240023802400000474299
:1008C000800E474260004742194A936803F00C03C8
:1008D000042B10B503D0082B03D0164800E01648AF
:1008E00010BD5168536801F03F0113F4800F47F6C3
:1008F000C074536894FAA4F0B0FA80F003EA0403D9
:1009000023FA00F314BF0C480A48B0FBF1F0584337
:10091000074B4FF440325B6892FAA2F2B2FA82F2CD
:1009200003F44033D34001335B00B0FBF3F0D7E76F
:10093000003802400024F40080A81201554B1A68C8
:1009400002F00F028A422DE9F04105460E462FD3F0
:100950002A68940736D4D0073CD44E4B1A6802F06C
:100960000F02B24200F286802A68510700F18A80A5
:10097000130707D5484A2969936823F4604343EA7B
:10098000C1039360FFF7A0FF434BF0229B6892FAEC
:10099000A2F2B2FA82F203F0F003D3403F4AD35CF2
:1009A000D8403F4B18600F20FFF7A2FC002007E063
:1009B000CAB21A701B6803F00F038B42C8D0012023
:1009C000BDE8F0813449A8688B6823F0F003034345
:1009D0008B60C0E76A68304B012A1DD11B6813F495
:1009E000003FECD02C4CA36823F003031343A36017
:1009F000FFF7B4FC6B68012B074641F2883815D12C
:100A0000A36803F00C03042BA7D0FFF7A7FCC01BBF
:100A10004045F5D90320D3E7911E01291B6802D870
:100A200013F0007FDDE713F0020FDAE7022B0AD1A3
:100A3000A36803F00C03082B8FD0FFF78FFCC01BBB
:100A40004045F5D9E6E7032B0FD1A36803F00C036B
:100A50000C2B82D0FFF782FCC01B4045F5D9D9E7AB
:100A6000FFF77CFCC01B4045D4D8A36813F00C0FE3
:100A7000F6D172E7F2B21A701B6803F00F03B342AB
:100A80009DD171E70449E8688B6823F4E053034380
:100A90008B606DE7003C024000380240520D0008B8
:100AA00008000020014B1868704700BF08000020B4
:100AB00008B500F015F8000001230360014B0B603E
:100AC000704700BF0000002008B500F01BF8024B83
:100AD000024A9A6008BD00BF00ED00E00000000877
:100AE000BFF34F8F0549064BCA6802F4E062134317
:100AF000CB60BFF34F8F00BFFDE700BF00ED00E00C
:100B00000400FA050C4B1A68002142F001021A6039
:100B100099601A6822F0847222F480321A60074ABF
:100B20005A601A6822F480221A60D960044B4FF090
:100B300000629A60704700BF003802401030002405
:100B400000ED00E0174A1849936803F00C03042BEA
:100B500010B50DD0082B0DD0144B0B60114B144A5F
:100B60009B68C3F30313D25C0B68D3400B6010BDCA
:100B7000104BF2E75468506852686302C2F388125F
:100B800000F03F004CBF0B4B084BB3FBF0F353435B
:100B9000044A5268C2F3014201325200B3FBF2F33D
:100BA000DBE700BF00380240080000200024F4000A
:100BB000620D000880A8120130B50D4A0D4C136B70
:100BC00087B043F0080313634FF4805501230222DA
:100BD00001A92046CDE90332CDE90153FFF72CFCF2
:100BE000002229462046FFF7FDFC07B030BD00BFBC
:100BF00000380240000C02400A4B4FF47A721B6826
:100C0000B3FBF2F3013BB3F1807F09D2064A536094
:100C1000064BF02183F82310002393600723136011
:100C2000704700BF0800002010E000E000ED00E089
:100C3000024B18601A68002AFCD17047140000208B
:100C4000034B1A6812B11A68013A1A60704700BF64
:100C50001400002008B5FFF779FBBDE80840FFF756
:100C6000EFBF000070B594B00024214B01941A6CC2
:100C700042F080521A641B6C03F080530193019B75
:100C80001C4B02941A6842F440421A601B6803F439
:100C900040430293029B01234FF48002CDE90833C5
:100CA0001223CDE90F2304264FF4A8730225CDE9C2
:100CB000113608A8072313930E95FFF799FC0F230D
:100CC0002946CDE9033503A84FF48053CDE9063416
:100CD0000594FFF733FEFFF7E5FE4FF47A73B0FBA0
:100CE000F3F0FFF787FB3046FFF79AFB14B070BDB7
:100CF000003802400070004008B5FFF70DFBFFF719
:100D0000B1FFBDE80840FFF71DBF000038B5FFF791
:100D100073FFFFF751FF0D4D002401224FF4805166
:100D20002846FFF75FFC002C40F2EE2008BF4FF48E
:100D30007A70FFF77DFF00224FF480512846FFF7BD
:100D400051FCFA20FFF774FF0134E6E7000C024083
:100D500070470000000001020304010203040607BB
:100D6000080900000000000000000102030406075B
:020D7000080970
:0C0D74000C000020000000000024F4002F
:040000050800019559
:00000001FF
