:020000040800F2
:1000000000000120C5020008CB020008CF02000852
:1000100041030008450300088D03000800000000AC
:10002000000000000000000000000000D5030008F0
:10003000D903000800000000DD0300082D110008AE
:10004000F1030008F1030008F1030008F1030008C0
:10005000F1030008F1030008F1030008F1030008B0
:10006000F1030008F1030008F1030008F1030008A0
:10007000F1030008F1030008F1030008F103000890
:10008000F1030008F1030008F1030008000000007C
:10009000000000000000000000000000F103000864
:1000A000F1030008F1030008F1030008F103000860
:1000B000F1030008F1030008F1030008F103000850
:1000C000F1030008F1030008F1030008F103000840
:1000D000F1030008F1030008F1030008000000002C
:1000E000F1030008F1030008F1030008000000001C
:1000F000000000000000000000000000F103000804
:1001000000000000F1030008F1030008F1030008FB
:1001100000000000000000000000000000000000DF
:10012000F1030008F1030008F1030008F1030008DF
:10013000F1030008000000000000000000000000C3
:10014000000000000000000000000000F1030008B3
:10015000F1030008F1030008F1030008F1030008AF
:10016000F1030008F1030008000000000000000097
:10017000000000000000000000000000000000007F
:1001800000000000F1030008000000000000000073
:10019000F103000800B583B000F046FE384B394A41
:1001A0001360394A1360394900E02146384B9942BF
:1001B0000BD20A684B6801F10C0488689842F4D9A4
:1001C0001168196004330432F8E72E4B1A68314B7A
:1001D0009A4200D0FEE72C4B1A682F4B9A42F9D175
:1001E000274B2E4A13602E4A13602E4B05E0002049
:1001F000106004329342FAD80B462B4A934204D241
:10020000194651F8082B5B68F4E7244B1B6813B9B7
:10021000234B1B6803B1FEE701F024FB694601A8EC
:1002200000F094FD214C224BE41AA4100025AC42AE
:1002300014DC204C204BE41AA4100025AC4213DC43
:100240000099019801F016FB05461C4C1C4BE41A62
:10025000A410002C0EDC284600F04AFD144B53F885
:10026000253098470135E2E7134B53F8253098477E
:100270000135E3E7013C124B53F824309847E8E797
:10028000BABADECA00000020AC000020F403000867
:100290000C0400087856341232547698B0000020CE
:1002A000540100200C0400081C0400081C04000871
:1002B0001C0400081C0400081C0400081C0400089E
:1002C0001C04000808B5FFF765FF00BEFEE71EF03E
:1002D000040F0CBFEFF30880EFF309807146414A29
:1002E00010472DE9F04182B004468846124B5E6B00
:1002F0009F6B9D6A1B6B13F0020F03D00E4BDB6AE2
:10030000002B0CDB0D4800F033FDCDF800803B46A0
:1003100032462946204600F093FD00BEFEE74BF62C
:10032000AB6100F007FE0028ECD0034B4FF0004219
:10033000DA6202B0BDE8F08100ED00E0B823000809
:1003400000BEFEE71EF0040F0CBFEFF30880EFF3D2
:1003500009807146244A10472DE9F04182B00446D5
:100360008846084B5E6B9F6B9D6A074800F000FD56
:10037000CDF800803B4632462946204600F060FD1D
:1003800000BEFEE700ED00E0C82300081EF0040FE9
:100390000CBFEFF30880EFF309807146134A104752
:1003A0002DE9F04182B004468846084B5E6B9F6B96
:1003B0009D6A074800F0DCFCCDF800803B463246E1
:1003C0002946204600F03CFD00BEFEE700ED00E0BF
:1003D000D423000800BEFEE700BEFEE700BEFEE735
:1003E00070470000E302000859030008A103000859
:0403F00000BEFEE766
:1003F40028C4000800000020B000002028C4000821
:100404000000001000000010B0000020580100207F
:080414000000001000000010C0
:1004200010B50446074B1868074BA3FB0030800942
:1004300000F090F8002221464FF0FF3000F044F821
:10044000002010BD0C000020D34D621008B50B4BEE
:100450001A6842F400721A601A6842F480621A60E4
:100460001A6842F480721A60032000F00FF80F201F
:10047000FFF7D6FF01F038FA002008BD003C02402B
:10048000014B1868704700BF4C01002010B50446AE
:10049000C31E042B0FD80A4AD36823F4E0631B045D
:1004A0001B0C240204F4E064234343F0BF6343F4D1
:1004B0000033D36010BDA421024800F04FFCEAE7EE
:1004C00000ED00E0E821000870B505460C46164630
:1004D0000F2A25D80F2C28D81B4BDB68C3F3022327
:1004E000C3F10702042A28BF0422191D062921D9B5
:1004F000033B4FF0FF3101FA02F224EA02049C4070
:1005000001FA03F326EA03063443002D14DB240129
:10051000E4B205F1604505F5614585F8004370BD1D
:10052000BC210A4800F01AFCD4E7BD21074800F0BE
:1005300015FCD1E70023DCE705F00F052401E4B248
:10054000034B5C55EBE700BF00ED00E0E82100083D
:1005500014ED00E00138B0F1807F0AD2064B5860FC
:10056000064AF02182F823100020986007221A60C2
:1005700070470120704700BF10E000E000ED00E090
:1005800010B50446042800D038B9042C0BD0094A11
:10059000136823F00403136010BD40F2B311064842
:1005A00000F0DCFBF1E7034A136843F00403136037
:1005B000F2E700BF10E000E0E821000830B583B0AA
:1005C000044603680F2B29D8236813F0010F3DD090
:1005D0006368012B01D9052B25D1A34B9B6803F040
:1005E0000C03042B29D0A04B9B6803F00C03082BB1
:1005F0001ED022799D4B1A706368002B50D0FFF7F4
:100600003FFF0546984B1B6813F4003F1ED1FFF7D0
:1006100037FF401B6428F5D90320E3E1F521944816
:1006200000F09CFBD0E7FA21914800F097FBD4E75B
:100630008D4B5B6813F4800FDBD08B4B1B6813F47E
:10064000003F03D06368002B00F0C981236813F0DA
:10065000020F5DD0E368012B31D823691F2B34D8FA
:10066000814B9B6813F00C0F3AD07F4B9B6803F0D3
:100670000C03082B2FD0E368002B74D07D4B012294
:100680001A60FFF7FDFE0546774B1B6813F0020F5B
:100690005AD1FFF7F5FE401B0228F5D90320A1E14E
:1006A000FFF7EEFE0546704B1B6813F4003FCDD0FC
:1006B000FFF7E6FE401B6428F5D9032092E14FF4D2
:1006C00096716B4800F04AFBC7E740F22D1168486D
:1006D00000F044FBC4E7644B5B6813F4800FCAD19D
:1006E000614B1B6813F0020F04D0E368012B01D0AB
:1006F000012077E15C48036823F0F8032169F822C0
:1007000092FAA2F2B2FA82F201FA02F21343036001
:10071000236813F0080F50D06369012B35D8636943
:10072000002B38D0544B01221A60FFF7A9FE054672
:100730004D4B5B6F13F0020F3FD1FFF7A1FE401B43
:100740000228F5D903204DE14748036823F0F80358
:100750002169F82292FAA2F2B2FA82F201FA02F2C6
:1007600013430360D4E7434B00221A60FFF788FE6F
:1007700005463D4B1B6813F0020FC9D0FFF780FE02
:10078000401B0228F5D903202CE140F26D113848B6
:1007900000F0E4FAC3E7384B00221A60FFF770FE5E
:1007A0000546314B5B6F13F0020F06D0FFF768FE72
:1007B000401B0228F5D9032014E1236813F0040F2D
:1007C00060D0A368012B01D9052B1FD10023019311
:1007D000254B1A6C42F080521A641B6C03F0805354
:1007E0000193019B254A136843F480731360FFF75C
:1007F00047FE0546214B1B6813F4807F0CD1FFF7A1
:100800003FFE401B0228F5D90320EBE040F2971190
:10081000174800F0A3FAD9E7227A194B1A70A36897
:1008200083B1FFF72DFE05460F4B1B6F13F0020F30
:1008300028D1FFF725FE401B41F288339842F3D9B7
:100840000320CFE0FFF71CFE0546074B1B6F13F09C
:10085000020F17D0FFF714FE401B41F28833984275
:10086000F3D90320BEE000BF003802400238024046
:100870002C22000800004742800E474200700040D2
:1008800070380240A369022B39D8A369002B00F00D
:10089000A880564A926802F00C02082A00F0A48050
:1008A000022B40F08880E36913B1B3F5800F2CD19F
:1008B000236A3F2B2FD8636A323BB3F5BF7F30D812
:1008C000A36A022B05D0042B03D0062B01D0082BE2
:1008D0002DD1E36A043B0B2B2FD8454B00221A6025
:1008E000FFF7CEFD0546414B1B6813F0007F2AD071
:1008F000FFF7C6FD401B0228F5D9032072E04FF434
:10090000E6713C4800F02AFABFE740F2D5113948B9
:1009100000F024FACCE74FF4EB71364800F01EFAF1
:10092000C9E740F2D711334800F018FAC8E74FF48E
:10093000EC71304800F012FACBE740F2D9112D48A3
:1009400000F00CFAC9E7E369226A1343616A47F6CB
:10095000C07292FAA2F2B2FA82F201FA02F21343E0
:10096000A26A5208013A4FF4403191FAA1F1B1FA6A
:1009700081F18A401343E16A4FF0706292FAA2F269
:10098000B2FA82F201FA02F21343184A5360184B8A
:1009900001221A60FFF774FD0446144B1B6813F024
:1009A000007F06D1FFF76CFD001B0228F5D903205C
:1009B00018E0002016E00E4B00221A60FFF760FDE1
:1009C00004460A4B1B6813F0007F06D0FFF758FD62
:1009D000001B0228F5D9032004E0002002E00120DA
:1009E00000E0002003B030BD0120FBE700380240EA
:1009F000600047422C220008214B9B6803F00C0347
:100A0000042B3AD0082B01D01E4870471C4B586865
:100A100000F03F005B6813F4800F1ED01A4AB2FB4F
:100A2000F0F2174B586847F6C073184093FAA3F3D7
:100A3000B3FA83F3D84000FB02F0114B5B6803F478
:100A400040334FF4403292FAA2F2B2FA82F2D3402B
:100A500001335B00B0FBF3F070470A4AB2FBF0F2DF
:100A6000074B586847F6C073184093FAA3F3B3FADC
:100A700083F3D84000FB02F0DFE70348704700BF74
:100A8000003802400024F40080A8120170B504462A
:100A90000D460368013B0E2B11D8072D15D88C4B42
:100AA0001B6803F00F03AB4215D2EBB2884A1370F8
:100AB000136803F00F03AB420DD0012070BD40F26C
:100AC0003721844800F04AF9E7E74FF40E71814876
:100AD00000F044F9E3E7236813F0020F18D0A3688D
:100AE0007BB1802B0DD0902B0BD0A02B09D0B02B3D
:100AF00007D0C02B05D0D02B03D0E02B01D0F02B9A
:100B000037D1754A936823F0F003A1680B439360D3
:100B1000236813F0010F73D06368032B2FD8636829
:100B2000012B32D09A1E012A36D96B4A126812F074
:100B3000020F00F0CA8068498A6822F0030213435A
:100B40008B60FFF79DFC06466368012B2BD0022BC0
:100B500038D0032B45D0604B9B6813F00C0F4FD05F
:100B6000FFF78EFC801B41F288339842F3D90320B3
:100B7000A4E740F24F21574800F0F0F8C1E740F2F7
:100B80005621544800F0EAF8C9E7534A126812F4B3
:100B9000003FD0D1012091E74F4A126812F0007F48
:100BA000C9D101208AE74C4B9B6803F00C03042B4E
:100BB00026D0FFF765FC801B41F288339842F2D9BA
:100BC00003207BE7444B9B6803F00C03082B17D0F2
:100BD000FFF756FC801B41F288339842F2D903207C
:100BE0006CE73D4B9B6803F00C030C2B08D0FFF720
:100BF00047FC801B41F288339842F2D903205DE71D
:100C0000334B1B6803F00F03AB4209D9EAB2304BF8
:100C10001A701B6803F00F03AB4201D001204DE7AF
:100C2000236813F0040F14D0E3685BB1B3F5805F61
:100C300008D0B3F5A05F05D0B3F5C05F02D0B3F51F
:100C4000E05F36D1244A936823F4E053E1680B4314
:100C50009360236813F0080F15D023695BB1B3F5D7
:100C6000805F08D0B3F5A05F05D0B3F5C05F02D0B8
:100C7000B3F5E05F23D1184A936823F460432169F8
:100C800043EAC1039360FFF7B7FE134B9B6803F081
:100C9000F003F02292FAA2F2B2FA82F2D3400F4AA3
:100CA000D35CD8400E4B18600F20FFF7B9FB002033
:100CB00004E74FF42D71074800F050F8C2E740F206
:100CC000BB21044800F04AF8D5E70120F6E600BF52
:100CD000003C02402C220008003802401C22000880
:100CE0000C000020014B1868704700BF0C0000206A
:100CF000FEE7000008B5034800F052F80120FFF7B6
:100D0000F7FF00BF5C22000808B503460C4A1268D2
:100D10005AB10B4A1068033323F003030344094A12
:100D2000934206D8064A136008BD054A0649116079
:100D3000EFE700F0DBFD0C2303604FF0FF30F3E73B
:100D4000B400002000FC00205801002001230360B3
:100D5000014B0B60704700BF0400002008B50A4635
:100D60000146024800F004F8FFF7C4FF70220008B3
:100D70000FB400B583B004AB53F8042B019380216A
:100D8000064800F0EDFD002803DD0146034800F0B1
:100D900047F803B05DF804EB04B07047BC000020D6
:100DA00010B5044600F0A8FD0146204600F038F8D2
:100DB0000121024800F034F810BD00BF34230008C0
:100DC0002DE9F04385B004460F4643560BB10E465D
:100DD0001EE0042528462146ABBE0446384605B031
:100DE000BDE8F08314F9011B04AA1A4402F8101C90
:100DF0000133AB42F6D304AA1344002203F8102CAB
:100E00004FF00408E94640464946ABBE8046761B93
:100E1000002EE3D03546102E28BF10250023E8E72A
:100E200008B5FFF7CDFF08BD08B500F093F8024AFA
:100E3000024B9A6008BD00BF0000000800ED00E012
:100E4000F8B504460D4617461E462748FFF790FFA3
:100E500021682648FFF78CFF61682548FFF788FF67
:100E6000A1682448FFF784FFE1682348FFF780FF6B
:100E700021692248FFF77CFF61692148FFF778FF6D
:100E8000A1692048FFF774FFE1691F48FFF770FF71
:100E90001E48FFF76DFF29461D48FFF769FF1D4CEF
:100EA000E16A1D48FFF764FF216B1C48FFF760FFF4
:100EB000E16B1B48FFF75CFF15F0800F0AD115F4BA
:100EC000004F0CD11748FFF753FF06991648FFF75C
:100ED0004FFFF8BD39461548FFF74AFFEFE73146A7
:100EE0001348FFF745FFEDE79C220008AC220008FD
:100EF000BC220008CC220008DC220008EC220008FA
:100F0000FC2200080C2300081C2300082C230008E6
:100F10003823000800ED00E04823000858230008AB
:100F20006823000898230008A023000878230008FD
:100F30008823000883691A888A4201D000207047FC
:100F40000268033A012A03D8023383610120704703
:100F5000002070470C4B1A6842F001021A60002111
:100F600099601A6822F0847222F480321A60074A6B
:100F70005A601A6822F480221A60D960044B4FF03C
:100F800000629A60704700BF0038024010300024B1
:100F900000ED00E0224B9B6803F00C03042B14D0FF
:100FA000082B16D01BB11F4B1F4A1A6002E01D4BC5
:100FB0001D4A1A601A4B9B68C3F303131B4AD15C8A
:100FC000184A1368CB4013607047164B184A1A60D2
:100FD000F0E7134B5A685B6803F03F0312F4800F8D
:100FE00013D0134AB2FBF3F20D4B5B68C3F38813C3
:100FF00003FB02F30A4A5268C2F301420132520073
:10100000B3FBF2F3074A1360D4E7074AB2FBF3F2EB
:10101000034B5B68C3F3881303FB02F3EAE700BFEB
:10102000003802400C0000200024F400E4230008F3
:1010300080A81201024A136843F00403136070474A
:1010400010E000E04FF47A5303FB00F0284B984285
:101050002DD8284B00229A6058601A6842F001028D
:101060001A60244B1B6813F4803FFAD0214B1A6896
:1010700022F480321A601A6822F001021A60704766
:101080001C4B00229A6058601A6842F001021A60F4
:10109000184B1B6813F4803FFAD0164B1A6822F4E1
:1010A00080321A601A6822F001021A607047E8B1B3
:1010B0000F4B9842E4D900F17F4002300D4B0022E3
:1010C0009A600B4A5A601A6842F001021A60094B92
:1010D0001B6813F4803FFAD0064B1A6822F4803262
:1010E0001A601A6822F001021A60E0E7704700BF38
:1010F000FEFFFF0010E000E00B4B00229A605860FA
:101100001A6842F001021A60074B1B6813F4803F13
:10111000FAD0054B1A6822F480321A601A6822F05D
:1011200001021A60704700BF10E000E008B5084BEC
:101130001B6803B19847074B1B783BB1054B002256
:101140001A70054A136823F00103136008BD00BF3D
:101150003C0100204001002010E000E038B50446CA
:1011600000F04EF80C21032000F086F8002108461C
:1011700000F082F81D4D284600F064FAE81D00F0EA
:1011800061FAE81F00F05EFA6379012B05D0022BAB
:1011900026D0032B27D0402300E04023227943EAC6
:1011A00082031BB2227A43EA42039AB2637A134360
:1011B000E27A43EA42231BB2227B43EA02231BB2B8
:1011C000E27943EAC2231BB2A27943EAC203A27ABC
:1011D00043EAC2139BB243F480732268136038BDA4
:1011E0004CF24003DAE74FF48863D7E7170000209A
:1011F0000368D96003689B6813F0800FFAD17047C9
:101200001C4B9A6822F010029A609A6822F0200221
:101210009A609A6822F040029A609A6822F08002EE
:101220009A609A6822F480629A609A6822F4006256
:101230009A609A6822F480529A609A6822F4005266
:101240009A609A6822F480429A609A6822F4004276
:101250009A601A6822F400221A609A6822F0010249
:101260009A609A6822F002029A601A6842F4803208
:101270001A60704700380240032822D8DFE800F0E7
:10128000020A121A0F48036B012202FA01F11943F4
:10129000016370470B48436B012202FA01F11943C5
:1012A000416370470748036C012202FA01F11943B8
:1012B000016470470348436C012202FA01F11943AB
:1012C00041647047003802400F2931D810B401281A
:1012D00012D018B102281DD010BC7047154B1868E9
:1012E000490003248C4020EA04001860186802FAC0
:1012F00001F101431960EFE70F4B1868490003241F
:101300008C4020EA04001860186802FA01F10143D9
:101310001960E1E7094B1868490003248C4020EA72
:1013200004001860186802FA01F101431960D3E75C
:10133000704700BF00000240000402400008024065
:101340000F2941D8012A07D0002A3DD101282AD0EF
:1013500000B3022830D0704701280BD010B102280A
:1013600010D0704719484368012202FA01F119436D
:101370004160704716484368012202FA01F119439F
:101380004160704713484368012202FA01F1194392
:10139000416070470D484368012202FA01F123EAD7
:1013A0000101416070470A484368012202FA01F1D5
:1013B00023EA01014160704706484368012202FAAE
:1013C00001F123EA01014160704700BF00000240C3
:1013D00000040240000802400F2931D810B401284F
:1013E00012D018B102281DD010BC7047154B986858
:1013F000490003248C4020EA04009860986802FAAF
:1014000001F101439960EFE70F4B9868490003240D
:101410008C4020EA04009860986802FA01F10143C8
:101420009960E1E7094B9868490003248C4020EA61
:1014300004009860986802FA01F101439960D3E7CB
:10144000704700BF00000240000402400008024054
:101450000F2931D810B4012812D018B102281DD09C
:1014600010BC7047154BD868490003248C4020EA13
:101470000400D860D86802FA01F10143D960EFE7AF
:101480000F4BD868490003248C4020EA0400D86040
:10149000D86802FA01F10143D960E1E7094BD86845
:1014A000490003248C4020EA0400D860D86802FA7E
:1014B00001F10143D960D3E7704700BF000002404B
:1014C00000040240000802400F2941D8012A07D039
:1014D000002A3DD101282AD000B3022830D070471D
:1014E00001280BD010B1022810D070471948436969
:1014F000012202FA01F1194341617047164843691C
:10150000012202FA01F1194341617047134843690E
:10151000012202FA01F11943416170470D48436904
:10152000012202FA01F123EA0101416170470A48F0
:101530004369012202FA01F123EA01014161704786
:1015400006484369012202FA01F123EA01014161DF
:10155000704700BF00000240000402400008024043
:101560000F2967D810B4072A30D8012812D018B133
:1015700002281DD010BC70472F4B186A8C000F2119
:10158000A14020EA01011962186A02FA04F101433C
:101590001962EFE7294B1C6A88000F21814024EA79
:1015A000010119621C6A02FA00F121431962E1E7A4
:1015B000234B186A89000F248C4020EA040018622B
:1015C000186A02FA01F101431962D3E7A2F1080394
:1015D000DBB2072BCED801281ED078B10228C9D1A2
:1015E000174B586A89000F248C4020EA0400586287
:1015F000586A02FA01F101435962BBE70E4B586A7F
:1016000089000F248C4020EA04005862586A02FACC
:1016100001F101435962ADE7084B586A89000F2474
:101620008C4020EA04005862586A02FA01F1014332
:1016300059629FE7704700BF00000240000402406B
:101640000008024010B50446827841780078FFF720
:101650003BFEE27861782078FFF772FE22796178AC
:101660002078FFF7B9FE627961782078FFF7F0FE05
:10167000A27961782078FFF773FF10BD10B504469A
:10168000002201211046FFF71FFFE1B20148FFF7DA
:10169000AFFD10BD2800002010B504460122114600
:1016A0000020FFF711FFE1B20148FFF7A1FD10BDD7
:1016B0002800002008B5012200210846FFF704FF9A
:1016C0004FF4C860FFF718FD002211461046FFF7DF
:1016D000FBFE4FF47A70FFF70FFD01220021084650
:1016E000FFF7F2FE4FF4C860FFF706FD0022114637
:1016F0001046FFF7E9FE4FF4C860FFF7FDFC01223A
:1017000000210846FFF7E0FE0148FFF7F5FC08BDA1
:1017100000F8240108B50E48FFF720FDFFF78AFC0A
:101720000C48FFF78FFF0C48FFF78CFFFFF7C2FF55
:101730001120FFF7A3FF0948FFF7DEFC3A20FFF76F
:101740009DFF0520FFF7A8FF2920FFF797FF08BDA1
:1017500028000020380000204000002080A903005D
:1017600070B506460D462A20FFF788FF0020FFF7D8
:1017700093FF0020FFF790FF0020FFF78DFF7F20F1
:10178000FFF78AFF2B20FFF779FF0020FFF784FF88
:101790000020FFF781FF0020FFF77EFF9F20FFF76B
:1017A0007BFF2C20FFF76AFF00240BE00020FFF7EF
:1017B00073FF16F81400FFF76FFF4FF41660FFF782
:1017C0009BFC01346B1EA342F0D870BD70B594B081
:1017D00000240194204B1A6C42F080521A641B6C56
:1017E00003F080530193019B02941C4B1A6842F44E
:1017F00040421A601B6803F440430293029B01239A
:10180000089309934FF480030F93122310934FF41E
:10181000A8731193042612960723139302250E959D
:1018200008A8FEF7CBFE0F230393049505944FF40D
:10183000805306930794294603A8FFF727F9FFF77B
:1018400051FA074BA3FB00308009FEF783FE3046B8
:10185000FEF796FE14B070BD0038024000700040E4
:10186000D34D621008B5FEF7F1FDFFF7AFFFFFF7AC
:1018700091FB08BD00B585B0FFF74CFF0022029236
:10188000CDF80B2002238DF8093001238DF80A30A2
:101890008DF80C300092CDF8032003228DF8012042
:1018A0008DF802308DF8043002A8FFF7CBFE6846B1
:1018B000FFF7C8FE4FF4A0410A48FFF751FF00228E
:1018C00003211046FFF700FE4FF4FA60FFF7BAFB62
:1018D000012203210020FFF7F7FD4FF4FA60FFF724
:1018E000B1FBECE7F423000870470000014B1868D7
:1018F000704700BF48000020034613F8012B002A60
:10190000FBD1181A0138704730B5141E05469BB03C
:10191000184605DA8B232B604FF0FF301BB030BD2B
:101920004FF40273ADF80C3014BF04F1FF332346BB
:10193000029305934FF6FF7300910491ADF80E30BA
:1019400002461E9B6946284600F072F8431CBCBF45
:101950008B232B60002CE1D0009B00221A70DDE766
:1019600007B5009313460A46014603480068FFF78F
:10197000CBFF03B05DF804FB480000202DE9F047E1
:101980008E689E4282460C469046994637D88A8990
:1019900012F4906F31D0256809696F1A65690223C6
:1019A00005EB450595FBF3F509F101033B449D4229
:1019B00038BF1D46530530D5294600F07BFB06464F
:1019C00050B90C23CAF80030A38943F04003A38127
:1019D0004FF0FF30BDE8F0873A46216900F0F8FA91
:1019E000A38923F4906343F08003A381266165619A
:1019F0003E44ED1B2660A5604E464E4500D94E463E
:101A000032464146206800F0EEFAA3689B1BA360B3
:101A100023681E4426600020DCE72A4600F0A4FB71
:101A200006460028E2D12169504600F0F5FAC8E7E1
:101A30002DE9F04F9DB0804603938B891D060C461F
:101A400016460FD50B696BB9402100F033FB2060BF
:101A5000206128B90C23C8F800304FF0FF30C7E0F0
:101A6000402363610023099320238DF8293030231C
:101A70008DF82A304FF0010B37463D4615F8013BF3
:101A80000BB1252B3ED1B7EB060A0BD0534632469D
:101A900021464046FFF772FF013000F0A480099B09
:101AA000534409933B78002B00F09D8000234FF0B6
:101AB000FF32CDE90523049307938DF853301A9331
:101AC0002F46052217F8011B4F4800F031FA049BFE
:101AD000D0B9D90644BF20228DF853201A0744BF3D
:101AE0002B228DF853202A782A2A15D0079A2F46C0
:101AF00000200A25394611F8013B303B092B4DD90E
:101B0000B8B10FE02F46B8E73F4A801A0BFA00F051
:101B1000184304903D46D3E7039A111D12680391C0
:101B2000002A01DB079204E0524243F002030792CD
:101B300004933B782E2B0CD17B782A2B33D1039B3B
:101B40001A1D1B680392002BB8BF4FF0FF330237FA
:101B500005932E4D39780322284600F0E9F938B173
:101B60004023401B03FA00F0049B03430137049316
:101B7000397827488DF8281006227E1C00F0D8F905
:101B8000002838D0234B13BB039B073323F00703F4
:101B900008330393099B4B4409936DE705FB02321D
:101BA00001200F46A6E700230137059319460A25B1
:101BB000384610F8012B303A092A03D9002BC8D037
:101BC0000591C6E705FB012101230746F0E703ABBA
:101BD00000932246104B04A94046AFF30080B0F1B9
:101BE000FF3F8146D6D1A3895B063FF536AF099802
:101BF0001DB0BDE8F08F03AB00932246064B04A94D
:101C0000404600F081F8EAE7F4C30008FAC3000890
:101C1000FEC30008000000007D1900082DE9F04710
:101C200091461F468A680B69DDF820809342B8BF51
:101C30001346C9F8003091F8432006460C4612B10D
:101C40000133C9F800302368990642BFD9F8003043
:101C50000233C9F80030256815F0060507D104F1F4
:101C6000190AE368D9F800209B1AAB4228DC94F8E3
:101C700043302268003318BF012392062DD404F1AB
:101C8000430239463046C047013020D02368E5681A
:101C9000D9F8002003F00603042B08BFAD1AA3688F
:101CA00022690CBF25EAE57500259342C4BF9B1A43
:101CB000ED184FF000091A344D451AD1002008E004
:101CC0000123524639463046C047013003D14FF018
:101CD000FF30BDE8F0870135C3E7E1185A1C30201A
:101CE00081F84300224494F8451082F843100233EF
:101CF000C5E70123224639463046C0470130E6D0C9
:101D000009F10109D8E700002DE9F04301F1430C86
:101D10000C46097E85B06E291746064698460C9AF1
:101D200000F0B38022D8632936D00AD8002900F009
:101D3000B980582900F0838004F1420584F84210EC
:101D400032E0642901D06929F6D1206813680506BC
:101D500003F104012AD51B681160002B03DA2D2240
:101D60005B4284F843206F480A2239E0732900F06F
:101D70009D8008D86F2920D07029DDD1236843F0D9
:101D80002003236003E0752917D07829D4D1782364
:101D900084F84530644855E01368191D1B681160CC
:101DA00004F1420584F8423001238CE01B68116085
:101DB00010F0400F18BF1BB2CFE713682568181D3D
:101DC0001060280601D51B6802E06806FBD51B8859
:101DD00054486F2914BF0A220822002184F84310B6
:101DE0006568A560002DC0F29580216821F004018E
:101DF0002160002B3DD1002D40F08E806546082AE1
:101E00000BD12368DB0708D5236962689A42DEBFDD
:101E1000302305F8013C05F1FF35ACEB05032361E8
:101E2000CDF800803B4603AA21463046FFF7F6FE78
:101E300001304DD14FF0FF3005B0BDE8F083394897
:101E400084F84510136821681D1D1B6815600A067B
:101E50000BD5CA0744BF41F0200121601BB922689D
:101E600022F0200222601022B7E74D0648BF9BB245
:101E7000EFE76546B3FBF2F102FB1133C35C05F8F3
:101E8000013D0B460029F5D1B9E713682568616962
:101E9000181D106028061B6801D5196002E06A064B
:101EA000FBD51980002323616546B9E71368191D26
:101EB00011601D6862680021284600F039F808B1F9
:101EC000401B606063682361002384F84330A7E708
:101ED00023692A4639463046C0470130AAD02368D4
:101EE0009B0713D4E068039B9842B8BF1846A3E74A
:101EF00001234A4639463046C04701309AD0013561
:101F0000E368039A9B1AAB42F2DCEBE7002504F18D
:101F10001909F5E7002BACD1037884F8423004F1BD
:101F200042056CE705C4000816C400080000000064
:101F300001F0FF01102A2BDB10F0070F08D010F87A
:101F4000013B013A8B422DD010F0070F42B3F6D17E
:101F5000F0B441EA012141EA014122F007047FF097
:101F600000070023F0E80256083C85EA010586EAEE
:101F7000010685FA47F5A3FA87F586FA47F6A5FA2A
:101F800087F68EB9EED1F0BC01F0FF0102F0070236
:101F900032B110F8013B013A83EA010313B1F8D1E1
:101FA0000020704701387047002D06BF35460338C2
:101FB000073815F0010F07D1013015F4807F02BFFB
:101FC000013015F4C03F0130F0BC0138704700BF4C
:101FD00010B5431E0A44914200D110BD11F8014BC7
:101FE00003F8014FF7E7884210B501EB020307D869
:101FF000421E99420AD011F8014B02F8014FF8E74E
:102000008342F5D98118D21AD34200D110BD13F8FA
:10201000014D01F8014DF7E738B50546002945D0D7
:1020200051F8043C0C1F002BB8BFE41800F0D2F8A4
:102030001F4A1368104633B9636014602846BDE830
:10204000384000F0C8B8A3420CD921686218934206
:1020500004BF1A685B68636004BF521822600460A2
:10206000ECE713465A680AB1A242FAD9196858181F
:10207000A0420BD120680144581882421960DDD17A
:10208000106852685A6001441960D7E702D90C23DE
:102090002B60D3E7206821188A4204BF1168526878
:1020A000626004BF091821605C60C7E738BD00BFEB
:1020B0004401002070B5CD1C25F0030508350C2D1A
:1020C00038BF0C25002D064601DBA94203D90C239D
:1020D0003360002070BD00F07DF8214A146821466D
:1020E00091B9204C23681BB9304600F063F820609A
:1020F0002946304600F05EF8431C24D10C2333609F
:10210000304600F068F8E4E70B685B1B18D40B2B33
:102110000FD90B60CD50CC18304600F05CF804F1BC
:102120000B00231D20F00700C31AD3D05A42E250FF
:10213000D0E78C424B6816BF636013600C46EBE738
:102140000C464968CCE7C41C24F00304A04205D027
:10215000211A304600F02EF80130CFD02560DBE7A1
:102160004401002048010020F8B5074614460E46F9
:1021700021B91146BDE8F840FFF79CBF22B9FFF72F
:102180004BFF25462846F8BD00F026F8A0420FD2A6
:1021900021463846FFF78EFF05460028F2D031462B
:1021A0002246FFF715FF31463846FFF735FFE9E7CE
:1021B0003546E7E738B5064C002305460846236058
:1021C000FEF7A2FD431C02D1236803B12B6038BD8A
:1021D000500100207047704751F8043C181F002B35
:1021E000BCBF0B58C01870472E2E2F7379737465BF
:1021F0006D2F7372632F73746D333266342D686183
:102200006C2F73746D3332663478785F68616C5FFD
:10221000636F727465782E63000000000000000098
:102220000102030401020304060708092E2E2F737E
:10223000797374656D2F7372632F73746D333266A7
:10224000342D68616C2F73746D3332663478785F27
:1022500068616C5F7263632E6300000061626F727D
:102260007428292C2065786974696E672E2E2E00DB
:102270006173736572745F706172616D2829206685
:1022800061696C65643A2066696C65202225732259
:102290002C206C696E652025640A0000537461630C
:1022A0006B206672616D653A0A0000002052302092
:1022B0003D2020253038580A0000000020523120EF
:1022C0003D2020253038580A0000000020523220DE
:1022D0003D2020253038580A0000000020523320CD
:1022E0003D2020253038580A0000000020523132AD
:1022F000203D20253038580A00000000204C522094
:102300003D2020253038580A00000000205043208E
:102310003D2020253038580A00000000205053523C
:10232000203D20253038580A000000004653522F27
:102330004641523A0A0000002043465352203D20B5
:1023400020253038580A00002048465352203D20AE
:1023500020253038580A00002044465352203D20A2
:1023600020253038580A00002041465352203D2095
:1023700020253038580A0000204D4D464152203D5E
:1023800020253038580A00002042464152203D2086
:1023900020253038580A00004D6973630A00000098
:1023A000204C522F4558435F52455455524E3D20C4
:1023B000253038580A0000005B4861726446617538
:1023C0006C745D0A000000005B4275734661756CB9
:1023D000745D0A005B55736167654661756C745D79
:1023E0000A000000000000000000000001020304D9
:1023F0000607080921000000C739FFFFFFFFFFFFA4
:10240000FFFFFFFFFFFFFFFFFFFFFFFFFFFFDEFFFD
:10241000FEFF1BEF17EF18F718F718F738F718F744
:1024200018EF18F718F718F7D7EEF8EE18F718F7AF
:1024300039F719F719F719F719F719F719F719F7FC
:1024400019F719F739F739F739F739F738F718F76E
:1024500038F759FF1AF739F779F759F779F75AF733
:102460003AEF3CF759D6D7C5F7C517CED6BDD6B586
:1024700037C6D6B5D5BDD5BDD6BDD6BD17C6F7C5F1
:10248000D7BDF7C5FAE67BF75AF75AF77BFF5AF73D
:102490005BF75BFF7BF75AF75AF77BF75AF75AF768
:1024A0005AF75AF75AF75AF75AF75AF75AF75AF7A4
:1024B0005AF739F73BF73BF73BF75BF75BF75BEF17
:1024C0005AEF5AEF3AEF5AEF3AEF19EFD8E618EF12
:1024D00039F739F756FFF6EE7BF7FFFFFFFFFFFFF7
:1024E000FFFFFFFFFFFFFFFFFFFFFFFFFEFFFFFFFD
:1024F000BEF7C41821000000C739FFFFFFFFFFFF30
:10250000FFFFFFFFFFFFFFFFFFFFFFFFFFFFDEFFFC
:10251000FEFF99DE70BD70BD70BD71BD91C571BD0E
:1025200050BD71BD71BD92C550BD51BD92C592C522
:10253000B2C592C592C593C5B3C5B3C5B3C5B3C53E
:10254000B2C5B3C5D2CDD2CDD2CDD2CDD2CDB2C50A
:10255000D2CDD2CDD4CDF4D513CEF3CD13CEF4C598
:1025600016CE13AD0752E74165396431A5396429A8
:102570004429642943294329442965298531863121
:10258000653185314B6B93BD56D656D636D656D669
:1025900056DE57DE56D636D636D656D656D636D62A
:1025A00035D635D635D635D615CE15CE15CE35D64B
:1025B00015D615D6F5CDF5CDF5CDF4CDF4C5F4C5CC
:1025C000F4C5F4C5F4C5F3C5D3C5B2BD51B571BDED
:1025D000D2CDB2C5AFCDB1C5D8E6DFFFFFFFFFFF5B
:1025E000FFFFFFFFFFFFFFFFFFFFFFFFFEFFFFFFFC
:1025F000BEF7C41821000000C739FFFFFFFFFFFF2F
:10260000FFFFFFFFFFFFFFFFFFFFFFFFFFFFDEFFFB
:10261000DEFF57D64FBD6FBD6FBD6FBD90C590C576
:1026200070BD70BD4FBD90C52FBD2FBD70C570C5AD
:1026300091C591C571C571C591C591C591C591C52A
:10264000B1C5B1CDB1C5B1CDB1CDB1CDB1CDD1CD8A
:10265000D1CDD1CDD4D514D6F3CDF3CD13D614CE60
:10266000F5CDEA6AA541D6C554B543312329643175
:102670000321E218E22002212321242944294429AC
:10268000442944310229ED8336D656D635D636D67E
:1026900056DE56DE56DE35D655D676DE55D655D6BE
:1026A00055D635D635D615D6F4CDF4CDF4CD14D6D1
:1026B00015D615D614D6F3D5F3CDF3CDD3CDF3CDB2
:1026C000F3CDF3CDD2C5D2C5B1C5B1C52FBD0EB5C1
:1026D000D1CD90CDAFCDB1C5D8E6FFFFFFFFFFFF55
:1026E000FFFFFFFFFFFFFFFFFFFFFFFFFFFFFFFFFA
:1026F000BEF7C41821000000C739FFFFFFFFFFFF2E
:10270000FFFFFFFFFFFFFFFFFFFFFFFFFFFFFFFFD9
:10271000FEFF58D64EBD6FC56EC56FC58FC58FC540
:102720006FC56FC54FC590C54FC52EBD6FC590CD48
:1027300090CDB0CD90C590C590CDB0CDB0CDB0CD41
:10274000B0CDB0CD90C5B0CDB0CDB0CDB0CDD0CDA9
:10275000F1D5F0D5B2D5F3DDF2D512D6F2D554DEEF
:1027600011B523310F94DEFF57D643314231433147
:1027700043312329422943294329643164314431B7
:1027800044316431E128875A35D696E656DE56DE66
:1027900076E656E635D635D635DE56DE55DE35DEFE
:1027A00035D635D614D614D6F4CDD4CDF4D514D62A
:1027B00014D614D6F3D5F3D5F2D5D2CDD2CDD2CD11
:1027C000D2CDF2CDD2CDF2CDB1CDD1CD4FC5EDB47C
:1027D000D0CD8FCDCFD5B1CDD8E6FFFFFFFFFFFF26
:1027E000FFFFFFFFFFFFFFFFFFFFFFFFFFFFFFFFF9
:1027F000BEF7C41821000000C739FFFFFFFFFFFF2D
:10280000FFFFFFFFFFFFFFFFFFFFFFFFFFFFFEFFD9
:10281000FEFF58D66EC58FC56FC56FC58FCD8FCDE6
:102820008FC56FC56FC590CD6FC52EC56FC590CDD7
:1028300090CD90CD90CDB0CDB0CDB0CDB0CDB0CD10
:10284000B0CDB0CD8FCDB0CDD0CDB0CDB0CDD0D579
:10285000F1D5F1D5B2D5F2DD12DE12DED1CD54DEE6
:10286000EC8BC12833BDF2ACC9624331633101291D
:1028700063314331422963294329432923292329E9
:10288000232923310229E96AD4CD76DE55DE35DEEF
:1028900076E635DE55DE35DE55DE75E655DE55DE8F
:1028A00055DE35DE34DE14D6F4D5F4D514D614DE78
:1028B00034DE34DEF3D5F2D5F3D5F3D5F3D5F3D545
:1028C000D3D5D3D5F3D5F2D5D1D5F2D590CDEDBCB6
:1028D000B0D58FD5AED590C5D8EEFFFFFFFFFFFF77
:1028E000FFFFFFFFFFFFFFFFFFFFFFFFFFFFFFFFF8
:1028F0009EF7C41821000000C739FFFFFFFFFFFF4C
:10290000FFFFFFFFFFFFFFFFFFFFFFFFFFFFFEFFD8
:10291000FEFF58D66EC58FCD8FCD6FCD8FCD90CDAC
:102920008FCD6FCD8FCD6FCD90CD6FCD4FC590CD6D
:1029300090CD90CD90CD90CDB0CDB0CDB0CDB0CD2F
:10294000B0CDB0CDB0CDB0D5B0D5B0CDB0D5D0D55F
:10295000F1D5F1DDD2DDD1DDF1DDF1DDF2D5F3D55B
:10296000465AE2301BF7F2ACC120C120E1204331CE
:102970002229C12043296331633143294331433143
:10298000232922312231AFA4D4CD55DE75E655E698
:1029900076EE35E655DE34DE35DE55DE55DE35DEE7
:1029A00035DE34DE14DE14D6F3D5F3D514D614DEBA
:1029B00014DE14DEF3DDF3D5F3D5D3D5F3D5F3D59B
:1029C000D3D5D3D5F3D5D3D5B2D5B1D590D5CDBC4C
:1029D00090D5B0D5CFDD90CDD8EEFEFFFFFFFFFF45
:1029E000FFFFFFFFFFFFFFFFFFFFFFFFFFFFFFFFF7
:1029F0009EF7C42021000000C739FFFFFFFFFFFF43
:102A0000FFFFFFFFFFFFFFFFFFFFFFFFFFFFFEFFD7
:102A1000FEFF78D64FC590CD90CD6FCD90CD90CDA7
:102A200070CD70CD90CD90CDF2DDF2DD70CD70CD5A
:102A300090D591D590D5B1D5B1D5B1D5B1D5B1D5C8
:102A4000B1D5B1D5D1D5B1D5B1D5B1D5B1D5D1D516
:102A5000D1DDF2DDF3DDF2DDF2DD12DE54E610BD94
:102A60000131E64978DEF6C5643143312229422935
:102A700022296431422963314329432943314329BF
:102A800022290229E1286F9C31B572C596E634DE11
:102A900055E655E655E635DE55E655E655DE34DEB7
:102AA00034DE34DE14DEF4DDF3D5F3D5F3D514DEF5
:102AB00014DE34DE14DEF4DDF3DDF3D5F4DDF4DD15
:102AC000D4D5D4D5D4DDD3D5D3D5B2D5B2D5EEBCFB
:102AD0004FCDD1DDAFD54FC5B7E6DEFFDFFFFFFF3E
:102AE000FFFFFFFFFFFFFFFFFFFFFFFFFFFFFFFFF6
:102AF0009EF7C42021000000C739FFFFFFFFFFFF42
:102B0000FFFFFFFFFFFFFFFFFFFFFFFFFFFFDEFFF6
:102B1000FEFF78DE4FC590CD90CD70CD90CD90CD9D
:102B200070CD70CD91CD70CD13E613E670CD50CD44
:102B300070CD91CD91CD91CD91D591D591D591D5A6
:102B400091D591D5D2D5B1D5B1D5B2D5B1D5B1D573
:102B5000B2D5D2DDD2D5F2D533DE12DE54DE0C94FE
:102B600040184C7338D6F7C5442922214229222126
:102B700043294329422963294329432963294331AE
:102B800002290229E128E96A6E9C8FA4B7EE35DE9E
:102B900034E675EE75E655E655E655E655DE34DE67
:102BA00034DE34DE14DEF3D5F3D5D3D5F3D514DE1D
:102BB00014DE14DE13DE13DEF3D5D3D5D3D5F3D56F
:102BC000D3D5D3D5D3D5B2D5D3D5B2D5F2DD0EBDBD
:102BD0002FC5B1D5AFDD6FC5B7EEFEFFFFFFFFFF1D
:102BE000FFFFFEFFFFFFFFFFFFFFFFFFFFFFFFFFF6
:102BF0009EF7C42021000000C739FFFFFFFFFFFF41
:102C0000FFFFFFFFFFFFFFFFFFFFFFFFFFFFFEFFD5
:102C1000FEFF78D670CD91CD70CD70CD70CD70CDDA
:102C200091CD91CD91CD91CD71CD91CD91CD91CDD4
:102C300091CDB2D591D591D591CD91D5B2D5B2D511
:102C4000B2D5B2D5B2D5B2D5D2D5D2D5D2D5D2D5CC
:102C5000D2D5D2D5F3D534DEF2D513DE13D6E86A59
:102C600060188D7BFFFF308C032143294329C11855
:102C7000432902212229232943294329432923299E
:102C800022290229E120A4416B7B2E9C97EE55E678
:102C9000F3D575EE55E675E675E655E655DE35DE97
:102CA00055DE55E634DE34DE34DE14DE14DE34DE8A
:102CB00034DEF4DD33DE33DE33DE13D6F3D5D3D5A5
:102CC000D3D5F3D5B2CDD2D5B1CDD2D533DE90CDDB
:102CD000ACACB0CD8FD591CD97E6FEFFFFFFFFFFE7
:102CE000FFFFFFFFFFFFFFFFFFFFFFFFFFFFFFFFF4
:102CF0009EF7C32021000000C739FFFFFFFFFFFF41
:102D0000FFFFFFFFFFFFFFFFFFFFFFFFFFFFFEFFD4
:102D1000FEFF78D64FC590CD90CD90CD90CD70C5AB
:102D200070C570C590CD70CD91CD91CD91CD91CD27
:102D300091CDB1D5B2D5B1D591CD91CD91CDB1D502
:102D400091CD91CD91CD91CDB2D5B2D5B2D5B2D5EF
:102D5000B2D5D2D514D6D3CD13D6F2D5D3CDA3497F
:102D6000E228E7490B6B853144292321222143299D
:102D7000C118A118C118E220E2200221022102217B
:102D8000232943290229C12026520D94F4D555DE6A
:102D900096EE75E655E655E655E655E655E655DEFA
:102DA00055DE55DE55DE35DE34DE34DE34DE34DE2F
:102DB00034DE14DE13D633D633DE54DE33DE13D6E0
:102DC000F2D5F3D5F3D5F3D5F2D512D6F2D590C519
:102DD000EEB4D1CDB0D550C5B8E6FFFFFFFFFEF78A
:102DE000FEFFFFFFFFFFFFFFFFFFFFFFFFFFFFFFF4
:102DF0009EF7C32021000000C739FFFFFFFFFFFF40
:102E0000FFFFFFFFFFFFFFFFFFFFFFFFFFFFFEFFD3
:102E1000FEFF78D64FC590CD8FCD90CDB0CD8FCD64
:102E20006FC56FC590CD90CD90CD90CD90CD90CD0C
:102E300090CDB0CDB1D5B1D591CD91CD91CD91CD34
:102E400091CD70CD70CD71CD91CD91CDB1D5D2D583
:102E5000D2D5D2D5F3CDD3CD13D613DECFB401392D
:102E60002339C228A220A220E220C018C0180229BB
:102E70000229032902290321232923292329232184
:102E8000232923290329E2202231675A15D676DE29
:102E900055DE34DE55DE55DE55DE55DE55DE56DEBA
:102EA00055DE55DE55DE35DE35DE55DE35DE35DE0A
:102EB00035DE14DE54DE34D634D633D613D613D6EC
:102EC00013D613D6D2CDD2CDD2D5F3D5F3D5D2CD1C
:102ED0008DA489834883E87294BDFFFFFFFFFFFF45
:102EE000FFFFFFFFFFFFFFFFFFFFFFFFFFFFFFFFF2
:102EF0009EF7C32021000000C739FFFFFFFFFFFF3F
:102F0000FFFFFFFFFFFFFFFFFFFFFFFFFFFFFEFFD2
:102F1000FEFF78D66EC5AFCD8FC58FC5AFCD8FCD37
:102F2000B0CD8FCD8FC58FC590CDB0CD90CDB0CD6C
:102F3000B0CDB0D5B1D5B1D5B1D5B0CD90CD90CDC6
:102F400090CD90CD90CD90CD90CD90CDB1D5D1D527
:102F5000F2D5F2DD34D6F3D5D2D5F3DDEBA3E461BF
:102F600002416028602060204018C0204231423178
:102F7000433963396431643164316431643184319B
:102F8000643164314431E228C220233115CE76DE2B
:102F900075DE34DE35DE55DE55DE55DE55DE55DEBA
:102FA00056DE55DE55DE35DE35DE55DE35DE34DE09
:102FB00034DE14DE35D635D655DE55DE34DE14D695
:102FC000F3D5F3D514DEF3D5F4D5F3D5F4D514D673
:102FD000EC938020602000102F8CBFF7DFF7FFFFFD
:102FE000FEFFFEFFFFFFFFFFFFFFFFFFFFFFFFFFF3
:102FF0009EF7C31821000000C739FFFFFFFFFFFF46
:10300000FFFFFFFFFFFFFFFFFFFFFFFFFFFFFEFFD1
:10301000FEFF78D66EC5AFCD8FC58FCDAFCD8FCD2E
:10302000B0CDB0CD6FC58FC590CD90CD90CDB0CD8A
:10303000B0D5B0D5B1D5B1D5B1D5B1D5B0CD90CD94
:1030400090CD90CD90CD90CD90CD90CDB1D5D1D526
:10305000F2DDF2DDB2CDF3D5F2DDF2E52FCD14EEE7
:10306000CCA34030A03880306241455A297B087B90
:10307000A349013985398539A539A539A439A43938
:10308000A539A539C641853943310229D4CD96E603
:1030900035D655DE35DE76E696E676E655DE55DE45
:1030A00076E676E655DE35DE55DE55E635DE14DEAF
:1030B00014DE14DE15D635DE35DE35DE34DE34DEE4
:1030C00034DE14DED3D5F3D5F4DDD4D5D4CD36DE5D
:1030D000B0ACE12840180008518CFFFFFFF7FFFF5C
:1030E000FFFFFFFFFFFFFFFFFFFFFFFFFFFFFFFFF0
:1030F0009EF7C31821000000C739FFFFFFFFFFFF45
:10310000FFFFFFFFFFFFFFFFFFFFFFFFFFFFFEFFD0
:10311000FEFF78D66FC5B0CD8FCD8FCDB0CD90CD21
:1031200090CD6FCD6FC56FCD90CD90CD90CDB0CD02
:10313000B1D5B1D5B1D5B1D5B1D5B1D591D591CDA7
:1031400090CD90CDB1D5B1D590D5B1D5B1D5D1D5A2
:10315000D1D5D1DDF3DD33E6D1DDF2EDEED4279B21
:1031600051E5878A8361667ACB9BEEBC91D50FC50A
:103170000883E040C22803316439A541A541C5391F
:10318000C541C641C639074AA539643911ADB7E60C
:1031900035D6F3CD35DE76E696E676E655DE55DEB7
:1031A00055E675E655DE35DE55E655E635DE34DEA8
:1031B00034DE34DE14DE35DE35DE34DE13DEF3DD00
:1031C000F2DDF2DDD2D5D3D514DE14DED4D5F4D5BC
:1031D000F1B4644180180000518CFFFFDFF7FFF766
:1031E000FEFFFEFFFFFFFFFFFFFFFFFFFFFFFFFFF1
:1031F000BEF7C31821000000C739FFFFFFFFFFFF24
:10320000FFFFFFFFFFFFFFFFFFFFFFFFFFFFFEFFCF
:10321000FEFF78D64FC590CD90CD90CDB1D590CD55
:1032200090CD70CD70CD70CD70CD70CD70CD91CD75
:10323000B1D5B1D5B1D5B1D5B1D5B1D5B1D5B1D55E
:10324000B1D5B1D5B1D5B1D5B1D5B1D5B1D5B1D54E
:10325000D1D5D2DDD2DDB1DDD1E5D1ED06A3EAC312
:103260000BC4AFD4E7920CBC91DD74FED5FE33F6EF
:103270002CB4415980208120C128223163398439FE
:10328000A539A539A5396539C641E6492A7352BD24
:1032900076DE34D635DE76E696E676E655DE35DE43
:1032A00055E655E655E655E655E655E635DE35DE96
:1032B00035E614DED3D513DE34E633E6D1DD90CD2A
:1032C0002EC5EEBC2EC52FC570CDF3D5F3D5F4D5E4
:1032D00031BDE551401000003284FFFFFFF7FFFFD2
:1032E000FFFFFEFFFFFFFFFFFFFFFFFFFFFFFFFFEF
:1032F000BEF7C41821000000C739FFFFFFFFFFFF22
:10330000FFFFFFFFFFFFFFFFFFFFFFFFFFFFFEFFCE
:10331000FEFF78D670CDB1CD90CD91CDB1D591CD08
:1033200091CD91CD70CD70CD70CD70CD70CD91CD52
:1033300091D591D591D592D5B2D5B2D5B2D5B2D5D8
:10334000B2D5B2D5B2D5B2D5B1D5B1D5B1D5B1D549
:10335000D2DDD2DD13E6F2E512F6EDD4E9C3D1FDFC
:103360000BCC8DD4AED48DCC53FE73FE73FE94FE85
:103370000BB4E371A5490331602040188018C120C7
:10338000C120C120C220A120C120A120C1286239B2
:103390000C9434D635DE76E696EE76E655E655E6BE
:1033A00055E655E655DE55E655E655E634DE35DE9E
:1033B00035E614DE33DE13DEF1D56FCD0DBDCCBCAA
:1033C000ECBCECBC0DC50DC52EC570CDB2CDF3D592
:1033D00092CD6662201000003284FFF7FFF7FFF7FE
:1033E000FEFFFEFFFFFFDFFFFFFFFFFFFFFFFFFF0F
:1033F000BEF7C41821000000C739FFFFFFFFFFFF21
:10340000FFFFFFFFFFFFFFFFFFFFFFFFFFFFFEFFCD
:10341000FEFF78D66FC5B0CDB0CD8FCD8FCD8FC527
:103420006FC54FC54FC590CD90CD70CD70CDB1D586
:10343000B1D590CDD1D5B1D5B1D5D1D5B1D5B1D545
:10344000B1D5D1D5B1D5B1D5B1D5B1D5B1D5D2D50B
:10345000D2D5D2D513E6D3DD34EE2ED5CBD42ACCBB
:10346000A9C3ADEC4EF5AEEDB2FEB3F6D3F653EE16
:10347000ECB3688AE561A3592249A0302020602876
:10348000C130A028812081208118611020084008C7
:1034900040080B6315D696E675E675E655DE55DEF3
:1034A00036E636DE15DE76EE54E633DE53DE34DE07
:1034B00035DE16DE35EE91D50EC5EDBCEEBCCDBCCD
:1034C000CCBC0BC50BC54CCD0DC5ECBC6FCD90CDA8
:1034D000B3D5E97A400800003084FFFFDFFFDFFF4B
:1034E000FFFFFFFFFFFFFFFFFFFFFFFFFFFFFFFFEC
:1034F0009EF7E21821000000C739FFFFFFFFFFFF22
:10350000FFFFFFFFFFFFFFFFFFFFFFFFFFFFFEFFCC
:10351000FEFF78D66FC5B0CDB0CD8FCD8FCD8FCD1E
:103520006FC56FC570CD90CD90CD70CD70CDB1CD44
:10353000D1D5D1D5D1D5D1D5D1D5D1D5B1D5B1CDA3
:10354000B1D5D1D5D1D5D1D5D1D5B1D5B1D5D2D5AA
:10355000D2D5D2D5D2DD14E6D2E5B0E54DE5228A4A
:10356000CACB33FED0FDCEED92FED3F6D4FE32EEC2
:103570002DBC488A67728351E140E138C030A030E9
:10358000E2382339C2288120401040100008611021
:1035900061080000ED9397E675E675E675E635DEA1
:1035A00036DE36E615DEF4D575E674E674E635E605
:1035B000D4D557E6B1D54FC5EDBCECBCEDBCEDBCE8
:1035C0000CBD2BC50ABD0BBD0CBD2CBD2DC54DC5FD
:1035D000B1D5CB93600800001084FFFFDFFFFFFF31
:1035E000FFFFFFFFFFFFFFFFFFFFFFFFFFFFFFFFEB
:1035F0009EF7E21821000000C739FFFFFFFFFFFF21
:10360000FFFFFFFFFFFFFFFFFFFFFFFFFFFFFEFFCB
:10361000FEFF78D66FC5B0CDB0CD8FCD90CD90CD1B
:1036200090CD90CD90CD90CDB0CD90CD70CD91CDB1
:10363000D1D5F2D5D1D5D1D5B1D5B1D591CD90CD0A
:10364000B1CDD1D5D1D5D1D5D1D5D1D5D2D5D2D570
:10365000D2D5F2DD92D5F3E513E652F610F68BD40F
:103660002FF533FE8FFDAEF592FEB3FEF4FED4FED1
:1036700010DDE679676A6349C1380241434123415D
:10368000434164410331C2288118411020080000E1
:1036900040080000433915D655DE34DE75E635DEC8
:1036A00035DE56E656E614DE54E633DE34DE14D656
:1036B00056E6D5D54EBD2DBD0CB5ECB4CCB4CCB4CE
:1036C000ECB4EBB40BBD0BB50CBD2DBDCAAC2CBD21
:1036D000AECD2AA4C21000001084DFFFDFFFFFFF81
:1036E000FFFFFFFFFFFFFFFFFFFFFFFFFFFFFFFFEA
:1036F0009EF7E21821000000C739FFFFFFFFFFFF20
:10370000FFFFFFFFFFFFFFFFFFFFFFFFFFFFFEFFCA
:10371000FEFF78D66FC5B0CDB0CD90CD90CD90CD19
:1037200090CD90CD90CD90CDB0CDB1D5B1CD91CD46
:10373000B1D5B1D5D1D5B1D5B1D590CD90CD90CDB4
:1037400090CDB1CDB1D5D1D5D1D5F2D5F2D5D2D597
:10375000F2DDF2DD13E6F3E5D2DD32EED3FE32FE2A
:103760002BD40EED8FFDCFF571FE72FEF4FE15FF2A
:10377000D2F5E579E238A1308028813023418449AF
:1037800085498549443981204110000820080000FE
:10379000000081100008D1AC77DE15D655DE35DE8D
:1037A00015DE56E6F5DD55E634DE54E634DE76E623
:1037B00011B5E97207730673E56AC46AA56A856282
:1037C00085628462425A235A03520252205A89A4C3
:1037D0008DCD8AAC23210000318CDFFFDFFFFFFF9E
:1037E000FFFFFFFFFFFFFFFFFFFFFFFFFFFFFFFFE9
:1037F000BEF7E21821000000C739FFFFFFFFFFFFFF
:10380000FFFFFFFFFFFFFFFFFFFFFFFFFFFFFEFFC9
:10381000FEFF78D66FC5B0CDB0CD90CD90CDB0CDF8
:1038200090CD90CD90CD90CDB1D5D1D5D1D5B1D5CC
:1038300091CDB1D5B1D5B1D590CD90CD90CD90CD24
:1038400091CD91D591CDB1D5D2D5F2DDF2DDF2DDBC
:10385000F2DDF2DD13E6D2DDF3E552F650F6AFED20
:10386000ADDCCEE46EF5AEF531FE52FEB3FED3FE16
:1038700033FE29A38130602840286028C1304441AC
:103880004441854924398120201020100008200857
:103890000008000000088C7BB8E615D615D635DE8A
:1038A000F5DD36E615DE15DE14DE54DE75E6D4CD24
:1038B000A44120186018601860184018401840187B
:1038C000201020102010401820102018A028ABAC89
:1038D000CFD50DBD84310000518CFFFFDFFFFFFF0E
:1038E000FFFFFFFFFFFFFFFFFFFFFFFFFFFFFFFFE8
:1038F000BEF7E21821000000C739FFFFFFFFFFFFFE
:10390000FFFFFFFFFFFFFFFFFFFFFFFFFFFFFEFFC8
:10391000FEFF78D64FC590CDB0CD90CDB0CDB0D50F
:10392000B0CDB0CDB1D5B1D5B1D5B1D5B1D5B1D579
:10393000B1D5B1D5B1D590D590CD90D5B1D5B1D5C2
:10394000B1D5D1D5B1D5D1D5F2DDF2DDF2DDD2DD03
:10395000D2DDF2DDF3E513E6B1DD52EE30EE6EE5D9
:103960002BC42FEDCCDCAFFD11FE11FE31FE30FE7D
:1039700012FE2CC4C559803000204028E238234173
:10398000C2300339033123396118001000080008E0
:10399000200841080008895A99DEF5CDD5CD16DEFC
:1039A00015DE36E656E615DE14DE14D6B7E6096BEC
:1039B0000008401041106010601040104110621863
:1039C000621042104210421042184118E030CDB44B
:1039D0004ECDEDBC26420000508CFFFFDFFFFFFF05
:1039E000FFFFFFFFFFFFFFFFFFFFFFFFFFFFFFFFE7
:1039F000BEF7E21821000000C739FFFFFFFFFFFFFD
:103A0000FFFFFFFFFFFFFFFFFFFFFFFFFFFFFEFFC7
:103A1000FEFF78D64FC590CDB0CD90CDB0CDB1D50D
:103A2000B0CDB1D590CDB1D5B1D5B1D5B1D5B1D598
:103A3000B1D5B1D590D590D5B1D5B1D5B1D5B1D598
:103A4000D1D5D2DDD1D5D2DDF2DDF2DDF2DDF2DD90
:103A5000F2DDF2DDB2DDD2DDF2E511E66DD531F653
:103A6000EED4ADD48BD4F0FD31FED0FD8EF56DEDEE
:103A70004EED4CCC877201416030803002414349A9
:103A8000A130812802316439C228000820100008C2
:103A9000000861100000AA5A58D6F6CDD5CDF5D54C
:103AA000F5DD15DEF4DD35DE35DE76E652BD801857
:103AB00040108118211020082008401041104210A9
:103AC00042104208631023082210201000310DBD5F
:103AD0006DCD6DD5C85A0000508CFFFFDFFFFFFF92
:103AE000FFFFFFFFFFFFFFFFFFFFFFFFFFFFFFFFE6
:103AF000BEF7E31821000000C739FFFFFFFFFFFFFB
:103B0000FFFFFFFFFFFFFFFFFFFFFFFFFFFFFEFFC6
:103B1000FEFF78D64FC590CD90CD90CD90CDB0CD55
:103B200090CDB0CD70CD91CDB1D5B1D5B1D5B1D508
:103B3000B1D5B1D590CDB1D5B1D5B1D5B1D590CDA7
:103B4000B1D5D1DDF2DDF2DDF2DDF2DDF2DDF2DD67
:103B5000F2DD13DEF2E5D2DDD1DD4DCDCABCE8AB3E
:103B6000A9ABEABB8CD4AFFD8FFD6FF56EF50CE50C
:103B70000CE5EEE4098B4672256A635922496351CC
:103B8000C1384020C130223927528118000840082E
:103B90002008000000004D6B59CE17CE17D6D5CDAA
:103BA000D5D5D4D535E635E6F4D5B7E6885A20081C
:103BB00081100008210820084008601060104008AB
:103BC00061086108610801082108201040394DC5CD
:103BD0002BC54BCD2A6B0008508CDFFFDFFFFFFFAA
:103BE000FFFFFFFFFFFFFFFFFFFFFFFFFFFFFFFFE5
:103BF000BEF7E31821000000C739FFFFFFFFFFFFFA
:103C0000FFFFFFFFFFFFFFFFFFFFFFFFFFFFDEFFE5
:103C1000FEFF78D64FC5B0CD90CDB0CDB0CD90CD14
:103C200090CD90CD90CDB1D5B1D5B1D5B1D5D2D5BE
:103C3000D2D5B1D590D5B1D590D5B1D5B1D5B1D575
:103C4000B1D5F2DDF2DDF2DDD2DDF2DDF2DDF2DD65
:103C5000F2DDF2DDD1DDF2DDD1E5CCBC2CCDC7A3A8
:103C60002793A9AB8CCC2EED2EEDEEE42DED8EF549
:103C7000F0FD12FEAEC4499BCBABECAB6A9BA359E3
:103C8000A03840282020676236D60E8C000800003D
:103C90002008410800009394DBDE59D6F7CD17D6F3
:103CA000D5D5D4D5F4D514DE56DE73BD80184010BA
:103CB0004008400821084008600860086008600863
:103CC000600880086108200841100008A1494CC51F
:103CD0004BCD8BDDCC830008508CFFFFDFFFFFFF57
:103CE000FFFFFFFFFFFFFFFFFFFFFFFFFFFFFFFFE4
:103CF000BEF7E31821000000C739FFFFFFFFFFFFF9
:103D0000FFFFFFFFFFFFFFFFFFFFFFFFFFFFDEFFE4
:103D1000FEFF78D66FCDB0CD90CD90CDB1D590CD02
:103D200090CD90CD90CDB1D5B1D5B1D5B1D5D1D5BE
:103D3000D1D5D1D5B0D5D1D5B1D5B1D5D1D5B1D5D4
:103D4000B1D5F2DDD1DDF2DDF2DD12DE13DE13DE00
:103D500012DEF2DD12E6F2E570D50DCD6DD52AB496
:103D60002793AAABEAB34BC4ADDCADDC2EEDAFFDBF
:103D7000CFFD32FE91ED48A3AAAB51DDD3EDECAB04
:103D80006251602820208FA4F9EE98DE2F8C200845
:103D900020000000C7317AD6DBDE9BDEDBEE79E661
:103DA00094CDD4D5F4D515DE56E66B7B20104010AB
:103DB0004010400842084108400860084008400898
:103DC000600860088008400841100010E2516DCD85
:103DD0006CD58CE50D9400082F8CFFFFDFFFDFFF13
:103DE000FFFFFFFFFFFFFFFFFFFFFFFFFFFFFFFFE3
:103DF000BEF7E31821000000C739FFFFFFFFFFFFF8
:103E0000FFFFFFFFFFFFFFFFFFFFFFFFFFFFFEFFC3
:103E1000FEFF78DE70CDB0D590CD90CDB1D5B1D5C7
:103E2000B1D590CDB1D5B1D5B1D5B1D5D1D5D1D54B
:103E3000D2D5D2DDD1D5D1D5D1D5D1D5D1D5D1D548
:103E4000B1D5F2DDD1D5D1D5F2DDF2DD12DE13DE52
:103E500012DE12DE32E6D1DDCDBC2DCD6DDDCCC45F
:103E60002893AAA3A9A3A9AB2CC40CC4ACDCCFFD96
:103E7000D0FD12FED1F589AB2CC471E510D531D53A
:103E8000098B8030424131BDD8EE57D6FAE654ADA9
:103E90000842E83955A53DEF9BD6DCE6FBEE99E6F6
:103EA000D5CDF4D5F4D535DEF5CD43392008401015
:103EB00041086108230841084008401040104010A4
:103EC000400860086108210841102010245A6ED56E
:103ED0006DDD8DE5AEA420100F8CFFFFDFFFFFFF2F
:103EE000FFFFFFFFFFFFFFFFFFFFFFFFFFFFFFFFE2
:103EF000BEF7E31821000000C739FFFFFFFFFFFFF7
:103F0000FFFFFFFFFFFFFFFFFFFFFFFFFFFFFEFFC2
:103F1000FEFF78D670CDB0D590CD90CDB0D5B0D5D0
:103F2000D1D5B1D5B1D5B1D5B1D5D1D5D1DDD2DDD0
:103F3000D2DDF2DDD1D5F1DDF1DDD1D5F1DDD1D5A7
:103F4000D1D5F2DDD1DDD1DDD1DDF2DDF2DD12DE64
:103F500013DE13E632E690D56CB44ED56EDDCCC4DC
:103F6000C78A6A938A9B289369A38AAB2BC44EEDB8
:103F7000AFF5F2FD33FE4BC4AAB3CFD4EFCCF1CCF6
:103F8000098B4249E459F4D597E697DE57D6DADE35
:103F9000BBDE5ACEFCDE7ACE7AD69BDE7ADE38DE07
:103FA000F5CDF5D514D656DE90A440104010401043
:103FB00040086110230841084008401020102110DB
:103FC000401040086008210841102010856A8FD5F4
:103FD0004DDD6DE510B560180E8CFFFFDFFFFFFFB4
:103FE000FFFFFFFFFFFFFFFFFFFFFFFFFFFFFFFFE1
:103FF000BEF7E31821000000C739FFFFFFFFFFFFF6
:10400000FFFFFFFFFFFFFFFFFFFFFFFFFFFFFEFFC1
:10401000FEFF78D66FCDB0D590CD90CDB0D5B0D5D0
:10402000D1D5B0D590CD90CDB1D5D1D5D1DDF2DD02
:10403000D1DDF2DDD1DDF1DDF1DDD1DDD1DDD1DDAF
:10404000D1DDF2DDF2DDF2DDF2DDF2DD12DE12E6CF
:1040500013E613E652E690D5ADC48FE58EE54BBC72
:10406000457AA77A08838672667AE892CAB3ACCC9E
:1040700090ED13FE54FEB1ED289B257A0572ACA39A
:10408000098B8351876A15DE36DE57DE99DE38CE1E
:1040900039CE39CE18C639C67AD619CE5AD638D6C0
:1040A00094C5F5D515D676DEA962001041104010F2
:1040B0004008400842084008400820102010201006
:1040C000201040086008400840102010E672AED56D
:1040D0006DDD6DE550BDC028EE8BFFFFDFFFFFFFFC
:1040E000FFFFFFFFFFFFFFFFFFFFFFFFFFFFFFFFE0
:1040F000BEF7E31821000000C739FFFFFFFFFFFFF5
:10410000FFFFFFFFFFFFFFFFFFFFFFFFFFFFFEFFC0
:10411000FEFF58D64FC5B0D590CD90CDB0D5B0D517
:10412000B1D5B0D56FCD90CDB1D5D1D5D1D5D1DD6B
:10413000D1DDD1DDD1DDF2DDD1DDD1DDF1DDF1DDAE
:10414000D1DDD1DDD1DDD1DDF2DD12E612E612E600
:1041500012E612DE32DE70CD2FD5D0ED8FEDCAAB78
:10416000C469E55925624562E5612572289B8CCCBE
:1041700090EDB1ED71E592E5499BC469015147723B
:10418000A87AA451C872F4D5D4CD36D657D617CE56
:1041900059D65ACE58CE9AD619CE39CE3AD618D646
:1041A00094C5F5CD76DEF5CD233120100008411001
:1041B00061102008400840084008401020102110DD
:1041C000201040084008400840104010477BCED5E2
:1041D0008DDD6DDD71C56239ED8BFFFFDFFFFFFF08
:1041E000FFFFFFFFFFFFFFFFFFFFFFFFFFFFFFFFDF
:1041F000BEF7E31021000000C739FFFFFFFFFFFFFC
:10420000FFFFFFFFFFFFFFFFFFFFFFFFFFFFFEFFBF
:10421000FEFF37D64FC5B0CD90CD90CDB0D5B0D53F
:10422000B0D570CD6FCDB0D5D1D5D1D5D1D5F1DD4B
:10423000F1DDD1DDF1DDF2DDD1DDD1DDF2DDF2DD6B
:10424000D1DDD1D5B1D5D1DDF2DD12DE12E612DE3F
:10425000F2DDF2DD11D64FCD6FD5F1F54EE568A355
:1042600083614349A349E451A451A45908938CC4E0
:104270006CC489AB49932DB4667A22514351845959
:10428000A459C559A451D0AC36DE16D6F6CD59D6B0
:10429000F8C519CE79CE38CEF8C53ACE19CEF7CDBD
:1042A000B5C515D6B7E6AFA4401040102010401099
:1042B000611040086008600840084010201001109C
:1042C0002110401040082008400840108883CED5B7
:1042D0008DDD6DDD91C5E449ED8BFFFFDFFFFFFF55
:1042E000FFFFFFFFFFFFFFFFFFFFFFFFFFFFFFFFDE
:1042F000BEF7E31021000000C739FFFFFFFFFFFFFB
:10430000FFFFFFFFFFFFFFFFFFFFFFFFFFFFFEFFBE
:10431000FEFF37CE4FC590CD8FCD90CDB0D5B1D566
:10432000B0D56FCD90CDD1D512DEF1DDD1DDF2DD8E
:10433000F2DDD1DDF1DDF2DDF1DDD1DD12E612E6F7
:10434000D1DDB1D5D1DDD1DDF2DDF2DD12DE12DE5F
:1043500012E612E631D66FCD70DDF1F50DDD48A322
:1043600063590241834942394341C5616A9B2BBC71
:1043700044820059825925728359C140A138E240D4
:104380006451C55960286341D4CD16D6F6CDF7CD1A
:1043900019CED8C5D29C14A55AD6D8C5F8CD18CEFA
:1043A000B4C515CEB7E64A7B00084010411020087E
:1043B00020082008600860086008401021100210E2
:1043C000211021104008400840084010A88BCFD58C
:1043D0008DD56DDDB1C5455AED8BFFFFDFFFFFFFCA
:1043E000FFFFFFFFFFFFFFFFFFFFFFFFDFFFFFFFFD
:1043F000BEF7E31021000000C739FFFFFFFFFFFFFA
:10440000FFFFFFFFFFFFFFFFFFFFFFFFFFFFFEFFBD
:10441000FEFF58D64FC590CD90CD90CDB0D5B0D53C
:1044200090CD90CD90CDB1D5D2D5D1D5D1D5F2DD2D
:10443000F2DD13DEF3E5F3DDF2DDF2DDF2DD12DEB7
:1044400011DE11D6D0D511DEF1DDF1DD12E6F2DD9F
:10445000F2DD34E6F1E58FDD8FE5D0F50EDD079373
:10446000C4616028E230E228233946622983877AD2
:10447000625901492251A461A4616459A238813072
:104480006549854920104010709437CEF7C518C68D
:10449000F8C5B7BD294AEC5A39CED7C5F7CDF6CD08
:1044A00073BD15D6B7E684410008401020086008A7
:1044B0004008200040082008210840084008400823
:1044C00021102010400840004008601809A48CDD2D
:1044D0006BD58DD52DCD866AEF8BFFFFFFFFFFFFDC
:1044E000FEFFFFFFFFFFFFFFFFFFFFFFDFFFFFFFFD
:1044F000BEF7E21821000000C739FFFFFFFFFFFFF2
:10450000FFFFFFFFFFFFFFFFFFFFFFFFFFFFFEFFBC
:10451000FEFF58D66FCDB0D5B0D5B0D5B0D5D1D57A
:10452000B0D5B1D5B1D5D1D5F2DDF2DDF2DDF2DD18
:1045300012DE12DE13E613E6F2DDF2DD12DE32DE0B
:1045400012DEF1DDF1D512DEF1D512DE12DE12DE61
:1045500013E6F2DDB0DD4ED5B0EDD0F5CDD469A3D4
:10456000E469C0308020C1282239A449E559E461BA
:10457000056A877AE4694251C148445185598230BD
:104580000341812800104010CD83D5BDF6C5B6BDCE
:10459000F7C5B7BDB394F4A4B7BDD7C5B6C594C528
:1045A00094C515D6B4CDA0282010411020082008AD
:1045B00040084008400820082108400840084008FA
:1045C00020102010400840004008802009A48CE5FD
:1045D0006BD56DD50DCDC7723094FFFFFFF7FFFF90
:1045E000FFFFFFFFFFFFFFFFFFFFFFFFDFFFFFFFFB
:1045F000BEF7E21821000000C739FFFFFFFFFFFFF1
:10460000FFFFFFFFFFFFFFFFFFFFFFFFFFFFFEFFBB
:10461000FEFF78D66FCDB0D5B0D590CDB0D5B0D5A2
:10462000B0D5B1D5B1D5D1D5D1DDF2DDF2DD12DE17
:1046300012DEF2DD13E613E6F2DDF2DD13DE33E621
:1046400013DEF2DDF2DD12DED1D533E612DE12E644
:1046500033E6D1DD90D5D1E5B0EDB0F5ACD468A3AB
:104660002572E14060208020E230223922418351CE
:1046700066722993E88266724351E2482349A13861
:10468000C2380018201800086752D5BDD5C5D6C558
:10469000D6C5B6BDB7BDB6BDB7BDB7C5B6C5B5C540
:1046A00073C5F4D58FA400102010411041102008CC
:1046B0002000600840082008200820084008400822
:1046C00020102010400840004008A0204AAC8CE593
:1046D0006CDD4CCD0CC5087B909CFFFFFFF7FFFF06
:1046E000FFFFFFFFFFFFFFFFFFFFFFFFDFFFFFFFFA
:1046F000BEF7E21821000000C739FFFFFFFFFFFFF0
:10470000FFFFFFFFFFFFFFFFFFFFFFFFFFFFFEFFBA
:10471000FEFF78D66FCD90CD90CD90CD90CD90CD41
:1047200090CDB0D5B1D5D1D5D1D5F1DD12DE12DE27
:1047300012DEF1DD13DE13DEF2DD13DE13E613E627
:1047400013E6F3DDF3DD13E6F2DD32E6F1DD32E60A
:1047500031E611DEF2DDADBC6FDD6FEDACD488ABC0
:10476000A682424980286020C1280231013942498D
:10477000256AC882A77A056A22492349E240C238DD
:1047800040204020401880180008AC7B57D637CE18
:10479000D6C5F6C5D6BDB6BD18CEF7CDF7CDB5C5D5
:1047A00073BD35D66A7B001020102110211021081E
:1047B0002000400820082008200820084000400869
:1047C00020102010400840084008C0286BB48CDD41
:1047D0006CDD4CCD0CCD698BB1A4FFFFFFF7FFFF63
:1047E000FFFFFFFFFFFFFFFFFFFFFFFFDFFFFFFFF9
:1047F000BEF7E21821000000C739FFFFFFFFFFFFEF
:10480000FFFFFFFFFFFFFFFFFFFFFFFFFFFFDEFFD9
:10481000FEFF78D66FCD90CDB0D590CDB0D5B0D5C8
:1048200090CDB0D5D1D5D1D5F1DDF1DD12DE32E6B6
:1048300012DEF1DD12DE12DE13DE13DE13E6F3E527
:10484000F3E513E6F3E513E612E612E611DE32E6CF
:1048500031DE72E66DAC446A8FE56EEDACDC4BCCBC
:10486000279BE461E13860208020C1288028C1387E
:10487000E561A77A6672A359A03884596451E24071
:104880006028A128223984416339675277DEFAEE25
:10489000D9E6FAEE78DEB9DEBAE6FBEEDAEE16D647
:1048A000D4CD35DE0552201020102110210821081A
:1048B00020082000200820082008200820002008C8
:1048C00020102010400840084008E1308BBC6CDD0F
:1048D0008CDD6DD56DD5CA93D2ACFFFFFFFFFFFF16
:1048E000FFFFFFFFFFFFFFFFFFFFFFFFDFFFFFFFF8
:1048F000BEF7E21821000000C739FFFFFFFFFFFFEE
:10490000FFFFFFFFFFFFFFFFFFFFFFFFFFFFDEFFD8
:10491000FEFF78DE70CD90CDB0D5B0D5B1D5B0D595
:1049200090CDB0D5B0D5D1D5D1D5F1DDF1DD12DE48
:1049300011DEF1DD12DE12DE13DE13E6F3DDD2DD71
:10494000D2DDF3E5F3E513E633E612E612DE32E6F6
:1049500031E610D620416472F1F50DE5ECE4CCDCD3
:10496000A9B3A68263498028401880206020C13006
:10497000C451676A877205622249E5598451C1387A
:10498000E2380239223987624E9C0D8C11ADF1ACB0
:1049900032B533BD73BD94BD73BD53BD53BD36DE5B
:1049A000B3C5F4CD423920100010211001082108B0
:1049B00020082000200820082108200840002008A6
:1049C000201020104008400820082139CCC46BDD9D
:1049D000ACDD8DD5AEDD4CA412ADFFFFFFFFFFFFB8
:1049E000FFFFFFFFFFFFFFFFFFFFFFFFDFFFFFFFF7
:1049F000BEF7E21821000000C739FFFFFFFFFFFFED
:104A0000FFFFFFFFFFFFFFFFFFFFFFFFFFFFDEFFD7
:104A1000FEFF98DE70CD90CD90CDB0D5D1D5B0D57C
:104A2000B0D5B0D5B0D5B0D5D0D5D0D5F0D5F1DD95
:104A3000F1DDF1DD12DE12DE12DE12E612E6F2DD4B
:104A4000F2E5F2E5F2E533E633E632E612DE11DEB8
:104A500073E6CDB420188DB4D1F5ECE40CEDECE4A4
:104A60002ACCE78A05620239602060206020C130CC
:104A700043418449265AC451434964490241434948
:104A80006349A45183498FA4AFA452BD6F9CA8620F
:104A90000A7388628662665AA862475A2A7B93C55F
:104AA000B3CD55DE255220102010211021082108F9
:104AB00020082000200820082108200840002008A5
:104AC0002010201020084008200862410DCD6BDD29
:104AD000ACE5ADDDCEE5CDB453BDFFFFFFFFFFFF7D
:104AE000FFFFFFFFFFFFFFFFFFFFFFFFDFFFFFFFF6
:104AF000BEF7E21821000000C739FFFFFFFFFFFFEC
:104B0000FFFFFFFFFFFFFFFFFFFFFFFFFFFFDEFFD6
:104B1000FEFF98DE90CD90CD90CDB0D5D1D5D1D53A
:104B2000B0D5B0D5B0D5D0D5D0D5D0D5D0D5F0DD95
:104B3000F1DDF1DD12DEF1D512DE12DE12E612E653
:104B400012E612E612E633EE33E633E6F2DDD1CDBD
:104B500074E6A98BC35170D54FE54DEDCBEC2DF527
:104B60006BD4E69266728449A12840182018602010
:104B7000A128C130C13002392341A130C55198EE7E
:104B8000D9F6B8EED8F65AFF3AFF5AFF5AFF3AFF65
:104B9000D8F673C571C530BD31BDF0B451BD72C515
:104BA000F3D5F3CDAB83601840100008210820082E
:104BB000400800002008200821084008400820087C
:104BC00020102010200840082000A3492DCD6BDDC7
:104BD000ACE5CEDDEEE52EC5B4C5FFFFDFFFFFFF80
:104BE000FFFFFFFFFFFFFFFFFFFFFFFFDFFFFFFFF5
:104BF000BEF7E21821000000C739FFFFFFFFFFFFEB
:104C0000FFFFFFFFFFFFFFFFFFFFFFFFFFFFFEFFB5
:104C1000FEFF98DE6FCD90CDB0D5B0D5D1D5D1D532
:104C2000D0D5D1D5D1D5D0D5D0D5F0D5F0D511DED0
:104C300011DE11DEF1D511DE11DE11DEF1DD11DE46
:104C400011E611E611E632E653EE13DE13DE14DE52
:104C5000D3D5A76AA77A91DDCDD42DED0BF52CF530
:104C60004AD4479BA77A055A033960202018201898
:104C7000401840186020A12880204020AD9390ACBF
:104C8000F1BC12BD12BD32BD11BD12BD73C512BD46
:104C90004EA46FA44FC5B2D571C551C571C5AEAC98
:104CA00034DE71BD0873C44140102008200840085C
:104CB00020002000200820080008200840084008A4
:104CC0002010201040104008000005526ED56BDD0A
:104CD000ACE5EEE52FEE4FCDF5CDFFFFDFF7FFFFA3
:104CE000FFFFFFFFFFFFFFFFFFFFFFFFDFFFFFFFF4
:104CF000BEF7E21821000000C739FFFFFFFFFFFFEA
:104D0000FFFFFFFFFFFFFFFFFFFFFFFFFFFFFEFFB4
:104D1000FEFF78DE6FCD90D590D5B0D5B0D5B0D5AB
:104D200090D590D5D0DDD0D5D0DDF0DDD0DDF0DD73
:104D3000F1DDD0DD11D652E631DEF0D510DE10E621
:104D400010DE10DE11DE32E6F2DD54E614DE2D9CBC
:104D5000A86A223162496DBC4FDD2DEDECECECEC24
:104D60002ACCE692A78226626449C130401800101E
:104D70002010200840104018401820184B838C8BBE
:104D80008C8BED9BED93CD93CD93CC932A832A7B93
:104D9000E97A097B6BAC8CACADB44CA4CFB470C5D4
:104DA00013D6EFB40873E549401820100008200816
:104DB00020002000200800080008200840082008E3
:104DC000201020102008400820086662AFDD8BE527
:104DD000ACE5EEE50EEE6FCD15D6FFFFDFF7FFFF7A
:104DE000FFFFFFFFFFFFFFFFFFFFFFFFDFFFFFFFF3
:104DF000BEF7E31821000000C739FFFFFFFFFFFFE8
:104E0000FFFFFFFFFFFFFFFFFFFFFFFFFFFFFEFFB3
:104E1000FEFF78D66FCDB0D5B0D5B0D5B1D5B0D571
:104E20008FCD90D5D0DDD0D5F1DDF1DDF0DDF0DD39
:104E3000D0DDB0D5D1D531DEF1DDD0D531DE51E6D2
:104E400031E651E631DED1D574E614D6297B4339FB
:104E5000443903314020E461B1E50DDDACDCCCDC4C
:104E60002BC40793657A0562845102398028201883
:104E7000201020082008000800102018AD8BEE93A9
:104E8000EE9B0E9C2E9C2E9C4FA46C8B4762C451B3
:104E90000A7BE97A8BB4EDBCADBCCEBC54EE75E6B2
:104EA000B1CD8DA4C76A054A401040100008200803
:104EB00020002000200000080008200840082008EA
:104EC00020102010200840084008C76AAFDD6BE5BD
:104ED0008BE5ADE50DEE8FD556DEFFFFDFFFFFFF63
:104EE000FFFFFFFFFFFFFFFFFFFFFFFFDFFFFFFFF2
:104EF000BEF7E31821000000C739FFFFFFFFFFFFE7
:104F0000FFFFFFFFFFFFFFFFFFFFFFFFFFFFDEFFD2
:104F1000FEFF78D64FCD90D5B0D5D1D5D1DDD0D547
:104F2000B0D5B0D5D1DDD0D5D0DDF1DDD0DDD0DD4F
:104F3000D0DDB0D5B0D5D0D5F0DDF0DD10DEF0DDC0
:104F400011DE32DE12DE33DEAEAC66624339433947
:104F5000E328C22860280018C3618DC44BC46BC409
:104F60004CBCC78A2572C46163510241A1306120E3
:104F70004018200800000000000800088C832F9CC7
:104F80000E9CED9B0E9CEE9B70A40A7BE6594B8316
:104F90006B8BE97A2AAC2ECDCDC4ADBCEEBC278399
:104FA0002C9C6DA4A662E54920082010000820086A
:104FB00020082000200000080008200840082008E1
:104FC00020102010200840084008E8728EDD6BDDBC
:104FD0008BE5ADE5ECEDAFD576DEFFFFDFFFFFFF44
:104FE000FFFFFFFFFFFFFFFFFFFFFFFFDFFFFFFFF1
:104FF000BEF7E31821000000C739FFFFFFFFFFFFE6
:10500000FFFFFFFFFFFFFFFFFFFFFFFFFFFFDEFFD1
:10501000FEFF78D62FC570CDB0D5D1D5D1DDD0D596
:10502000B0D5B0D5F1DDD0D5D0D5D0D5B0D5D0D58F
:10503000D0D5B0D5D0D58FD5B0D5B0D58FCDF1D511
:1050400012DED1CD0FB5E772A3414239433123318E
:105050000329E3284018402000100041CA9BEBA31D
:105060008993E782256A83590149C040A138812884
:105070006118200800000000201000084C7B0E94EE
:105080000E9C0E9C0E9CCD930E9CCD936C8BC559A3
:105090000A83E97A4ED52ED5EECCAEBCCA9BE35935
:1050A000AEAC0B94A762C541200820102008200850
:1050B00020082000200000080008200840082008E0
:1050C000201020102008400840084983AEDD6AE522
:1050D000ABE5ADDDCCE5AFDD76E6FFFFDFFFFFFF43
:1050E000FFFFFFFFFFFFFFFFFEFFFFFFDFFFFFFFF1
:1050F000BEF7E31821000000C739FFFFFFFFFFFFE5
:10510000FFFFFFFFFFFFFFFFFFFFFFFFFFFFFEFFB0
:10511000FEFF78D64FCD90CDB0D5B1D5D1DDD0D56D
:10512000B0D5B0D5F1DDD0D5D0D5B0D5B0D5B0D5CE
:10513000D0D5B0D5D0DD8FD590D5B0D512DE33DE49
:1051400030BDCB8BE451423942312231022903294F
:1051500044316431A2202010802020188028A76AC2
:10516000097B8772056A6259E048C048C038A1309F
:105170006018200800000000000000084B7B0E941F
:10518000ED932E9CED932EA4CD93ED9BAC93887262
:105190004A83E97AC9AB2BB450D5CEC48A93C3599C
:1051A000CEB46983C86A84392010210821082008F8
:1051B00020082000200800080008200840084008B7
:1051C00020102010200840084008AA8BAEDD6AE5B8
:1051D0008BE56CDDCBE5AFDD97E6DFFFFFFFFFFF83
:1051E000FFFFFFFFFFFFFFFFFEFFFFFFDFFFFFFFF0
:1051F0009FF7E31821000000C739FFFFFFFFFFFF03
:10520000FFFFFFFFFFFFFFFFFFFFFFFFFFFFFEFFAF
:10521000FEFF78DE70CD90D5B0D5B1D5D1DDD1DD32
:10522000B0D5B0D5D1DDD0D5D0D5D1DDD0D5D0D584
:10523000D1DDB0D5B0D5D0DDD1DDD1D5B2CDAEACDC
:10524000C76A22396439433102292331233143317A
:105250002329433146292108401020100010201036
:10526000C549C551E559625921510151E148A13063
:105270006018200841082100000800082B734F9C8B
:10528000CD930D9CAC8B6FAC2FA4AD938B8B8449CD
:105290002983876AA58A2793EFCCCFC48A9B0462AF
:1052A0008EAC297B665AC1282010210821082008CD
:1052B0002008200020080008200820084008400896
:1052C00020102010000840084010EB93AEDD6AE586
:1052D0008BE56CDDECEDCFDDB7EEFFFFFFFFFFFFF1
:1052E000FFFFFFFFFFFFFFFFFEFFFFFFFFFFFFFFCF
:1052F0009FF7E31821000000C739FFFFFFFFFFFF02
:10530000FFFFFFFFFFFFFFFFFFFFFFFFFFFFFEFFAE
:10531000FEFF98DE70CD90D590D5B0D5D1DDF1DD12
:10532000D1DDD1DDD1DDD0D5F1DDF1DDF1DDF1DD96
:10533000F1DDD1DDB0DDF1DD6FCD8DAC8A8B055AAD
:105340000231433964392331C2206431E2204331D0
:1053500064314331262105214108400860100008CE
:1053600020108449C45983598261626101498030A7
:10537000401800080000410820080000C9622E9C67
:10538000ED932E9CAC936FAC12BDCD936B8BA8723A
:105390002983876AC58A64820BB410CDAA9BE4591D
:1053A000AFB4A76AE44920100008210821080000D2
:1053B00000002008200800082008200840084008B5
:1053C000201020102008600860100C9CAFDD6AE5FA
:1053D000ABEDADE5ECEDEFE5B7EEFFFFFFFFFFFF57
:1053E000DFFFFFFFFFFFFFFFFEFFFFFFFFFFFFFFEE
:1053F0009FF7E31821000000C739FFFFFFFFFFFF01
:10540000FFFFFFFFFFFFFFFFFFFFFFFFFFFFFEFFAD
:10541000FEFF98DE70CDB1D5B0D5B0D5D1D5B1D520
:10542000D2DDF2DDB1D5D0D510DEAECDCFD512DED6
:10543000D3D5F5DDB3C5AB83665A63392229643908
:10544000643184392329C22023294431232943315B
:105450004431433123390229C120A11820004000E2
:1054600040086339C361A2694582467A2241C12856
:10547000401020080000000040080000CA622F947D
:10548000CD93ED9B8C932EA46EA4ED8B6B834B7B05
:105490000B7B6972457A6582499BCFCC699BC35966
:1054A00014D656D6CD7B000020102010000800082E
:1054B00020082000200820082008201020082008AC
:1054C000400060082108211040208CB48EDDCEE51C
:1054D000ADE5CDE5ECEDD0DDF8F6DEFFFFFFFFFF3B
:1054E000FFFFDFFFFFFFFFFFFFFFFFFFDFFFFFFF0C
:1054F000BEF7E31821000000C739FFFFFFFFFFFFE1
:10550000FFFFFFFFFFFFFFFFFFFFFFFFFFFFFEFFAC
:10551000FEFF98DE91D5D1DDB0D5D0D5D1DDD1D586
:10552000D2D5D2D5F2DDB0D58ECD10DEF0D5B1D545
:1055300055E6B0B4A76283396239423143318439C8
:10554000643164310329C2202329443123294431A1
:105550006431443144390331E228C118400040002D
:1055600020006341E469E371868AE992A4598020AE
:10557000201020082108410800000000885A2E94BD
:10558000AC938B93AC93CC93CC93AC8BAC8BAD9313
:105590002B8B286A04726582A68A8EC4AAA3046231
:1055A000AFA435CE6B6B2008201000100010201027
:1055B00000002000200820082008201020082008D3
:1055C00040086008210800088028CCBCEFE5AEE563
:1055D000ADE5EDE50DF6F0E5F8F6FFFFFFFFDFFFC7
:1055E000FFFFFFFFFFFFFFFFFFFFFFFFDFFFFFFFEB
:1055F000BEF7E31821000000C739FFFFFFFFFFFFE0
:10560000FFFFFFFFFFFFFFFFFFFFFFFFFFFFFEFFAB
:10561000FEFF78DE91CDD1D5B0D5D0D5D1DDD1DDAD
:10562000D2DDD1DDB0D5F0D5AFD5CFD5B0CD53E6F5
:10563000CFB42662833921316339833963318439A8
:1056400043312331E228C2204431643143314431B3
:1056500064316431443923310229C2208110810828
:1056600000006441877A089B2CC4EDB30A830331A0
:10567000000820080008211000000008885A6F9CCC
:10568000ED936B8B4A8B6B8B8B8BCC8BAC93AC93EE
:105690000B8BC669C369C78AC78A6EC4288BE35956
:1056A000F0AC0D8C264A00002008000800104010C5
:1056B00000004008000020082008201021104008A9
:1056C0004000400001082010A0288793AABC89C48C
:1056D000A9C488BC25B429AC35DEFFFFFFFFFFFF5E
:1056E000FFFFFFFFFFFFFFFFFFFFFFFFDFFFFFFFEA
:1056F000BEF7E31821000000C739FFFFFFFFFFFFDF
:10570000FFFFFFFFFFFFFFFFFFFFFFFFFFFFFEFFAA
:10571000FEFF78DE91CDB1D5B0D5B0D5D1DDD1DDEC
:10572000D2DDD1DDD1DDF0D5F0DD10D673E630BDB0
:10573000055A2339A43963398439633943316431D3
:1057400043314431E220E220443164314431443178
:1057500064316431443903310331C220E218C21884
:10576000000084494EB4CFD451E5F1D4B1BC854199
:105770002010601000082010000800080652CD9389
:105780008B8BE982E882E87A29836A8B6A8B4A8B61
:10579000E982C569A040C88A0993499B088BE459EE
:1057A00092C5C862A43900084010201000102010D3
:1057B00000002000000000082008201021104008F0
:1057C00040084000010020106020626A038B24938F
:1057D0004493E28AE18A258BB3CDDEFFFFFFFFFF12
:1057E000FFFFFFFFFFFFFFFFFFFFFFFFDFFFFFFFE9
:1057F000BEF7E31821000000C739FFFFFFFFFFFFDE
:10580000FFFFFFFFFFFFFFFFFFFFFFFFFFFFFEFFA9
:10581000FEFF78D691CDB1D590CD90D5D0D5D1DD44
:10582000D1DDD1DDD1DDF1DDF0D532DED1CD455A8E
:105830002239644143314331633963314331643147
:1058400043312329C220E3284431643144314431B7
:1058500043314431443103310331E220E320032159
:1058600040102662B4E531E5F0DC52DDD2BCC2283E
:10587000611020080000000020000008275A2FA413
:10588000B0BCB0CC099387826672A77AE87A0983A4
:10589000C982C5614030056A0993867A088BE46144
:1058A000B2CD0973A4390008201020100008401060
:1058B000400820002008200820082010211040085F
:1058C0004008400841102010003909A469B489BC7F
:1058D00068BCC9C4A8CCABBC76E6FFFFDFF7FFFF0E
:1058E000FFFFFFFFFFFFFFFFFFFFFFFFDFFFFFFFE8
:1058F000BEF7E31821000000C739FFFFFFFFFFFFDD
:10590000FFFFFFFFFFFFFFFFFFFFFFFFFFFFDEFFC8
:10591000FEFF78D691CDD1D590CDB0D5B0D5B1D54B
:10592000D1DDD1DDB1D5F1DDF1D5F1D5487B413106
:1059300064392331433143314331433144314431BC
:105940000329E328E220032944314431443143311F
:1059500023292331243124310331E228E220032199
:10596000A120A872F4ED6DC451E5F1CCEA7A2010C3
:105970000008000840000000200000000652EEA3CE
:105980006FC4B0D4ACBBE99A6682877AA772A7725B
:105990008772E459A038467AE88AA782C882C35938
:1059A000F3D50C94833940106018401800080008A3
:1059B0004010400820082008200800082110400856
:1059C000600840080008000882496ECDADDDCEE5D4
:1059D000ADE52EF60DF6CFDD18F7FFFFFFFFFFFF59
:1059E000FFFFFFFFFFFFFFFFFFFFFFFFDFFFFFFFE7
:1059F000BEF7E31821000000C739FFFFFFFFFFFFDC
:105A0000FFFFFFFFFFFFFFFFFFFFFFFFFFFFDEFFC7
:105A1000FEFF78D690CDD1D5B0D5B0D5D1DDB0DDF3
:105A2000D1DDD1DD12E6D1D512DE0FB5C341633928
:105A30002331042902292329032923292331032976
:105A400003290329E22003294431443143314331FE
:105A5000022903292429443123310229E220032980
:105A6000C120676A15EECFCC93ED4EB423414010B0
:105A7000000000082000000040000000C651EEAB0E
:105A80008CAB8CBB8CBB4AAB299B4A93298BA772EE
:105A9000256AA3592028098B87828782C7820462DE
:105AA00014DE30BD665A624142392339A1284018BC
:105AB0002008200820082008201000102110401085
:105AC0006008400821100010E4598ED56CD5CDE552
:105AD000ADE5EDE5CBEDAEDDF8F6FFFFFFFFFFFF37
