:020000040800F2
:100000000000012061020008650200086702000884
:100010007D0200087F020008950200080000000031
:10002000000000000000000000000000AB0200081B
:10003000AD02000800000000AF020008AD0A000891
:10004000C5020008C5020008C5020008C502000874
:10005000C5020008C5020008C5020008C502000864
:10006000C5020008C5020008C5020008C502000854
:10007000C5020008C5020008C5020008C502000844
:10008000C5020008C5020008C50200080000000003
:10009000000000000000000000000000C502000891
:1000A000C5020008C5020008C5020008C502000814
:1000B000C5020008C5020008C5020008C502000804
:1000C000C5020008C5020008C5020008C5020008F4
:1000D000C5020008C5020008C502000800000000B3
:1000E000C5020008C5020008C502000800000000A3
:1000F000000000000000000000000000C502000831
:1001000000000000C5020008C5020008C502000882
:1001100000000000000000000000000000000000DF
:10012000C5020008C5020008C5020008C502000893
:10013000C5020008000000000000000000000000F0
:10014000000000000000000000000000C5020008E0
:10015000C5020008C5020008C5020008C502000863
:10016000C5020008C50200080000000000000000F1
:10017000000000000000000000000000000000007F
:1001800000000000C50200080000000000000000A0
:10019000C502000807B500F0B3FB274B2748834290
:1001A00026D3274B274900208B422DD300F042FE57
:1001B000254E264C01A9684600F09AFBA41BA4100A
:1001C0000025AC4229DC224E224CA41BA4100025A1
:1001D000AC4227DCDDE9000100F082FE1E4D1F4C21
:1001E000641B0646A410002C21DC304600F07CFB8A
:1001F000D3E900120C3353F8044C891A9442CED937
:10020000555815600432F9E753F8082B53F8044C9D
:100210009442C9D910600432FAE756F8253098475D
:100220000135CEE756F8253098470135D0E7013C37
:1002300055F824309847D6E7C8020008E0020008C5
:10024000E0020008F0020008F0020008F0020008D6
:10025000F0020008F0020008F0020008F0020008B6
:1002600014480047FEE71EF0040F0CBFEFF30880B0
:10027000EFF309807146104A1047FEE7FEE71EF0D3
:10028000040F0CBFEFF30880EFF3098071460B4AAF
:100290001047FEE71EF0040F0CBFEFF30880EFF3EA
:1002A00009807146064A1047FEE7FEE7FEE7FEE7D3
:1002B00070470000950100087B02000893020008C7
:0602C000A9020008FEE7A0
:1002C800480F0008000000204C000020480F0008DC
:1002D80000000010000000104C0000201401002055
:0802E8000000001000000010EE
:1002F00010B5084B044618684FF47A73B0FBF3F05E
:1003000000F070F8002221464FF0FF3000F036F880
:10031000002010BD0800002008B50B4B1A6842F4FD
:1003200000721A601A6842F480621A601A6842F415
:1003300080721A60032000F00FF80F20FFF7D8FF3B
:1003400000F0ECFD002008BD003C0240014B1868A5
:10035000704700BFFC000020074AD36823F4E06325
:100360001B041B0C43F0BF63000243F4003300F492
:10037000E0600343D360704700ED00E0174B70B5B9
:10038000DC68C4F30224C4F10705042D04F104035E
:1003900028BF04254FF0FF36062B06FA05F38CBF65
:1003A000033C002421EA0303A34006FA04F422EAF2
:1003B0000404002843EA0403A8BF00F160404FEAA8
:1003C0000313BCBF00F00F00054ADBB2AABF00F563
:1003D0006140135480F8003370BD00BF00ED00E0B1
:1003E00014ED00E00138B0F1807F0AD2064B074AD5
:1003F0005860F02182F823100020072298601A60CC
:1004000070470120704700BF10E000E000ED00E001
:10041000044B1A6804280CBF42F0040222F00402C4
:100420001A60704710E000E00368F7B50446D8078B
:1004300038D4236899076DD423681E0700F1B9806A
:1004400023685D0728D500230193A64BA64D1A6C9F
:1004500042F080521A641B6C03F080530193019B9D
:100460002B6843F480732B60FFF770FF06462B6800
:10047000DA0540F1C0809D4B227A1A70A368002BE8
:1004800000F0C780FFF762FF964D064641F28837BD
:100490002B6F9B0740F1B680A269002A40F0C9800B
:1004A000002015E08F4B9A6802F00C02042A07D056
:1004B0009A6802F00C02082A0CD15B685A0209D52E
:1004C000884B1B689B03B4D56368002BB1D1012016
:1004D00003B0F0BD864B22791A7063686BB1FFF7E9
:1004E00035FF804D06462B689F03A2D4FFF72EFFF1
:1004F000801B6428F7D90320EAE7FFF727FF794D2F
:1005000006462B68980394D5FFF720FF801B6428CC
:10051000F7D9F0E7734B9A6812F00C0F07D09A687E
:1005200002F00C02082A16D15B68590213D46D4BF5
:100530001A68920702D5E268012AC8D11868F82221
:1005400092FAA2F2B2FA82F122698A4020F0F8010E
:100550000A431A6070E7E268664BDAB101221A605A
:10056000FFF7F4FE5F4D06462B689B070CD5296804
:10057000F82393FAA3F3B3FA83F22369934021F0AB
:10058000F80213432B6057E7FFF7E0FE801B0228B9
:10059000EAD9B0E71A60FFF7D9FE524D06462B683C
:1005A0009F077FF549AFFFF7D1FE801B0228F6D9E0
:1005B000A1E76269504B7AB101221A60FFF7C6FECB
:1005C000484D06466B6F98073FF53AAFFFF7BEFE02
:1005D000801B0228F6D98EE71A60FFF7B7FE414D5F
:1005E00006466B6F99077FF52BAFFFF7AFFE801BB9
:1005F0000228F6D97FE7FFF7A9FE801B02287FF6C5
:1006000036AF78E7FFF7A2FE801BB8427FF640AF17
:1006100071E7FFF79BFE334D064641F288372B6F9B
:1006200098077FF539AFFFF791FE801BB842F6D9E6
:1006300061E72C4DAB6803F00C03082B3FF447AF88
:100640002E4E0023022A33603ED1FFF77FFE07467D
:100650002B68990132D447F6C07797FAA7F74FF481
:100660004032B7FA87F792FAA2F24FF07061B2FA0D
:1006700082F091FAA1F1D4E907321343626A02FAD7
:1006800007F7A26A5208013A82403B431343E26AE9
:10069000144CB1FA81F102FA01F10B436B600123B2
:1006A0003360FFF753FE054623689A013FF5F8AE25
:1006B000FFF74CFE401B0228F6D91CE7FFF746FE69
:1006C000C01B0228C4D916E7FFF740FE04462B687A
:1006D0009B017FF5E5AEFFF739FE001B0228F6D936
:1006E00009E700BF00380240007000407038024047
:1006F0000238024000004742800E474260004742F5
:10070000194A936803F00C03042B10B503D0082B8F
:1007100003D0164800E0164810BD5168536801F038
:100720003F0113F4800F47F6C074536894FAA4F0A5
:10073000B0FA80F003EA040323FA00F314BF0C4874
:100740000A48B0FBF1F05843074B4FF440325B6866
:1007500092FAA2F2B2FA82F203F44033D3400133A8
:100760005B00B0FBF3F0D7E7003802400024F40050
:1007700080A81201554B1A6802F00F028A422DE937
:10078000F04105460E462FD32A68940736D4D00789
:100790003CD44E4B1A6802F00F02B24200F286803F
:1007A0002A68510700F18A80130707D5484A29694A
:1007B000936823F4604343EAC1039360FFF7A0FF0B
:1007C000434BF0229B6892FAA2F2B2FA82F203F053
:1007D000F003D3403F4AD35CD8403F4B18600F2012
:1007E000FFF786FD002007E0CAB21A701B6803F00D
:1007F0000F038B42C8D00120BDE8F0813449A868BE
:100800008B6823F0F00303438B60C0E76A68304BCA
:10081000012A1DD11B6813F4003FECD02C4CA368B7
:1008200023F003031343A360FFF790FD6B68012BD4
:10083000074641F2883815D1A36803F00C03042B56
:10084000A7D0FFF783FDC01B4045F5D90320D3E7B0
:10085000911E01291B6802D813F0007FDDE713F019
:10086000020FDAE7022B0AD1A36803F00C03082B6E
:100870008FD0FFF76BFDC01B4045F5D9E6E7032B92
:100880000FD1A36803F00C030C2B82D0FFF75EFDA1
:10089000C01B4045F5D9D9E7FFF758FDC01B4045BF
:1008A000D4D8A36813F00C0FF6D172E7F2B21A7025
:1008B0001B6803F00F03B3429DD171E70449E86858
:1008C0008B6823F4E05303438B606DE7003C0240E8
:1008D000003802401E0F000808000020014B186875
:1008E000704700BF0800002008B500F015F80000B0
:1008F00001230360014B0B60704700BF0000002024
:1009000008B500F01BF8024B024A9A6008BD00BF10
:1009100000ED00E000000008BFF34F8F0549064BD3
:10092000CA6802F4E0621343CB60BFF34F8F00BF8D
:10093000FDE700BF00ED00E00400FA050C4B1A686B
:10094000002142F001021A6099601A6822F0847254
:1009500022F480321A60074A5A601A6822F4802210
:100960001A60D960044B4FF000629A60704700BF74
:10097000003802401030002400ED00E0174A18490A
:10098000936803F00C03042B10B50DD0082B0DD089
:10099000144B0B60114B144A9B68C3F30313D25CD6
:1009A0000B68D3400B6010BD104BF2E754685068E1
:1009B00052686302C2F3881200F03F004CBF0B4B39
:1009C000084BB3FBF0F35343044A5268C2F30142AD
:1009D00001325200B3FBF2F3DBE700BF0038024004
:1009E000080000200024F4002E0F000880A8120147
:1009F000F8B50B4F0B4E002457F83420E50042B1F8
:100A00003D44AB79012B04D1A35D33B990472B79D9
:100A1000A3550134142CEFD1F8BD013BF8E700BF1A
:100A200050000020000100200149024800F02AB8CF
:100A3000F1090008D0FB0100132A30B50ED8094D8A
:100A400055F8324064B945F8320005EBC20520463E
:100A5000297105498B540123AB7130BD0120FCE79E
:100A60000220FAE75000002000010020044B1A6821
:100A700042F004021A601A6842F002021A607047DB
:100A800010E000E0064B00221A70064B1960064B7E
:100A90009A6058601A6842F001021A60704700BFFD
:100AA000F4000020F000002010E000E008B5074B43
:100AB0001B6803B19847064A137833B105490B68A0
:100AC00023F001030B600023137008BDF000002029
:100AD000F400002010E000E00A4B1A6842F4002203
:100AE0001A601A6822F480221A609A6842F00102A1
:100AF0009A609A6822F002029A601A6842F4803280
:100B00001A60704700380240032822D8DFE800F05E
:100B1000020A121A0F4A0123106B03FA01F1014372
:100B2000116370470B4A0123506B03FA01F1014333
:100B300051637047074A0123106C03FA01F1014326
:100B400011647047034A0123506C03FA01F1014319
:100B50005164704700380240012810B511D002D30B
:100B6000022810D010BD094B1868490003248C409E
:100B700020EA04001860186802FA01F101431960C4
:100B8000F0E7034BF0E7034BEEE700BF0000024045
:100B90000004024000080240012A13D1012809D0B4
:100BA00002D302280CD07047124B58688A40024387
:100BB0005A607047104B5A6888401043586070471D
:100BC0000E4BF2E762B901280BD002D302280FD0F6
:100BD00070470848436801228A4023EA02024260C3
:100BE0007047054A5368884023EA00005060704708
:100BF0000248EFE700000240000402400008024003
:100C0000012810B511D002D3022810D010BD094B15
:100C10009868490003248C4020EA04009860986892
:100C200002FA01F101439960F0E7034BF0E7034B4F
:100C3000EEE700BF0000024000040240000802404E
:100C4000012810B511D002D3022810D010BD094BD5
:100C5000D868490003248C4020EA0400D860D86892
:100C600002FA01F10143D960F0E7034BF0E7034BCF
:100C7000EEE700BF0000024000040240000802400E
:100C8000012A13D1012809D002D302280CD07047C1
:100C9000124B58698A4002435A617047104B5A6997
:100CA00088401043586170470E4BF2E762B9012843
:100CB0000BD002D302280FD07047084843690122A5
:100CC0008A4023EA020242617047054A536988401C
:100CD00023EA0000506170470248EFE7000002403D
:100CE000000402400008024010B5044682784178B2
:100CF0000078FFF731FFE27861782078FFF74CFF4A
:100D0000227961782078FFF77BFF6279617820781B
:100D1000BDE81040FFF794BF38B5094D0024C4EB7F
:100D2000C40028440134FFF7DFFF072CF7D1054842
:100D3000FFF7DAFF0448BDE83840FFF7D5BF00BF32
:100D40000C0000203D00002044000020092870B560
:100D500011D8094B094D1E5C0024C4EBC403E918EB
:100D600046FA04F202F001024978E85C0134FFF728
:100D700087FF072CF1D170BD3E0F00080C0000204A
:100D800038B5064D00242B19285D59780022073408
:100D9000FFF776FF312CF6D138BD00BF0C000020E4
:100DA00070B594B00024214B01941A6C42F080522B
:100DB0001A641B6C03F080530193019B1C4B02943B
:100DC0001A6842F440421A601B6803F440430293DD
:100DD000029B01234FF48002CDE908331223CDE9B1
:100DE0000F2304264FF4A8730225CDE9113608A875
:100DF000072313930E95FFF717FB0F232946CDE921
:100E0000033503A84FF48053CDE906340594FFF76A
:100E1000B1FCFFF763FD4FF47A73B0FBF3F0FFF71B
:100E2000E1FA3046FFF7F4FA14B070BD0038024022
:100E30000070004008B5FFF76FFAFFF7B1FFBDE89B
:100E40000840FFF79BBD000005490B7864205A1C41
:100E500092FBF0F300FB1323DBB20B70704700BF73
:100E6000F500002070B5FFF78BFF1949194D087880
:100E7000194E0A22B0FBF2F303FB12032B700B781E
:100E8000B3FBF2F33370154B1C7814B1012C10D066
:100E900070BD0122052120461A70FFF7F1FE2046A1
:100EA00022462146FFF7ECFE2878BDE87040FFF7A8
:100EB0004DBF00252246294628461D70FFF7E0FE5B
:100EC00028462A460521FFF7DBFE3078EDE700BF14
:100ED000F5000020F8000020F7000020F6000020B8
:100EE00008B5FFF7F9FD00210846FFF70DFEFFF7F3
:100EF000BDFDFFF711FF0123194600220548FFF74A
:100F00009BFD0223012286210348FFF795FDFFF791
:100F10008BFDFEE7650E0008490E000870470000D3
:100F2000000001020304010203040607080900008F
:100F300000000000000001020304060708093F0644
:080F40005B4F666D7D077F6FBA
:100F48004C000020000000000024F400000801000C
:100F580000000000090100000000000A0100000074
:100F680000000B0100000000000C01000000000060
:100F78000D0100000000000E01000000000000014B
:0C0F88000000000000050100000000FF58
:040000050800019559
:00000001FF
