:020000040800F2
:100000000000012061020008650200086702000884
:100010007D0200087F020008950200080000000031
:10002000000000000000000000000000AB0200081B
:10003000AD02000800000000AF020008B50A000889
:10004000C5020008C5020008C5020008C502000874
:10005000C5020008C5020008C5020008C502000864
:10006000C5020008C5020008C5020008C502000854
:10007000C5020008C5020008C5020008C502000844
:10008000C5020008C5020008C50200080000000003
:10009000000000000000000000000000C502000891
:1000A000C5020008C5020008C5020008C502000814
:1000B000C5020008C5020008C5020008C502000804
:1000C000C5020008C5020008C5020008C5020008F4
:1000D000C5020008C5020008C502000800000000B3
:1000E000C5020008C5020008C502000800000000A3
:1000F000000000000000000000000000C502000831
:1001000000000000C5020008C5020008C502000882
:1001100000000000000000000000000000000000DF
:10012000C5020008C5020008C5020008C502000893
:10013000C5020008000000000000000000000000F0
:10014000000000000000000000000000C5020008E0
:10015000C5020008C5020008C5020008C502000863
:10016000C5020008C50200080000000000000000F1
:10017000000000000000000000000000000000007F
:1001800000000000C50200080000000000000000A0
:10019000C502000807B500F0B3FB274B2748834290
:1001A00026D3274B274900208B422DD300F09CFFFC
:1001B000254E264C01A9684600F09AFBA41BA4100A
:1001C0000025AC4229DC224E224CA41BA4100025A1
:1001D000AC4227DCDDE9000100F090FF1E4D1F4C12
:1001E000641B0646A410002C21DC304600F07CFB8A
:1001F000D3E900120C3353F8044C891A9442CED937
:10020000555815600432F9E753F8082B53F8044C9D
:100210009442C9D910600432FAE756F8253098475D
:100220000135CEE756F8253098470135D0E7013C37
:1002300055F824309847D6E7C8020008E0020008C5
:10024000E0020008F0020008F0020008F0020008D6
:10025000F0020008F0020008F0020008F0020008B6
:1002600014480047FEE71EF0040F0CBFEFF30880B0
:10027000EFF309807146104A1047FEE7FEE71EF0D3
:10028000040F0CBFEFF30880EFF3098071460B4AAF
:100290001047FEE71EF0040F0CBFEFF30880EFF3EA
:1002A00009807146064A1047FEE7FEE7FEE7FEE7D3
:1002B00070470000950100087B02000893020008C7
:0602C000A9020008FEE7A0
:1002C80094B10008000000204400002094B1000808
:1002D800000000100000001044000020540000201E
:0802E8000000001000000010EE
:1002F00010B5084B044618684FF47A73B0FBF3F05E
:1003000000F070F8002221464FF0FF3000F036F880
:10031000002010BD0800002008B50B4B1A6842F4FD
:1003200000721A601A6842F480621A601A6842F415
:1003300080721A60032000F00FF80F20FFF7D8FF3B
:1003400000F016FF002008BD003C0240014B186879
:10035000704700BF50000020074AD36823F4E063D1
:100360001B041B0C43F0BF63000243F4003300F492
:10037000E0600343D360704700ED00E0174B70B5B9
:10038000DC68C4F30224C4F10705042D04F104035E
:1003900028BF04254FF0FF36062B06FA05F38CBF65
:1003A000033C002421EA0303A34006FA04F422EAF2
:1003B0000404002843EA0403A8BF00F160404FEAA8
:1003C0000313BCBF00F00F00054ADBB2AABF00F563
:1003D0006140135480F8003370BD00BF00ED00E0B1
:1003E00014ED00E00138B0F1807F0AD2064B074AD5
:1003F0005860F02182F823100020072298601A60CC
:1004000070470120704700BF10E000E000ED00E001
:10041000044B1A6804280CBF42F0040222F00402C4
:100420001A60704710E000E00368F7B50446D8078B
:1004300038D4236899076DD423681E0700F1B9806A
:1004400023685D0728D500230193A64BA64D1A6C9F
:1004500042F080521A641B6C03F080530193019B9D
:100460002B6843F480732B60FFF770FF06462B6800
:10047000DA0540F1C0809D4B227A1A70A368002BE8
:1004800000F0C780FFF762FF964D064641F28837BD
:100490002B6F9B0740F1B680A269002A40F0C9800B
:1004A000002015E08F4B9A6802F00C02042A07D056
:1004B0009A6802F00C02082A0CD15B685A0209D52E
:1004C000884B1B689B03B4D56368002BB1D1012016
:1004D00003B0F0BD864B22791A7063686BB1FFF7E9
:1004E00035FF804D06462B689F03A2D4FFF72EFFF1
:1004F000801B6428F7D90320EAE7FFF727FF794D2F
:1005000006462B68980394D5FFF720FF801B6428CC
:10051000F7D9F0E7734B9A6812F00C0F07D09A687E
:1005200002F00C02082A16D15B68590213D46D4BF5
:100530001A68920702D5E268012AC8D11868F82221
:1005400092FAA2F2B2FA82F122698A4020F0F8010E
:100550000A431A6070E7E268664BDAB101221A605A
:10056000FFF7F4FE5F4D06462B689B070CD5296804
:10057000F82393FAA3F3B3FA83F22369934021F0AB
:10058000F80213432B6057E7FFF7E0FE801B0228B9
:10059000EAD9B0E71A60FFF7D9FE524D06462B683C
:1005A0009F077FF549AFFFF7D1FE801B0228F6D9E0
:1005B000A1E76269504B7AB101221A60FFF7C6FECB
:1005C000484D06466B6F98073FF53AAFFFF7BEFE02
:1005D000801B0228F6D98EE71A60FFF7B7FE414D5F
:1005E00006466B6F99077FF52BAFFFF7AFFE801BB9
:1005F0000228F6D97FE7FFF7A9FE801B02287FF6C5
:1006000036AF78E7FFF7A2FE801BB8427FF640AF17
:1006100071E7FFF79BFE334D064641F288372B6F9B
:1006200098077FF539AFFFF791FE801BB842F6D9E6
:1006300061E72C4DAB6803F00C03082B3FF447AF88
:100640002E4E0023022A33603ED1FFF77FFE07467D
:100650002B68990132D447F6C07797FAA7F74FF481
:100660004032B7FA87F792FAA2F24FF07061B2FA0D
:1006700082F091FAA1F1D4E907321343626A02FAD7
:1006800007F7A26A5208013A82403B431343E26AE9
:10069000144CB1FA81F102FA01F10B436B600123B2
:1006A0003360FFF753FE054623689A013FF5F8AE25
:1006B000FFF74CFE401B0228F6D91CE7FFF746FE69
:1006C000C01B0228C4D916E7FFF740FE04462B687A
:1006D0009B017FF5E5AEFFF739FE001B0228F6D936
:1006E00009E700BF00380240007000407038024047
:1006F0000238024000004742800E474260004742F5
:10070000194A936803F00C03042B10B503D0082B8F
:1007100003D0164800E0164810BD5168536801F038
:100720003F0113F4800F47F6C074536894FAA4F0A5
:10073000B0FA80F003EA040323FA00F314BF0C4874
:100740000A48B0FBF1F05843074B4FF440325B6866
:1007500092FAA2F2B2FA82F203F44033D3400133A8
:100760005B00B0FBF3F0D7E7003802400024F40050
:1007700080A81201554B1A6802F00F028A422DE937
:10078000F04105460E462FD32A68940736D4D00789
:100790003CD44E4B1A6802F00F02B24200F286803F
:1007A0002A68510700F18A80130707D5484A29694A
:1007B000936823F4604343EAC1039360FFF7A0FF0B
:1007C000434BF0229B6892FAA2F2B2FA82F203F053
:1007D000F003D3403F4AD35CD8403F4B18600F2012
:1007E000FFF786FD002007E0CAB21A701B6803F00D
:1007F0000F038B42C8D00120BDE8F0813449A868BE
:100800008B6823F0F00303438B60C0E76A68304BCA
:10081000012A1DD11B6813F4003FECD02C4CA368B7
:1008200023F003031343A360FFF790FD6B68012BD4
:10083000074641F2883815D1A36803F00C03042B56
:10084000A7D0FFF783FDC01B4045F5D90320D3E7B0
:10085000911E01291B6802D813F0007FDDE713F019
:10086000020FDAE7022B0AD1A36803F00C03082B6E
:100870008FD0FFF76BFDC01B4045F5D9E6E7032B92
:100880000FD1A36803F00C030C2B82D0FFF75EFDA1
:10089000C01B4045F5D9D9E7FFF758FDC01B4045BF
:1008A000D4D8A36813F00C0FF6D172E7F2B21A7025
:1008B0001B6803F00F03B3429DD171E70449E86858
:1008C0008B6823F4E05303438B606DE7003C0240E8
:1008D000003802407211000808000020014B18681F
:1008E000704700BF0800002008B500F015F80000B0
:1008F00001230360014B0B60704700BF0000002024
:1009000008B500F01BF8024B024A9A6008BD00BF10
:1009100000ED00E000000008BFF34F8F0549064BD3
:10092000CA6802F4E0621343CB60BFF34F8F00BF8D
:10093000FDE700BF00ED00E00400FA050C4B1A686B
:10094000002142F001021A6099601A6822F0847254
:1009500022F480321A60074A5A601A6822F4802210
:100960001A60D960044B4FF000629A60704700BF74
:10097000003802401030002400ED00E0174A18490A
:10098000936803F00C03042B10B50DD0082B0DD089
:10099000144B0B60114B144A9B68C3F30313D25CD6
:1009A0000B68D3400B6010BD104BF2E754685068E1
:1009B00052686302C2F3881200F03F004CBF0B4B39
:1009C000084BB3FBF0F35343044A5268C2F30142AD
:1009D00001325200B3FBF2F3DBE700BF0038024004
:1009E000080000200024F4008211000880A81201F1
:1009F000024A136843F004031360704710E000E0FC
:100A00004FF47A531E4A5843904230B524D91D49B9
:100A100000250B468D604A600C6800F17F4044F071
:100A2000010402300C601C68E403FCD51C6824F44B
:100A300080341C601C68904224F001041C60E9D8DA
:100A400000229A6058601A6842F001021A600D4B49
:100A50001A68D203FCD50AE00A4B00229A6058605B
:100A60001A6842F001021A601A68D503FCD51A68A8
:100A700022F480321A601A6822F001021A6030BD36
:100A8000FEFFFF0010E000E0094B00229A60586072
:100A90001A6842F001021A601A68D203FCD51A687B
:100AA00022F480321A601A6822F001021A6070473C
:100AB00010E000E008B5074B1B6803B19847064BF0
:100AC0001A7832B100221A70044A136823F0010325
:100AD000136008BD480000204C00002010E000E03A
:100AE00010B5044600F04AF80C21032000F082F80B
:100AF0000021084600F07EF81A4800F0DFF91A4895
:100B000000F0DCF9194800F0D9F96379012B23D002
:100B1000022B23D0032B14BF40234FF48863227A87
:100B20002179520042EA81021A43237BE17A1B02B7
:100B300043EA4123E17943EAC123A17943EAC103AE
:100B4000A17A43EAC113617A0A4313439BB2226834
:100B500043F48073136010BD4023E0E74CF2400380
:100B6000DDE700BF130000201A0000200C00002069
:100B70000368D9609A681206FCD470471C4B9A68C7
:100B800022F010029A609A6822F020029A609A6815
:100B900022F040029A609A6822F080029A609A6875
:100BA00022F480629A609A6822F400629A609A68DD
:100BB00022F480529A609A6822F400529A609A68ED
:100BC00022F480429A609A6822F400429A601A687D
:100BD00022F400221A609A6822F001029A609A6850
:100BE00022F002029A601A6842F480321A6070475A
:100BF00000380240032822D8DFE800F0020A121A67
:100C00000F4A0123106B03FA01F10143116370478E
:100C10000B4A0123506B03FA01F101435163704702
:100C2000074A0123106C03FA01F101431164704774
:100C3000034A0123506C03FA01F1014351647047E8
:100C4000003802400F2910B504D8012811D002D372
:100C5000022810D010BD094B1868490003248C40AD
:100C600020EA04001860186802FA01F101431960D3
:100C7000F0E7034BF0E7034BEEE700BF0000024054
:100C800000040240000802400F2923D8012A13D192
:100C9000012809D002D302280CD07047124B5868A3
:100CA0008A4002435A607047104B5A68884010438C
:100CB000586070470E4BF2E762B901280BD002D39F
:100CC00002280FD070470848436801228A4023EA6F
:100CD000020242607047054A5368884023EA0000D8
:100CE000506070470248EFE70000024000040240F5
:100CF000000802400F2910B504D8012811D002D3F2
:100D0000022810D010BD094B9868490003248C407C
:100D100020EA04009860986802FA01F101439960A2
:100D2000F0E7034BF0E7034BEEE700BF00000240A3
:100D300000040240000802400F2910B504D8012821
:100D400011D002D3022810D010BD094BD868490039
:100D500003248C4020EA0400D860D86802FA01F12C
:100D60000143D960F0E7034BF0E7034BEEE700BF28
:100D70000000024000040240000802400F2923D86E
:100D8000012A13D1012809D002D302280CD07047C0
:100D9000124B58698A4002435A617047104B5A6996
:100DA00088401043586170470E4BF2E762B9012842
:100DB0000BD002D302280FD07047084843690122A4
:100DC0008A4023EA020242617047054A536988401B
:100DD00023EA0000506170470248EFE7000002403C
:100DE00000040240000802400F2970B506D8072A07
:100DF0002BD8012811D002D302281AD070BD2C4B59
:100E00008E00186A0F21B14020EA01011962186AA8
:100E100002FA06F101431962F0E7264B8D00186AC9
:100E20000F21A94020EA01011962186A02FA05F1AE
:100E3000F0E7214B8C00186A0F21A14020EA010144
:100E40001962186A02FA04F1E4E7A2F10803072B19
:100E5000D4D801281DD00ED30228CFD1164B89003B
:100E6000586A0F248C4020EA04005862586A02FA3B
:100E700001F101430BE00E4B88005C6A0F218140B9
:100E800024EA010159625C6A02FA00F121435962C5
:100E9000B4E708488B00446A0F21994024EA010115
:100EA0004162446A02FA03F121434162A6E700BFAE
:100EB00000000240000402400008024010B5044651
:100EC000827841780078FFF7BDFEE278617820787B
:100ED000FFF7DAFE227961782078FFF70BFF62795D
:100EE00061782078FFF728FFA27961782078BDE843
:100EF0001040FFF779BF000010B500220446012121
:100F00001046FFF73BFFE1B20248BDE81040FFF793
:100F10002FBE00BF2400002010B501220446114658
:100F20000020FFF72BFFE1B20248BDE81040FFF7B9
:100F30001FBE00BF24000020002108B50846012282
:100F4000FFF71CFF4FF4C860FFF79EFD002211461B
:100F50001046FFF713FF4FF47A70FFF795FD00215D
:100F600008460122FFF70AFF4FF4C860FFF78CFD27
:100F7000002211461046FFF701FF4FF4C860FFF74B
:100F800083FD002108460122FFF7F8FE4FF47A7036
:100F9000BDE80840FFF734BD08B50F48FFF7A0FDD6
:100FA000FFF726FD0D48FFF789FF0D48FFF786FF85
:100FB000FFF7C2FF1120FFF79FFF0A48FFF764FD0C
:100FC0003A20FFF799FF0520FFF7A6FF2920BDE88B
:100FD0000840FFF791BF00BF24000020340000202C
:100FE0003B00002080A9030070B506462A200D466C
:100FF000FFF782FF0020FFF78FFF0020FFF78CFF35
:101000000020FFF789FF7F20FFF786FF2B20FFF7E7
:1010100073FF0020FFF780FF0020FFF77DFF002017
:10102000FFF77AFF9F20FFF777FF2C20FFF764FF81
:101030000024013DA54200D870BD0020FFF76CFFE1
:1010400016F81400FFF768FF4FF41660FFF71CFD59
:101050000134EFE770B594B00024214B01941A6C71
:1010600042F080521A641B6C03F080530193019B81
:101070001C4B02941A6842F440421A601B6803F445
:1010800040430293029B01234FF48002CDE90833D1
:101090001223CDE90F2304264FF4A8730225CDE9CE
:1010A000113608A8072313930E95FFF7BDF90F23F8
:1010B0002946CDE9033503A84FF48053CDE9063422
:1010C0000594FFF757FBFFF709FC4FF47A73B0FB69
:1010D000F3F0FFF787F93046FFF79AF914B070BDC7
:1010E000003802400070004008B5FFF715F9FFF71F
:1010F000B1FFBDE80840FFF741BC00001FB5FFF796
:101100004BFF0022022300920292CDF80320CDF87B
:101110000B208DF801300322012368468DF8023040
:101120008DF804308DF809208DF80A308DF80C30D8
:10113000FFF7C4FE02A8FFF7C1FE4FF4A0410B4821
:10114000FFF752FF002210460321FFF717FE4FF46E
:10115000FA60FFF755FC012203210020FFF70EFE85
:101160004FF4FA60FFF74CFCECE700BF9211000867
:101170007047000000000102030401020304060797
:101180000809000000000000000001020304060737
:101190000809620862086208A310C310E418C310AB
:1011A000C310A310A310C310C310E418E418C31095
:1011B000C310A310A310A310A310A310C310C31037
:1011C000C310E418E418E310C310A31082088208C7
:1011D000820862088208820882088208A208A31096
:1011E000C310A310A310A310A310C310C310A31007
:1011F0008208620882088208A208A310A310C31004
:10120000C310C310C310A20882088208A310A31041
:1012100082088208A208A310C310C310C310A31031
:10122000A310A310A310A310A310A208A208A20841
:10123000A310820882088208A210A21082088208E5
:101240006208820882088208A210A310A310A310CB
:10125000A310A310A310A310A310A310A310A208FF
:101260008208820882088208620841004100410029
:10127000610062086208620861004100410061008B
:101280006208620862086208410041006100820849
:10129000A31082088208A310E4180419E418C310EC
:1012A000C310C310E418E41804190419E310C310A0
:1012B000A310A310A310A2088208A310C310C31088
:1012C000C310C310C310C310A310A310A310A31006
:1012D000C310C310C310A310A2088208820882089A
:1012E00082088208A310A310C310C310C310A31058
:1012F00082088208A310A310C310C310C310C31028
:10130000C310C310A310A3108208A310C310C310EE
:10131000C310A310A310C310C310C310C310C31075
:10132000A310E310C310C310C310A31082088208D7
:10133000620862086208620862086208620862085D
:1013400082088208A210C310C310E318C310A310B0
:10135000A210A208A20882088208820882086208F5
:1013600062086208820882088208620862086208CD
:101370008208820882088208620862088208A31034
:10138000C310A208A208820862086100410041005F
:1013900021008208A310C310E418E418C310C3107E
:1013A000C310C310E418041925210419E310C31055
:1013B000A310C310C310C310C310C310E418E41863
:1013C000E418C310C310A310A310A310C310C310BC
:1013D000E418E418E310A310820882088208820847
:1013E00082088208A310C310C310C310C310C31017
:1013F000A310A310C310C310C310C310E310E4184C
:10140000E418E310E418E310C310C310E310E41869
:10141000E418C310C310C310E310E418E418E41870
:10142000E310E310C310C310C310A31082086208B6
:101430006208620862086208620861084100620886
:10144000620862088208A310C310E318C310C31017
:10145000A310A310A310A310A310A208820882084F
:10146000820882088208A208A310A310A310A31068
:10147000A208A310C310C310C310C310C310C3101D
:10148000C310C310C310C310C310C310A31082082D
:101490006208C310C310C310C310C310C310C3101D
:1014A000E310C3100419252125210419E418C310E1
:1014B000C310C310C310C310E310E41804190419B7
:1014C000041904190419E418E310C310E310E41814
:1014D0000419E418E310A310A310A310A310A31081
:1014E000A310E310E418E310C310A310C310C3103B
:1014F000E310E418E418E418E418E4180419E418F4
:10150000E418E418E418E418E310E418E418E41804
:10151000E418C310C310C310C310E310E310C310CA
:10152000C31082088208A208A208A20882088208C2
:10153000820862086208820882088208820882089B
:10154000820882088208A310A310A310A310A3107E
:10155000A310C310C310E418E310C310C310A310EA
:10156000C310C310C310C310E310E310C310C310A3
:10157000A310C310C310E310E418E418E310C31061
:10158000C310C310C310A310C310E4180419041926
:10159000E4180419E418C310C310E310E418E418A5
:1015A000041904192521252125210419E418E4181A
:1015B000E418E418E4180419041904192419041986
:1015C00004194521252124190419E418E418E41804
:1015D00004190419E418E310E310E418E4180419DA
:1015E000041904190419E418C310C310C310E41833
:1015F000041904190419E418E41804190419E41866
:10160000E310C310C310C310C310C310E418C310F9
:10161000A310A310A310A310A310A3108208820884
:10162000620862086208820882088208A208A31081
:10163000A310820882088208A208A310A310A31096
:10164000A310E418E310C310C310A310820882088B
:101650008208A310C310E310E418E310C310E310D2
:10166000E418E418E418E41804190419E418E41858
:10167000C310C310C310C310A310C310C310E418C9
:1016800004190419E310C310C310E4180419252128
:101690002521E418E310C310C310E418E310E3108D
:1016A000E31004190419041904190419041904197C
:1016B0000419E4180419041904190419E418041984
:1016C00004190419041904190419E418E418E41895
:1016D000E418E418E418E418E418E418E418E4182A
:1016E000E418E418E418E418E310C310E310E41855
:1016F000E418E418C310C310C31004190419041922
:10170000E418C310C310C310C310C310C310A31038
:101710008208820882088208A208A208A208A208F9
:10172000A208A310A310C310C310C310C310C3108A
:10173000C310C310C310A310A310A310C310C31071
:10174000C310041904190419E418C310A310A3103A
:10175000A208A310C310C310E310E310E310E418B1
:10176000E4180419041904190419041904190419B2
:101770000419E418E418E418E418E418E418041947
:10178000041925210419E418C310E41804192521AB
:101790002521E418C310C310E310E310E310E31095
:1017A000E418041904190419241925214521452197
:1017B0002521E310E310E418C310A3108208A3103E
:1017C000C310E418E41804190419041904190419BD
:1017D000E4180419041904190419E418E418E418A5
:1017E000E310E310E4180419E418E418E418E4180A
:1017F000E418E310C310C310E310E4180419E4184C
:10180000E418E418E418E418E418E418E418C31021
:10181000A310A310A310C310C310C310E310E41847
:101820000419E418E4180419041904190419E41833
:10183000E41804190419E418C310C310C310E3100A
:10184000E418E418E41804190419E418C310C310C8
:10185000C310C310C310E418E418E418E418E41823
:10186000E4180419041904190419E418E4180419F3
:101870000419E418041925214521252124190419E6
:10188000E418E310E310E310E310E418E41804197B
:101890000419041904190419041904190419241940
:1018A0004521252125212521452166296629452116
:1018B0002521041904190419E418A3108208A3109F
:1018C000E310041904192521452145212521241956
:1018D0000419252125214521252125210419041933
:1018E0000419041924192419041904192419252187
:1018F000241925212521252124190419E418E41887
:10190000E418E310E418E418E4180419041924197D
:1019100004190419041924190419041904190419BF
:101920000419E4180419041904190419E418E41832
:10193000C310E418041904190419E418E41804196C
:1019400004190419041904190419E418C310C31064
:10195000C3100419E418E418E41804190419E4186D
:10196000E4180419041904190419E418C310E31045
:10197000E418E41804192419252125212521041926
:101980000419C310E4180419252125212419241948
:1019900025212521252145212521041925216521E0
:1019A00045210419E418E418241945216521662904
:1019B00066296629862986296629452145216521CA
:1019C000662966296629662986296629252124191A
:1019D0002521E41804190419041904194521452185
:1019E00045214521252145214521652145214521C7
:1019F0004521452125212419E418C310C310E418FA
:101A0000E418E41824190419041925214521252175
:101A10004521452125210419041904190419041923
:101A20000419041925212521252104190419041953
:101A3000E418C310C310E310C310E4180419041908
:101A400004190419E418E418E310E310E310E4188F
:101A5000041924190419041904192419241904193E
:101A6000E418E418E418E418E418E418E418E3109F
:101A7000C310E418041904190419041904192419C9
:101A80000419241904192521452145212521452121
:101A9000662925192519452165214521452145211D
:101AA0000419E310E410041945214521452165215D
:101AB00065218629A729C731A72986298629A6292C
:101AC000A72966218629A629A7298629452104193F
:101AD000E410C310E310E310E410241965218629F3
:101AE000A62966214521452125192419041904191F
:101AF0000419E410E410E4100419241945214521C7
:101B00004521652166216521452166216621452102
:101B100045216521452124190419041904192419A2
:101B2000241904192419251924190419041904194C
:101B30000419E310E310E310E418041925214521EA
:101B40006521452125212521241904190419041989
:101B50002521251904190419041904190419041953
:101B6000E410E410E410E410E4100419041904195A
:101B70000419E310E410E4100419041904190419F9
:101B80000419041924192519251925194521452158
:101B90004521662166218629A729A629862965214E
:101BA000251904192519452166214521452145217D
:101BB0006521652186298629862965216621862950
:101BC00086298629A629C731C731A72945210419A5
:101BD000E310C310E4100419251945216621862954
:101BE000862965212519E410C310A2088208A208DD
:101BF000A3082519251945216621A729C731A72939
:101C00008629662166216621662186298629652125
:101C100065218629652145212419241924192419AF
:101C2000241904192419241925192419041924190B
:101C30004521452125210419041925212521452166
:101C400065214521452125212521252125212521E4
:101C5000452125192519241924192519251924196F
:101C60000419251904190419E41004192419251953
:101C70002519251925192419041904190419E41022
:101C8000E4100419041924190419041945214521E3
:101C90002419652145216621862986296621662128
:101CA0004521652165216621662145214521662161
:101CB0008629A629A62986296621652165218629E6
:101CC000A629C731E731E731E731A7298629452120
:101CD0004521041925194521652165214521452105
:101CE0004521452125190419E410E310E4102519B4
:101CF0006521C731C731C731C731C731C731A729BE
:101D0000A6298629862966218629A729862965216B
:101D10006621652145214521452145214521452152
:101D2000452145214521652186298629662166218F
:101D300086296629452125212521252104190419F3
:101D400025210419041904192419252125212521E7
:101D5000452124194521652165216521452145211C
:101D6000452125190419E310E310E410041924197E
:101D700024192519251924192519452145214521FD
:101D800045214521452145214521452166216521E2
:101D90004521452145216521862966216521662148
:101DA0008629662165216521662186298629C73114
:101DB000E831E831E731C731A72986298629A629E4
:101DC000A729083A083AE731C731A6298629862982
:101DD0006621452145214521452145214521652192
:101DE0006621A62986298629662165216621A629DC
:101DF000C731C731E731C731A7298629662186292E
:101E0000A629A729A72986298629A6298629452121
:101E10004521652165216521662186298629A62916
:101E2000A729662165216521652165216521652137
:101E3000662145214521241924192419041924193E
:101E40002419241904192419452145214521452126
:101E5000452124194521652165214521452166211A
:101E60008629652145210419041925194521662172
:101E700086294521251925194521662166216621D6
:101E80008629862945214521452165216521652130
:101E9000662166216621A729C731A6298629A72997
:101EA000A72986298629A629C731E831E831083AC9
:101EB000083AE731C731C731C731A62986298629B3
:101EC0008629E831E731C7318629862966216621CE
:101ED0006521452145214521452145216521662171
:101EE0008629C731A729A629A62986296621662120
:101EF0006621A629C731C731A72986296621A729C6
:101F0000E831C731E831C731A729A729A729862990
:101F100086294521452125192419251945214521C1
:101F200065218629662145212519452145216521FF
:101F3000452166218629662145212519251925195E
:101F40002519652145214521452165214521452149
:101F50004521251945214521452125194521862958
:101F6000A629A72986298629662186298629A729BF
:101F7000C7316621652145216521662165214521FD
:101F80004521452124190419241925192419251935
:101F9000452186298629C731C731A729A729C731F5
:101FA000A729C731C731E831283A293A083A083A0F
:101FB000E831E731E731E731E731C731A729A62911
:101FC000A629C731C731A7298629862986298629C6
:101FD0008629862986298629A629A6298629862949
:101FE0008629A629A629A729C731E731C731A629FD
:101FF00086298629A729C731C731C731A729C73103
:10200000C731E731083A083AC731E831083A083AA7
:10201000E831C731C731A72986298629A629A729EA
:10202000C731C731C73186296521662186298629AE
:1020300045216521A629C731A62986296621662161
:1020400045218629662145214521452145214521F6
:1020500065216521452145214521452166218629A6
:10206000A729A629A62986298629662166218629E7
:1020700086296621652165218629A6298629862942
:1020800086296621652145214521452125192519E6
:102090002519A729C731E731C731C731E831E83100
:1020A000C731C731E731083A293A293A083AE831C5
:1020B000E731083AE731E731E831E831E731E73134
:1020C000E831E731E731C731C731C731E831083A84
:1020D000083AE831C731A729C731C731C731C731FD
:1020E000E831E831E831083A283A083AC731862918
:1020F0006621A629A729C731E731C731A62966215C
:102100006521A629E831E731A629A729E731E83179
:10211000E831E731E731E831E831E831083A083AA7
:10212000283A083AE831C7318629662186294521AF
:10213000C310E3104521C731C731C731C731C7319B
:102140008629A6296621452145214521452165216C
:10215000862986298629652166218629A729A72916
:10216000A62986298629A6298629862986298629B7
:10217000A729C731A629A629A729C731A6298629B3
:102180008629862986298629452125192519241974
:102190000419E731A729A729E831293A493A083231
:1021A000C731A729C731293A293AE831E831083A35
:1021B000083A49426A42283A083A293A083AE83144
:1021C000C731E831083A083AE831C731E731E83138
:1021D000E831E831C731E731083A083A49426A4202
:1021E0004942283A283A293A283A083AC7318629F2
:1021F000C731C731C731C731A7298629A729C731B8
:10220000C731E831C731A729A729E831283AE83191
:10221000A729A729E731083A283A0832C731C73138
:10222000E831A729C729E731E831E731862925199F
:10223000E410E4106621C731C731E831293A083A81
:10224000E831E731E731C731C731C731C731A72995
:10225000A629C731E839C731A731E839083AC7316B
:102260008629A731862986298629A731A731A73152
:10227000A731A7316629A731083AC731A731A7315D
:10228000862986292519C310C310041945216629FA
:10229000A731A629C731083A293A283A0832E83145
:1022A000083AC731083A49424942283A083A083AB6
:1022B000083A49426A42293A293A49424942293A66
:1022C000083AE831083A083A083AE831083A083A50
:1022D000293A283A293A4942694249426A426A42BD
:1022E000283A083A083A4942293A083A083AE8317D
:1022F000293A4942083AE731C731E831083A293AE0
:10230000293AC731C731C731E731E831E831083AF6
:10231000083A083A283A293A283AC73186218629C4
:10232000C729C731E731E831083A083A0832E831BD
:10233000C731E831E831083A283A293A083A083AE8
:10234000293A6942293A083AC731C731C731C731FA
:10235000C7318629C731E839083A083AC731C73149
:10236000E839E839083A083AE839A7316629662198
:102370006629A7298629E8312942E839A731662943
:102380002521A3106208C31025214521C731083A31
:10239000A731A629E731293A6A426942493A293ADE
:1023A000293A8A4AAB4ACB52AB4A8A4A4942293A2D
:1023B000494249426A42494249426A424942494283
:1023C000293A283A083AE831E831E831283A6942AE
:1023D0008A4A8A4AAA4AAB4A6A42293A4942694227
:1023E000293A083A283A4942293A083A293A283AF1
:1023F00049426942293A083A083A083AE731E8314D
:10240000283AE831E831083A083AE831C731A729D3
:10241000C7314942293A283A283A0832E731E831A7
:10242000083A283A083A0832E8310832083A293A94
:10243000293AE831083A283A083A083A293A6942EA
:102440006A424942293A283A083A083A083AE831B1
:10245000E831A731C731083A49424942083AC73101
:10246000083A083A083A294229422942083AE83902
:10247000C731E839C731A731862966294521252189
:102480000419C3108208E41866216629C731083A86
:10249000C731494249424942494269426A428A4AED
:1024A000AB4ACB52EB52AB4A8A4A8A4A6A4A494201
:1024B0006A4AAB4AAB4A8A4AAB4ACB52CB52CB525E
:1024C000CB524942283AE831E831083A293A694280
:1024D0008A4A6A428A4A8A4A4942083A083A49423A
:1024E0004942494249428A4A6A4269428A4A4942C1
:1024F00049424942293A083A083A283A083A283AD9
:10250000293A283A283A293A494249424942283A3E
:10251000083A293A69426A424942283A083A293A2D
:102520006942293A293A293A49424942293AE83145
:10253000C7316621C731083A083AE731083A4942BB
:102540006A42293A494249426A42694249424942F9
:10255000494249424942083AE831083A083A083AB9
:10256000283AE831E831083A293A6A424942083AB9
:10257000C731662145210419E4102519452166213A
:102580008629E831E731A62986298629452125199A
:1025900086298A42AA4ACB4AAB4A8A4A8A4A8A4A46
:1025A0008A4ACB52AB4A6A426A428A4AAB528A4A48
:1025B000AB52CB52AB4AAA4ACB52EB52EC520C5B19
:1025C0000C5B8A4A6A4249426A426A426A4249420A
:1025D0004942293A69428A4A8A4A6A4249424942F8
:1025E0006A426A4249428A4A8A4A6A42AB4A8A4AEB
:1025F00069426A428A4AAA4A4942E831E831083ABD
:102600004942283A4942494249426A428A4A6A4210
:10261000293A6A42EC522D5BCB524942293A49424F
:102620006A424942283AE831E831083A083AE83142
:10263000C731E731C731083A4942083AC731083A49
:10264000293A49424942694269424942293A293A6A
:1026500049426A428A4A8A4A6A424942293A293A9E
:102660006A426A428A4A6A42293AE731A729A62978
:10267000A729C731C731E831283A6A428A4A6A42F3
:1026800049426A428A4A4942083A283AC731662191
:1026900066218A4AAA4ACB52EC52EC52CB526A4289
:1026A000283ACB52AB52AB4AAB52EC5AEC5AEC52F2
:1026B000CB520C5BEC5AEC5A0C5B0C5B0C5B4D6325
:1026C0002D5BEC5ACB52AB4AAB4ACB52EC52CB52BD
:1026D0008A4A6A428A4AAB4ACB52AB4A6A42494268
:1026E0008A4A8A4A49426A426A426A42AB4AAB4AC9
:1026F0008A4A8A4ACB52EC52AA4A293A083A083AFC
:10270000083A083A49426A424942293A49426942EA
:10271000293A6A42CB520C5BCB528A4A8A4A8A4A8D
:102720006A426942083AC731A729C731083A283AAC
:10273000293A6A42494269426942494269428A4A9F
:102740006942293A49426A426A424942083A083A89
:10275000293AAB4A8A4A8A4AAB4ACB528A4A6A42E7
:10276000AB4A0C5BEC528A4AE8318629A629083A22
:102770006A424942494269428A4AAB4AAA4A8A4A5B
:102780006A426A426A426A4269426A428A4A293A0B
:102790006621EB52AB4A8A4A8A4AAB4AEB52CB5289
:1027A0008A4ACB52CB52EC5A0C5B0C5B0C5BEC5A5A
:1027B000CB52CB52CB52CB520C5B0C5BEC5A0C5B2A
:1027C000CB52EC5ACB52AB52AA4AEC5A2D632D6332
:1027D000EC5ACB52EC5ACB528A4A8A4A6A4A6A4A23
:1027E0008A4A0C5BAB52CB52CB52AB52CB52EB5220
:1027F000CB52AB52AB4A8A4AAB52CB52CB528A4AEB
:102800002942294249426A42494249428A4AAB52D4
:10281000CB526942694269426A428A4AAA4A8A4A52
:102820006A42694269426A426A428A4A6A42494243
:10283000293A8A4AAB4ACB526A424942EB522D5B53
:10284000CB526A428A4A8A4AAB4AAB4A6A426A42D5
:102850006A42CB526A42083A083A69426A426A427C
:10286000AB4AAB4A8A4A283AE731E8314942CB526F
:10287000EC526942293A49426A42494249428A4AEB
:10288000AB4A8A4A6A426A426A424942283AA729BE
:102890002519AA4AAB4ACB52AB4AAB4ACB52CB52D0
:1028A000CB52CB52EB524D636E6B4D634D632D6338
:1028B0000C5B6A4A6A4AAB520C5B0C5B0C5B2D6387
:1028C000EC5AAA4AAB528A4AAA4AEC5A4D630C5BAC
:1028D000AB524D636E6B2D63EC5A0C5B0C5BEC5A88
:1028E0000C5B2C5BCB520C5B2C5BCB52EC5AEC5A46
:1028F000EC5ACB52CB52CB52AB526A4A49426A4A4B
:10290000CB52AB528A4A6A42494249426A4AAB4A6E
:10291000CB52CB52CB52CB52CB528A4A6A426A4AF2
:10292000AB52AB52AB52AB528A4A8A4A8A4A8A4A63
:102930008A4AEC52CB52EC5ACB5249428A4AEC5A60
:10294000EC5ACB528A4A6A4A8A4A8A4A6A4A8A4A6C
:10295000AB4A6A428A4A6942293A49424942494253
:102960004942293A49426A42AB4AEB520C5BCB528C
:10297000AB4AAA4A8A4ACB520C5B8A4A49428A4AE3
:10298000CB528A4ACB52AB4AEB52EC52083A662100
:10299000E831CB52EB52EC5ACB52CB52EC5ACB52E1
:1029A000CB520C5BEC5A4D636E6B2C636E6BEC5A26
:1029B0000C5B2D63EC5ACB520C5B2D63EC5AEC5A3A
:1029C0004D632D634D632C63AB520C5B6E6B0C5BE4
:1029D000EC5A4D636E6B6E6B4D632C5B2D636D63B8
:1029E0008E6B6E6B6D63EC5ACB522D636E6BEC5A33
:1029F0004D630C5B8E6B0C5B0C5B0C5BEC5ACB522F
:102A0000EC5ACB52EC5A6A4AAB4AAB520C5B0C5BA9
:102A1000AB528A4ACB52EC5AAB4A8A4A8A4A6A4A31
:102A2000AB528A4A6A4AAB52AB5249428A4AEC5A82
:102A30006A4AEC52AB52CB52EC5AAB520C5BEC5A9A
:102A40000C5B0C5BCB52AB52AB526A4A49426A42B6
:102A5000AB4ACB52AB4A6A42E831C731083A4942E5
:102A60008A4A8A4ACB52CB520C5BEC52EC528A4ACD
:102A70006A4249428A4A8A4A6A428A4ACB520C5B73
:102A80004D636D63CB526A4249424942A629A62949
:102A9000083A0C5BAB52AB52EB520C5B0C5B0C5B21
:102AA0008E6B6E6B2D634D632C630C5B6D6B6E6B6D
:102AB000CF732D638E6B8E6B2D63EC5AEC5A0C5BCF
:102AC0002D634D63CB52EC5A2C630C5B0C5B4D6356
:102AD0008E6B8E6B4D634D636E6B8E6B2C5B2D63BB
:102AE0006E6BF07BCF734D630C5B6D63AF734D63A7
:102AF0002D636E6B6E6B2C5BEB52CB52EC5A2D63DD
:102B0000CB52AB520C5B0C5B0C5BCB52CB522D63AC
:102B10006D63CB52AB528A4AAA4AEB52CB52AA4AB5
:102B2000CB52AB520C5B0C5BEC5A2D630C5BEC5A3A
:102B30004D63EC5AEC5A4D632D5BAB528A4AAB4A5B
:102B4000EC5A8A4A494249426A426A4A6A4A4942B6
:102B500029424942C731A729283A8A4ACB52CB5247
:102B60000C5BCB52CB52CB52AB4AAB4AAB4A8A4AF4
:102B70008A4A8A4ACB52CB528A4A8A4AAA4A6A422B
:102B800049424942E831A729A629E831083A494291
:102B90008A4A2D63EC5A2C5B8E6BCF738E6B2D6340
:102BA0008E6B107C6E6B2D636E6BCF738E6B6E6B4A
:102BB000AF73F07B107CCF738E6B6D6B4D632C63AA
:102BC0002C636D6B0C5B2C636D6B0C5B0C5B8E6B09
:102BD000AF738E6BAF73CF736E6BAF738E6BAE7361
:102BE0006E6B4D636E6B4D630C5BEB5A4D630C5B10
:102BF0000C5B4D632D636D6B2D630C5B2D638E6BD6
:102C0000AB52EC5A0C5B2D634D636E6B6D6B8E6B30
:102C10008E6B0C5B4D630C5BAB520C5B8E6B6D6310
:102C2000EC5A0C5B2C5B6E6B6D634D632D630C5B20
:102C30008E6B0C5BCB52EC5A6A4A4942083A6A42A4
:102C4000AB4A293A29426A4A8A4A2942083AE8396B
:102C5000A7318629A7296A42EC52EC52EC52EC5279
:102C60000C5B0C5B0C5B2D5B0C5B2D5BEC520C5B13
:102C7000EC528A4A4942293A49426942293A283A59
:102C8000494249426A42AA4AEB52EC524D632C5BDC
:102C9000CB522D630C5B0C5B0C5B4D634D632D6362
:102CA0006D6B8E6B6E6BAE73F07B107C2D634D6322
:102CB000AF73CF73F07BF07BAF736E6B4D638E6B36
:102CC000107CAF73F07BAE738E6BAE734D638E6B07
:102CD000CF73AE736E6BAE736E6BCF734D638E6BD3
:102CE000CF736E6B8E6BCF738E6B2D636E6B8E6B33
:102CF0008E6B4D636E6BAF736E6B2D638E6BEF7B64
:102D00002D636D6B6D6B8E6B8E6BF07BCF73CF73A2
:102D10008E6B8E6B8E6B2C63EC5AEC5A4D636E6B24
:102D20004D634D63CB522D636E6B8E6BAF736E6BC9
:102D30004D636E632D632D630C5B2D632D630C5B04
:102D4000CB522D63CB52EC520C5B2D634D632D6344
:102D5000CB52293AC731293A2942083A49426A4AAC
:102D60006A4A6A4A6A4AAB52CB52EC5AAB52AB4AF5
:102D7000AB52CB52CB52CB522D634D630C5BCB523B
:102D80000C5B8A4ACB52EC5A0C5BCB522D5B0C5B32
:102D9000CB528E6BAF73CF73AF73AF738E6B4D63CC
:102DA0004D632D63AE73AF734D6B8E738E6BCF7BA4
:102DB000F07B8E6BCF73AF734D632C632D638E6B83
:102DC000107C107C3184CF73EF7BEF7B6E6BCF7305
:102DD0005184107CCF73AF736E6BF07B8E6BAF73CF
:102DE000107CEF7BAF73AF73CF736E6BCF73AF732A
:102DF000AF738E6BAF738E6B2C63EB5A6E6BAF73CE
:102E00008E6B6D6BAF73F07B8E6B8E6B6D6B8E6BA1
:102E10006E6B6D6B6E6BEC5ACB528A4ACB522D6344
:102E20004D63AB520C5BAF738E6B4D630C5BEC5A16
:102E30004D63EC520C5BEC5AEC52EC522D632D635B
:102E40000C5B6E630C5B0C5B6E6B8E6B8E6B4D6301
:102E50000C5B294266298629C731083A6A4ACB5257
:102E60000C5B4D634D634D638E6B6E6B6E6B6E636F
:102E70008E6B4D638E6B6E6B4D638E6B8E6B4D6385
:102E8000EC5A2D5B2D632D632D63EC5A4D636E6BF5
:102E90004D638E6B8E6BCF73CF73CF73CF73AF7366
:102EA000107C728C5184F07B8E73CF7B10843184C4
:102EB0003184F07BCF7BAF73CF73AF736E6B4D6B91
:102EC0008E6BF07BF07BF07BAF734D6B8E73318438
:102ED0003184107CEF7B8E6B0C5BAF73AE738E6BAB
:102EE0008E6BEF7BAF73AF73CF738E6BCF73AF739C
:102EF000AF734D638E6B4D634D634D63AF736E6BFC
:102F00006E6B6E6B8E6BEF7BAE73AE73AE734D6399
:102F10000C5B2C638E6B2D634D630C5B6E6B6E6B69
:102F20000C5B6E6B4D636D6B6E6B2D634D634D6310
:102F3000CB522D636E6BEC5ACB52EC5A6E6BAF6B6F
:102F40008E6BAF736E6B2D630C5BAB522942083AEC
:102F5000294209422942CB520D632D636E6B8E6B61
:102F6000AF73AF73AF736E6BAF736E6B8E6B6E6B55
:102F70008E6BAF738E6B2D630C5B4D638E6B6E6BC4
:102F80000C5B8E6B6E6B4D636E6B4E6B6E6B4D633D
:102F90000C5BF07BF07B318451843184AF736D6BBB
:102FA000AF73728CF07B107CF07B8E736E6B6E6BEC
:102FB000CF7BF07BF07B1084728C518CAF73AF733E
:102FC0001084F07B108431848E736E6B3184728C2C
:102FD000107C3184CF736E6BAE73107CAF736E6BED
:102FE000F07B8E6B8E6BCF73CF738E6B8E6B2D637E
:102FF0000C5B2D634D63AF73F07B107C107C8E6B8C
:103000006E6BAF738E6BAF73CF73F07B107C6E6B98
:103010000C5BAE738E6B6E6B728C3084CF73AF7340
:103020008E6BAF738E6B8E6BCF736E6B8E6B107CF3
:103030008E6BAF73CF738E6BAF73F073CF736E6B9A
:103040000C5BCB52AB526A4A6A42AB52CB520C5B1E
:103050006E6B2D63AF73107CCF73CF731184D07BF5
:103060006E6BAF738F738E6B8F738E6B8E6B6E6B9D
:103070004E6B4D632D630C5B2D636E6B6E6B2D631E
:103080000C5B8F736E6B2D630C5B4D634D632D6317
:103090000D63107CF07BF07BEF7BCF73CF73EF7B06
:1030A00051843184CF7B3184728C107C1084AF7357
:1030B000108431843184107C1084318431841084F4
:1030C0001084728C728C3184107C928CF49C518CA4
:1030D0003184AF73F07BCF73CF73107CCF738E6B63
:1030E000F07BF07BF07BF07BF07BCF73CF73EC5AFF
:1030F00049426E6B2D63CF73CF73EF7BAF73AE73AB
:10310000AE738E6B8E6B8E6B8E6B2D634D630C5B13
:103110004D63CF73F07BAF73728C107CF07BF07BD0
:10312000CF738E6B107C8E6BAF73107C8E6B8E6B3F
:103130008E6BAF73CF738E6B8E6BAF6BCB5249427E
:10314000E8318A4A6E6BF07B107C107CAF736E6B3B
:10315000CF734D63AF73107C107C3184728C3184DB
:10316000F07B8F738E6B8E6B4E6B8E6B8E6BAF7333
:103170008E6BAF73CF73AF734D634D636E6B6E6BBE
:103180004D63EC5A0C5B0C5B0C5BAF73CF73F07B45
:10319000F07B107C31843084EF7B5184107C31844F
:1031A000B39431848E6B31845184EF7B5184728C63
:1031B000728C928C5184728C3084728CF49C928CC0
:1031C0005184B394F49CB3943184728C107C928CAF
:1031D000B394CF7B107C92945184518C3184F07BDA
:1031E0009294518C2D632D63AF73518CAF736E6BC2
:1031F0003184308430848E6BCF73EF73AE6B107C70
:10320000CF73CF736E6B8E6B4D634D638E6B6D633F
:103210006E6B6E6B4D6351845184CF7BCF7BCF7BC4
:10322000518CCF7B3184108431843184CF7392945C
:10323000D39C5084AE734D6B8A520B5B0B5B6D6BF2
:10324000CE735084CF73107C308451840F7CCF7B3D
:10325000CF7BCF7B518C728C518C318C318411841B
:10326000CF7B6E732D630C63AB5ACC5A4D6B2D63C1
:10327000EC628E6B2C634D63CF73CF73CF73EF7B98
:10328000F07BEF7BAE73F07BCF730C5B0C636D6BED
:103290004D6B728C9294518CF07B3184518C728C7A
:1032A000728C3184518C728C3184728CF49CB39406
:1032B0009294728C518CCF7B518CF49C728C518C7B
:1032C000D39CB394728CD39C728C928C9294B39452
:1032D00031845184728CB394B3943184F07B929492
:1032E000CF7BCF7B4D6B518C518C9294F07B318492
:1032F000AF738E6B107CEF7BCF735184718CEF7B3F
:103300008E6BF07B8E6B8E6BAF73107C107C107CA1
:10331000CF734D6BCF7BAF73AF73CF7BCF7B728C93
:103320004D6B6E6BCF73F07B10845184107CF07BFF
:103330002D63494ACB524D6BEC5A8E731084118425
:10334000D07B8E73CF7BCF7B518C10846E6BEF7BE9
:1033500031841084728C318CF07BAF73D07B518CB4
:10336000518CF07BF07B8E73AF736E733184AF7BC7
:10337000CF7B308451845184107CCF73CF7BF07B22
:103380001084EF7BAF73107C3184F07B518C3184DF
:10339000F07B518C518C518C9294B294B294929453
:1033A000B39492949294F49CF39CF39C34A5D39C94
:1033B000728C92943184B294518C3184718C518C82
:1033C00014A5D39C30849294518C518C718C518C67
:1033D000F07B108492946E6BAB52CF7BF07BCF7BF3
:1033E00051841084728CB394728C718C30845184AB
:1033F000EF7BF07BCF73107CAE73CF735184EF7B88
:10340000AF73AF73AF73AF73F07BAF730C5BAE731F
:10341000F07B318492941084CF7B51848E73CF7B68
:10342000CF7B51846E6B2D632D632D63EC5A0C633F
:103430000C5B8F733184B3943184AF7BAF7BAF7BF4
:10344000D083F083D083CF7B1184F07BCF7B8F73CD
:103450005184EF7BAF736D6B1084518C1084518C51
:10346000518C10841084F07BCF7B10843184CF7B0F
:10347000CF7BEF7B51841084AF73EF7BF07BEF7BCE
:10348000F07B8E6BCF7B718C92943084318430844E
:10349000518CB294F39CD39C718CEF83518C518CE2
:1034A000EF83518C718CD39CB294718C92947294F2
:1034B000718C3184318CB294F4A4728C1084718C30
:1034C0009294B39CB39C9294F08331841084F07BEB
:1034D00031843084718CF07BAE739294728C108442
:1034E00010841084728C3184518C518C1084F07B48
:1034F000CF7BAF73AE733084F07BF07B5184CF7B96
:10350000CF7B1084F07B6E6BAF73107C518C318459
:103510006E6BCF7BAF731084318431843184728CB5
:1035200010848E6BCB524D63AF73AF738E73108468
:10353000D39C928472847284318411847294728CCC
:10354000728C9394318CD07BD07B31843184CF7357
:10355000117CCF7B3184107C108430841084928C59
:103560005184318431843084F07B928C728C51840C
:103570003084308431843084518C728C518C31840D
:10358000518CF07B1084518CB294728C9294318463
:10359000728CF3A4B2947294929410841084108468
:1035A00010848E73B39C14A59294B29C9294EF7B7A
:1035B000CF7B1084718C308C718CB2947294929405
:1035C000D39C7194F3A4B294F083EF7BCF7BEF8311
:1035D000F0833084718C3084518CEF7B8E73B29485
:1035E0003084EF7B6D6BAE73CF7B1084AE73518CE8
:1035F000CF7BCF7B728CAF73AB526E6BF07BCF7B8C
:10360000518C107C4D6B2D63518C3184D07B8E732B
:10361000107CCF7B518410849294518CAF736E6B6D
:103620000C63EC5A4D6B9294D39C9294518C107C09
:10363000CF73EF73317C72845184107C928C728CC6
:10364000728CF07B9394D07B5184D3945184149DDD
:10365000B38C518C3084CF7B5184718C1084518C0D
:10366000518C728CB394718C728C728C928C30846D
:10367000718C518C31849294D39CB294728CB2949C
:10368000D39CF39CB2949294F39CF39CB394518C8E
:103690009294518C9294B294B294929414A5F3A4FF
:1036A0007194B29414A5F39C9294B2949294518C18
:1036B0007194518C318C7194308C518CD39CD39CEF
:1036C00014A5B294B294B294D39C718C1084518C92
:1036D0001084CF7B718C718C108430841084929410
:1036E000518C308410841084EF7B10841084518CB2
:1036F0001084AF7331846E6B2D63F07B3184118441
:103700003184728C3184107C728C3184518C107CA9
:10371000318431842D63EB5ACB52E839CB526E6B36
:10372000CF73107CF07B5184CF73AF73107C3084E7
:10373000F07B3184F07BF07B5184507C928C507C08
:10374000EF73307CF394928C7184718CCF7B728C8C
:103750001084AE739294D39C929431843184929469
:10376000928C928CD394B294928C728C30845184CB
:10377000718C518C3084518C9294518C718CB29498
:103780009294718C728CD39C9294518CCF7BAF7B32
:10379000318CD39CB294D39CF39CF39CB39CD39C6C
:1037A000F39CD39C71949294F3A4B29C718C9294E8
:1037B000B294518C518C518C14A5728CCF7BB294E5
:1037C000718CD39C9294B39CF49C92947294B29416
:1037D0009294518C107C728C10843084928C518C19
:1037E000F07BAE733084F07BF07BEF7B10846E6BEC
:1037F0006D6B4D6B0C630C63AF73CF7BCF73F07B42
:10380000AF73CF738E738E6B107CD07B2D636E6B1A
:103810008F736D6BEC5AAB52E8396A4A3184F07B96
:1038200031843184EF7B107C308451843184318445
:103830005184308CEF83518C718CEF7BCE73EF7B96
:1038400050847184918CF39C718C7194929C729CC5
:10385000B3A4B3949294B294929492949294728CEE
:10386000B394718C718CB294728CF39C718CD394E0
:10387000B394F49CB394718C518C518C718C728C78
:10388000518C718C728CD39C72949294518C518C0B
:10389000728CF07B518CF39CF49CF49CB294F39C5E
:1038A000F49CB394F49CD39CB394B294318410846C
:1038B0003184728CB394728C1084AF73CF7BF07BA5
:1038C000F07B8E73318431844D6B6E6B1184108468
:1038D000F0835184F07BF07B107C728C5184718C6E
:1038E000107C718C107C718C107C107C5184318424
:1038F000CF7331843184107CF07BAF738E6B6E6B31
:103900006E6B4D634D636E6BF07BF07B6A4AEC5AD5
:10391000CC52AF738E6B4D632D638E6BF07B318415
:1039200031843184F07B107C5184728CEF7B107C6D
:10393000928C8E7BCF83929C929410843084718C75
:10394000718C918C918C71945194F08B5194519C09
:1039500072A4518C1084518C3084518CB294518C4F
:103960007294518C318C1084718C9294518C718C26
:103970001084B2949294518C3084518C518C518C1F
:10398000B39492949294D39C518C929492949294E6
:10399000318CD39C149D728CF07BF07BD394B394C8
:1039A0005184728C518C5184518C3184F07B108401
:1039B000928C10843184F07BCF7B107C3184F07B3F
:1039C0008F738E73CF7B107CAF73D07BAF738E738E
:1039D0004D6B6E6B4D63AF73F07B6E6B8E6BCF7305
:1039E0008E6BCF73CF732D63F07B8E6B6E6B6E6BB4
:1039F000AF738E6B8E6BAF6B6E636E6B0C5B4D63D8
:103A0000AF73CF73AF736E630D5B2942293AAB522C
:103A1000AF736D6B8E6B8E6BAF73F07BF07BAF73A0
:103A20008E6B8E6B4D638E6BCF73CF73107C107C5F
:103A3000AE73F083AF7BAF7BAF7310841084CF7312
:103A40000F7C107C30843084CF7BCF83318C729C90
:103A5000729C718C718C929430841084929C929C94
:103A6000D3A492947294518C518CF083F07B718C1E
:103A7000518C1084718C3184518CD39CD39C728C6A
:103A8000D39C929492949294D39CB39C7294B2944B
:103A9000D39C8E6B4E6B8E6BAF73728C9394728CC7
:103AA000D07B728C5184318431843184F07BF07B03
:103AB0005184F07B107C1184F07B8E6B8E6BCF7306
:103AC000AF73F07B107C107CAF73D07BAF73AF73A0
:103AD0008E6B6E632D5B4D634D63EC52CB52EC529B
:103AE000AA4A0C5B2D5BCB524D630C5B0C5B2C5BD1
:103AF0002C5B2C5BCB52AB4A2C5B8E6BAF6BAF6BF2
:103B0000F073AF6B8A4AE7318A4A2D5B8E6B8E6BFE
:103B1000D0734D634D636D6B6E6B6E6B6D6B4D63F0
:103B20004D636E6BCB52EB5A4D636D6B4D632D63E2
:103B30000C5BEC5A6E63CF738F6B6E6B6E6B4D6B61
:103B4000AF73AF738E73AF73318411848F738F73C0
:103B5000117C308430849294718C9294D39C5194D3
:103B6000318C7294B39CB39C92949294B39414A5A8
:103B7000D39C9294B294B3949294B294518C728CDC
:103B8000D39CB394B39CB294D39CD39CB39CF39C2E
:103B900014A52D634D63F07B31843184CF73107C89
:103BA000107C5184107CAF6B6E6B8E6BAF6BAF7300
:103BB000F07B317C6E6B4D636E6B6E638F6BAF6BA6
:103BC0002D5B4E634E634D630D5B2D630D5B0D5B93
:103BD0000D5B2D630C5BEC52EC52AB52AB4AAB4A23
:103BE0006A4A6A42CB528B4ACB52AB4AAB4ACC525E
:103BF000AB4AEC52EB528A4AAA4A8A4ACB52AB4AA7
:103C00008A4AC731283AAB4A4D634D632D5BEC526B
:103C10000C5BAB52CB52CC5ACC5AAB52AB52CB52C0
:103C2000CB52AB526A4A8A4AAB52AB52EC5A2D6322
:103C30004D634E5B4E5B4E634E636E6B8F736F7363
:103C40008F736E736F738F73B073AF6B8F6BB06B5B
:103C50001174CF738E73CF7BCF7B1084518CF08324
:103C6000F083F0831084518C5194D39C9294D39C14
:103C7000D39CD394F49CD39C718C34A5929492944D
:103C8000F49CD39CD39CD39CD39CD39CB394D39CC3
:103C9000D39C6E6B6E6B8E6BAF732D638E6BAF733D
:103CA0008E6B2D632D630C5B2D636E6B8E6B6E6B59
:103CB0006E634D634D636E634D63CB52CB520C5BB1
:103CC0000C5BCB52CB52CB52CB52CB52AB52AB4A0A
:103CD000AB528A4A8A4A6A4269426A428A4A8A4A94
:103CE0008A4A293A6A428A4A6A426A4249428A4A66
:103CF00049422942494249422942E8392942494236
:103D000029428A4AAB52CB52CB52AB52CB52AB5226
:103D10008A4A8A4A8A4AAB52AB526A4A6A4AAB52C8
:103D2000AB528A4A8A4A8A4A8A4A6A4A8B528A4AE1
:103D30002942CC528B4A8B4A8B4AAC5ACC62AC6239
:103D4000ED62EC622E6B4E6BED62ED5A6F6BD06BD9
:103D5000B06B6E636E6BAF73CF73CF7BF07BCF7B3B
:103D6000F083F083F08311843184B39C31843184F7
:103D7000518C51843084718C31849294928CB294A1
:103D8000518C718CB294B294B394B394D39C14A517
:103D9000F4A44D630C5BEC5AEC5AAB520C5BEC5A3E
:103DA0006A4A29424A4A4A4A4A4A8A4A8A4A4A4AFC
:103DB00029422842083AC731A631A731C73186299E
:103DC000452145214521252145214521252104194C
:103DD0000419041924190419E41804190419E4181D
:103DE0000419C310C310E418C310E418A208C310C8
:103DF000C310A21021006108C310E418C3100419F5
:103E000025212521452166298629862946296629D5
:103E1000862986296629662966292521452166295C
:103E2000462945212521462986298629A731C839D1
:103E3000083A093A093A2942294229426A4A494A32
:103E4000494A09426A4A6A4A6A4A8A4ACB52CC5269
:103E5000AB4A2C5B2C5B6D638E6B6E6B6E6B6E6B0B
:103E6000AF738E73AF7BD07B8E7331841084F07B05
:103E7000AF738E7351843184EF7B518C728C31849B
:103E8000518C518CB294B394B394B294B394F49C87
:103E9000F49C66294529862945292521E418041919
:103EA000C318C318C318A310620862086208620826
:103EB0006208410062084108200041004100000002
:103EC00000000000200000000000000000000000D2
:103ED00000000000000000000000000000000000E2
:103EE00000000000000000000000000000000000D2
:103EF0000000200000000000000020000000000082
:103F00000000210000002100210062086208620810
:103F10004108210000000000000000000000000037
:103F200000000000000000000000210041008208A5
:103F3000A31045218529C629A521A521472A672A3D
:103F4000672A8732883288326832893AAA42CA4A56
:103F5000CA4AAA42AA42AB4AEB52EC52EC520C5B60
:103F60002D630C5B2D634D6B0D63AF73AF738E6B65
:103F70008E6BAF73EF7B1084107CF07B718C92940E
:103F80003084718CD394D39CD39CB394D39CF49CF5
:103F9000F49C200000000000000020000000000051
:103FA00000000000000000000000200000000000F1
:103FB0000000000000000000000000000000000001
:103FC00000000000000000000000000000000000F1
:103FD00000000000000000000000000000000000E1
:103FE00000000000000000000000000000000000D1
:103FF0000000000020002000000000000000200061
:104000000000000000004108000000000000000067
:10401000000000002100000000002100210021001C
:1040200021002100210021006208E4180419C310B6
:10403000820880004209872AE832E722E61AA50AA8
:1040400084028402840264022402040A451A46227D
:1040500026226932693A8A42CB4AEB52CB52CB5282
:10406000CB522D5B0C5B2D632D636E6B6E632D63EA
:104070006E6B4D638E6B8E6B4D63CF73CF7BCF7B3F
:10408000AF731084518C518C718C728C9294D39C30
:10409000D39C000020000000000000000000000091
:1040A0000000000000000000000000000000000010
:1040B00000002000000000002000000000000000C0
:1040C00000000000200000000000000000000000D0
:1040D00000000000000000000000000000000000E0
:1040E00000000000000000000000000000000000D0
:1040F00000000000000000000000000000000000C0
:1041000000000000000000000000010000000100AD
:1041100021080000210021000000410021002100B1
:104120004100210021006200C310C310820804195D
:10413000E839862AC309E2016402C4022503860322
:10414000C703E70B080C091C0924C92B682B072B94
:10415000E72A493249322832083208320832493ACD
:104160006A424942AB52EC5A8A4AAB522D630C5B0D
:104170002C5B4D634D63CF738E6BAE736D6BAE7303
:10418000AE738E73AE736E6B6E6B6D6B6D6B8E6B91
:104190006D6B0000200000002000610001000100A4
:1041A000000000000000000000000100010000000D
:1041B00000000000200000000000000000000000DF
:1041C00000000000000000000000000020002000AF
:1041D0002000000800080008000800080008000887
:1041E000000800080008000800080008000000009F
:1041F000000021000000000000000000000000009E
:10420000000000004100000000000000000000006D
:104210000000400020002108420022002200220865
:10422000210041004100C310010862182529E73927
:10423000494A6741E94987398310410061006000BC
:10424000E200420182092412C5224623862BE7336D
:10425000483C49344934092CC823671B0613C6124D
:10426000A612871246128822261A89326832272A15
:104270004832493229420752064A073A693A6A3AAD
:104280000A3A8B5A284AA94AAA42EB4AEC52EC62F3
:10429000EC6A8200E308C10001018000A2008200F4
:1042A000400020002000200020000000000000004E
:1042B000200000000000000000002100200000009D
:1042C00000000000C310452104198208410040008D
:1042D00000000000000000000000000000000000DE
:1042E00000000000000000000000000000002100AD
:1042F00021000000000000002000410041002100DA
:10430000620862086108A31041082100210800002A
:10431000210040002100210842004200220822081A
:1043200021002000C30041080108E428663161082B
:10433000C318663142086629E731A2080311030950
:10434000C200A100A000800080008000A000C0008A
:10435000A000C000E00000012001400161016201F5
:10436000830163016401640903010309E308E308AD
:104370000411E308E318A2200429241904094519AB
:104380006629A3208631E731292A6A3A8B4A8A5264
:10439000CB624D43CA32C93246224722C619861122
:1043A000030964192219C21081084100200020006D
:1043B000200000000000000020000000000041007C
:1043C0004100083AA72945212519452145214521C4
:1043D0002419451165118619C621E721282A48327A
:1043E0004932AA3A8A3A893A69326932893A8A3A2A
:1043F000AA3AAB52E8392521A308A208E310041910
:10440000E4102519251925194521C31000000000C5
:1044100001002000210041084200620042082208F9
:1044200021006100C30820088220AB6A0000000060
:104430008531E73961004100A629693A0C4B6A3A97
:104440008A3A8A3AAA3AAA3AAA3ACA3AA932882AA7
:10445000882A261A0512A4094201E10081006000A1
:1044600040004000610020000100620001000100E6
:10447000010020002000010822088308A200A208F1
:10448000A218243166316A42CC4A6F638F73108C54
:10449000508C840042006100600041002100220035
:1044A0004619C30881082000000001000000000038
:1044B00000000000200000002100410021006208EF
:1044C000CC526621C31042008208E4102419452111
:1044D0008629E721C621C619A61985116511440947
:1044E0002409C200A2008100610061006100610036
:1044F0006100C410293A6E630C5BA729E410E41034
:10450000041945192519452146210519620821007C
:10451000420020004108420842006200630822086D
:104520002100C20860000008E85929620008E32061
:10453000E741C20804196100C308A721EC4A4E5B99
:10454000AB428B424A3A4A3A6A3A6A3A29322832AC
:10455000693A8A42AA42CB4AEC4AEC52EC4AAB4A4C
:104560006B426B42093AC831A831062147298310B2
:104570000200810045212531632062102000E318EC
:104580008208E839F49C76AD55ADB6BD55B5B6B5E3
:10459000B7AD020001000100210001000200061970
:1045A0006729010000000000010002000208010864
:1045B000000800004100210021000000C3106E63CC
:1045C0008729830862084100010000000100000003
:1045D000000020002000200020000000000000005B
:1045E000000020002000200000000000000000006B
:1045F0000000010001002100C729AF6B8F63E83183
:10460000E4100411A729662146216621C410420046
:10461000010020004208420842008200630822088C
:104620004108C208600040188E932449401868521F
:10463000811842086629E4186200A729EC52D06B61
:104640006E5B4E632D5B2D5B0C5B0C536D5BAE6341
:104650004D5B0D5BCC528B4A6B426B4A8C4AAC5221
:10466000CC52AC4A8B4ACC528B4A2A42093A0D5B57
:1046700067294411083A8B62095AE3302752A11086
:104680006208C4104E63F8BD95BD17D6F7D518C69D
:104690005ABE010000080000000001006310E9415B
:1046A00021002100200000000000010001000100A5
:1046B00001006100000082002100E410AF6B872937
:1046C0004200620021000000000000000100210003
:1046D00021000000000000000000000000000000B9
:1046E00000000000000000000000000000000000CA
:1046F000000042000100210001000100C8318E636A
:104700008E63E83105118721A721CB4A0C5383081A
:1047100042002100620862086200830863084210B8
:104720006210E2102000A5494C9340304762E22815
:1047300000080000210804214100C310AB4AF073B7
:10474000AE6B8E6B2D5BAF6B2C5B283A2B53EE6BF5
:10475000A9426B4A6B424B424A424A422A3A0932C8
:10476000E831C8292932C8290511E40801008A4224
:10477000EC52E6398531253942208641CD83C54941
:10478000A22083188308107CB6B574BDB6C5D7BD0A
:10479000D8B5000040082000410800004629262125
:1047A00000002000400040002000200040004100A8
:1047B0004100820021000000A729AF6B662162083A
:1047C000620801000000000021000000000000005D
:1047D00021000008000800080000000000000000A0
:1047E00000000000000000000000000000000000C9
:1047F00000000000420042006200A3086200C308FB
:10480000293A6E5B2D5B6E632D5BAB4AC829620053
:1048100021002100620862086208A308830863106F
:10482000A318A108600827626459A561476A401867
:104830000010000885396952A218610848426D6B62
:10484000EF738E6BCF736A42251965214519C30832
:104850002419E510E410C410C408C408C408C3082F
:10486000C308A300E4082411E3084100A20081006A
:10487000693206520B73295AA328CB62A120065A2B
:1048800003410020E428A72976A555A596BD96BD2D
:1048900076BD8100000061000100A4100A3A2200E8
:1048A0006200400060008000A000810061004100C3
:1048B000410020008200293AEC52E410000021005F
:1048C00000000000000000000000000021000000C7
:1048D0000000010001002100210021002108410801
:1048E00041084208420862086208620862086208D9
:1048F0006208820842006208A308A308A30883088C
:104900002100620004114521E41041008308E410F5
:1049100062002000620842086208A308830863104E
:10492000E41881088010E56147820A9BC03820188E
:10493000C549C962274AA531A1104008C7314D6356
:104940006E6B2E638731A410E5182621C5108408EC
:10495000A408C308C308C308C308E310E410041183
:1049600004114419E308E3086519E72948322C5378
:10497000E729265ACA7A8551E759A96A00102020EA
:10498000076AE7610010E418F06BD7ADD7B597BDA3
:10499000B7CD210041002100220063004200220027
:1049A0000100210041002100410041004100A30815
:1049B000C410A729CB52E73162084100620862089F
:1049C0008210621082108210821082108210821077
:1049D000A210A20882088208820882086100620888
:1049E000A310820861004100410020000000410046
:1049F00021002100831021006208C3104100000043
:104A00002000000021006200C3080411E410A30884
:104A1000A3082100210042088208C310C410220804
:104A200004214008A020A87AEDBB4269A359E9728D
:104A3000475AA1100000A63165294100A729CF736C
:104A400097ADD4940A42E9396C52E6206410841080
:104A5000A518C310E310041924190419E310E31076
:104A600004194521E7318A426D63EF73307C71840C
:104A70008A42E649EA7A8882467A0049E5592662FE
:104A80006551A75900188110AA4A96ADB7B597BDD0
:104A900098BDE3180421C31824292429232165295A
:104AA0008631672988298829C931E939C831A73170
:104AB000A7310419610000004100210000004108F5
:104AC00000000000000000000000000000000000E6
:104AD00000000000210021000000000041006208E9
:104AE000620882086208000000002100A310E310A1
:104AF000620821086208252165292521A2080000F5
:104B000000000000A208E410E310C410C410C31099
:104B1000C31042004208620882088200A310C41831
:104B2000E41861080229E98A058A268A4A93E13055
:104B30000008000042086629662901000519D073A3
:104B4000F9B577ADF17B2E6B6B4A6310C41826293B
:104B5000A410C310A310A210C3100419A7316A4AED
:104B60000C638E731084F07BF07BD07B3184728C6D
:104B70006A4AA5398C934682458A6AA3C4590018AB
:104B800000180862A2300000A631D394F59C728C04
:104B9000318CCC93EC93CB934CA4CA934B9CCEAC6E
:104BA000AC8324290629C618851083104110000003
:104BB00000000000000000002100000000000000D4
:104BC00000000000000000000000000000000000E5
:104BD0000000000000002100620882104100000077
:104BE00021000000C318410821004521252141086A
:104BF00000000000210004216629C31021002100CB
:104C000020008208C310C310C310E310E418E4109E
:104C1000C410620021004108C3100411C410E5183B
:104C2000A310200063392572E8AA2592A040001045
:104C30000008010001000521A83101006621F1737F
:104C4000F494D8B572840C5B083A041981086100A9
:104C5000E2102521A7294942EC5A6E6BAF73F07B15
:104C60001084D07BF083F07B3184528C538C73940E
:104C70008C52843190B46BAB226983616251434999
:104C80008030E248C1300008C4102A3AE931E839DE
:104C9000E7410DD5CCCCA7A307ACC5A368B40CC520
:104CA000CA93001000000200020001000000000092
:104CB00000080000410001000000000000000000AA
:104CC00000000000000000000000000000000000E4
:104CD000000000004108210000000000000000006A
:104CE00000002000000020006529E739C3180000FB
:104CF0000000200021086629042121000000000096
:104D0000620804190419E410E410E410E410E41833
:104D100045210519620842088208E410C4100519EB
:104D200005194008886293EDD0EC0DCCCBABA8728E
:104D3000A541053121100429452900008629AE6BC3
:104D4000F073307CF394493AE7310311A52188428E
:104D50002B536E63AF6BAF73D073D073D07BD07BAC
:104D6000B07311841184F183528C7394538C7394B7
:104D7000EE6263310E9C88820038A469C459C4591C
:104D800042518459855100086300705B327C108465
:104D9000508C44A3AAD4A6AB27BC47BCC5A308A487
:104DA000CDB4A12083184729472167218621662198
:104DB0008729E831A3100000000001000000000076
:104DC00000000000000000000000000000000000E3
:104DD00000000000410061002000200020000000D1
:104DE0000000A208E31882088208E31061080000AE
:104DF00000004108E4186208410000000000E410CF
:104E0000E410A310C310C410051946212621462121
:104E10008729A30800004108A210E308051106191C
:104E2000E51820000E944682A7AA669AA3616762DD
:104E3000CA62A96A685AA962C639600844210B5B34
:104E4000AE6B0C53CA4ACA4AAE636D5BAE63CE63A7
:104E5000CE638F638F6BAF6BAF6BD073117C31847C
:104E6000117CF07B528C738C728C738CB494B494E0
:104E70004E6BE6314C7B81404469A98AC4590018C5
:104E80000018A13040180008A3108F6B3284AF7354
:104E90000B5BA6ABECD4A8ABA8ABE9AB679B0AA4B1
:104EA00051BD653126216C428C42AC42AC42AC42D1
:104EB000AD4AEC522A42A41001000100000000009B
:104EC00000000000000000000000000000000000E2
:104ED00000006100410020000000000000006100AF
:104EE000E310241961004100C310820841008208C8
:104EF000820862088208210000002100A310E4104B
:104F0000041905194621462105192619A8318B4A8D
:104F10002E63AC4A21084108E318C308E51026199E
:104F2000051941002A73A0486281A7A2A048001079
:104F3000000000080010801880100000C210EA5223
:104F4000EB52493ACB4A9284317C2D5B6E5B8F6386
:104F5000CF63B06BD06BF073F073F07B317C318436
:104F600051849294B394B394B394F49C149DD39CC1
:104F70006E6B2932CB626130C67101514672A872E4
:104F80000020E33021100000E320308C9294318423
:104F9000527CCFE5F1ED6DC46EBCD0C4F0C452C5F7
:104FA00012B5A639E4106A3A8A3A69326A3A4B3A3B
:104FB0004C3A2A3ACC528729010001002100010015
:104FC00001000000000000000000000000000000E0
:104FD00000002000A210A310610841088210821076
:104FE0006208000020000000000021000000000016
:104FF0000000000042004200C31045214621662106
:105000002519C4082519A8298B4A8F6B117CD073E8
:105010008F6BCC5283100000A210E31025190619E3
:10502000051941006C83668AE49109B34A9B00101C
:10503000000820080000400861080000E3108A42D0
:10504000AB4AEC5273845284738CCC526F6BB07346
:10505000B073AF6BD073117C51845184518C718CBF
:105060009294D39C13A596B579CEFBDE38C634A5B1
:105070008D7366214E6B0531202063492020024943
:10508000897A664900002100483A30840F843184CF
:10509000728CA37A689B4A9BADA3EEAB6B93CD93C6
:1050A0000E8CC639C210683A883A6832693A4B3A6F
:1050B0000B3A4A3AE9316721E5104200010021002C
:1050C00000000000000000000000000000000000E0
:1050D00000000000200041084108410821000000B4
:1050E0000000000020000000000041088210E318CA
:1050F00025298629452186294621E410C4108308E4
:10510000A40825196B42F173B48C327C0D5B8B4A79
:10511000AC4A0D5B8B52E3184100A2082519061911
:1051200046194100A86A4682E491A06025726B830B
:1051300061100000210062084200010025190932B7
:10514000B06B327CB07357A5F17BED5AD17BB07B4D
:10515000D07B117C31843184518C728CD39C95B579
:1051600038CEDADEFBE6FAE699D658CEB5BD13A501
:10517000AD73C7391184A8410000A541C03000209B
:105180006461C7612110C408B27CFBCEF7BD75B560
:1051900055B5C73129424942A731E310A310452133
:1051A000E839C731A3106629252124192521C31008
:1051B0000419E418A3108208C310A3106208210088
:1051C00000000000000000000000000000000000DF
:1051D0000000000000000000000000000000420885
:1051E000A310E520062146298731472926210621DB
:1051F000E620E410E40845116611C8214A3A8C4AB9
:105200000E5B706BD17393841174E9394A52D18B60
:10521000F193516C1174C9390208431005196519CD
:10522000851920002852E861A771C77900206341E1
:10523000096B822800088218000000006521E73110
:105240009284AF6B76A576ADCF7B6E6BCF7BF07B18
:105250003084507C918C139DB6B579D6FBEEDBEE95
:105260009AE618D6D7CD55B514AD76B534A5349D8C
:105270004D634B52118C8B5A0010402044416541C4
:10528000C32000008308C8293595F8AD39B6D7A5E5
:1052900055954100410041002100000000004100FF
:1052A0006208410000000000000000000000000053
:1052B00000000000000000000000000000000000EE
:1052C000000000000000000000000000010041009C
:1052D0006208A310E31825216629862986296629F4
:1052E0008729462126190511261926196719093219
:1052F0002932CB42EC422D534E638F6B906B4F6340
:105300006F6BD06B737C52746A3A6E5B8F6BAF6B52
:10531000B073CF6311746F6B02086318C310040974
:10532000A619A2084431086AC450E8796038001010
:10533000C0208A6AC3280008200861084521694204
:10534000349DB7ADD7B576AD318C8E73728C728CBF
:1053500014A538C679CEFBDE1CE7BADED7C555B535
:1053600035B596BD35B555B596BD55AD76AD149DE3
:10537000AA4AAC521184AF7B0429A6418962A228B3
:10538000000804212521D06B359D1595D7AD96A534
:1053900055A5410042004200620062006208820896
:1053A0008308A308C410A308C310A310C310E410FB
:1053B000A310E4100419051904190419251925214D
:1053C0002519452145214521252145216629872982
:1053D000A729862166214619451966198621C729FC
:1053E000E8294932CB424D538F5B8F5BAF5BF06353
:1053F0008E538E5B8E5B4E630E632E6B4F6B4E63D4
:10540000B06B116CB37CEC426A325174316CF06356
:10541000F0633174AF6BB07B67310100A3084511B5
:10542000072AA208E3208A7241386661E761000812
:10543000000000084952E320000024192419EB520F
:10544000D7B5B7ADF8BD56ADCF7BF083B39CB39461
:10545000FBDE1CE758CEB6B575AD75B555B575B55F
:10546000B6BD96BD96BD96BDB7BD55ADB394B394CC
:105470002942D06B3174928CC63903298118E328F4
:1054800004290429AF73159DB394118431841184C8
:10549000F08366218729A729A729872986218729BB
:1054A000A7296621C8316621872986218729C83125
:1054B00087298729A729C729A729C729C829C8292A
:1054C000A7298729A729A72987298729C831083229
:1054D000093A6A3AAB42EC4A2D536E5BAF63AF6355
:1054E000AF63D0636E5B4E534E538F5B6E534D5321
:1054F0008F5B2D5B6E634E632E634E6B4E6B6F63E3
:10550000F06B727C4E5B2932D06B1174D063F06B00
:10551000F06BF06BB06BD0730E630100420025118D
:1055200085190411A218E85966510028696A80207B
:1055300000082008401040082000A631E310317C0C
:1055400038BE96AD76AD76B51084939CF4A4F39CEA
:10555000F7BDD7BD96B575B555AD76B596B5B6B5AB
:1055600096B596B5D7BD76ADF4A414A5D49C6E6B54
:1055700029425274AF5B9284AE6BA2100329A63904
:105580006531F083BFFF3EEFFDE6DDE69BDEBBE667
:10559000BBE6E831E8310932093A093A093A093AF1
:1055A000093A293A6A42293A6A426A428B4A8B4A44
:1055B000AB4ACC4ACC4ACC4AEC4AEC4AEC52CC4AF4
:1055C000CC4AAB4AAB4A8B428B42AB4A0D536E631B
:1055D0008F63B063B06390636F5B6F5B6F5B8F6370
:1055E000AF630D536300E9318F634E638F6BAF6B15
:1055F000AC4A8B520E636F6B6E636E636E5BAF6310
:10560000F06BD06BE831ED5A3284B073906BD0738D
:10561000B06BAF63D073B073B073093A010062002E
:105620008621A6290000A749A75100100339275257
:105630000000A21861100000A21085290419B7AD5E
:10564000D7B514A535AD35AD1184D39C14A576B569
:105650007AD639CE18C6B7BD75AD75AD76AD96ADF7
:1056600096AD96AD55A5149D938C318493944A4A7A
:105670006F6B8F537274EF6BF394EB52C21861101F
:1056800065317ADE9FFF3EEF7FFF9FFF9FFF7EFF2A
:105690009FFFAC4AAC4AAC4AAC4ACC4ACC4ACC4A52
:1056A000CC4ACC4ACC4ACC4AED52ED520D53ED5285
:1056B0000D532D530D530D532D532D532D530D536A
:1056C000ED4A8B428B428B428B42CC4A2E5B6F5B06
:1056D0006F636F636F639063906370636F636F63F7
:1056E0006F634B4247212E5BB0734F632E634F6352
:1056F0006F6B2E5B6F636F634E5B4E53AF5B316CB2
:10570000106C293A8B4AD073F17B90739073B0730D
:105710006F6BB06BAF6B4E638F6B8F6B872121000C
:10572000A3084621A318E428E85100100008C64148
:10573000E220610820000000284282088A4AB7B5AA
:10574000928CD49C76AD9394729435AD14A59294BA
:1057500055AD7ADED8C535AD14A535A535A5F4947B
:10576000B38CF494F073CF73938C938C2E636B4A49
:105770001284F0635274927CB28CF39C4D6B2C6B50
:1057800018CE9FFF1DEF3DEF3EEF3DF71DF71DF7D4
:105790001CF7CC4ACD4AED52ED52CD4ACD4AED52DE
:1057A000ED520D53ED520D530D530D53ED520D535C
:1057B000AC4AED4A0D532E530D530D530D53ED4A84
:1057C000AC428C428C42CC4A0D536F5B8F638F632B
:1057D0008F63906B70637063B06BB16B9063906319
:1057E000B06B6F634F5BD06B4E5B8F6390638F6367
:1057F0006F636F5B8F5B4F5B4E5B6F63D073F06B60
:10580000ED520932F06BD073D0738F6B9063B0633D
:10581000AF636F638F6B6F636F638F636E5BA72183
:10582000010005190421A318663145310000400824
:10583000653100004100A631A6312100D39CF49CC3
:105840007294B394D49C728C72943184308430847A
:10585000929415ADF4A4D49CB39C92945184CF73CC
:105860008E6BEB52493AC7292D5BD494F17BF59CA2
:1058700036A51595F48CD48C55A576ADBADE7DF79A
:105880007DF71CE73DEF3DEF1DEF5EF73DEF7EF747
:105890005DF70E530D530D530E532E532E532E53AF
:1058A0002E532E532E532E5B2E5B2E5B0D534E5BD1
:1058B0008C428C420D534E5B2E530D532E530D5381
:1058C000AC42CC4AAC4ACC4A2E5B9063D06BD06BD6
:1058D000D06BD16B6F634F5B4F5B6F634F5B4F5B05
:1058E0006F5B6F5BD063B05B4E53F1634E534E53AF
:1058F0008F53705B6F5B2F5B4F6B9073D17B4F6BE4
:10590000A8318F6B117C8F6B8F638F638F636E5B9E
:105910008F5B4F6B2E634E5B6F636F5BAF63D06BC0
:105920004E5B62080519C4188210C7390842A218D4
:105930004108A2100842AB520000494AB7B555AD24
:10594000D39C728C9294F07B8E733184518CEF7B5C
:10595000107C7294D49C15A514A515A555AD149D65
:10596000928CCF735284AB4AA7296A42B48CB7ADEC
:10597000D8B55BC61DDF3DE71DE79FF77EF73DF716
:105980005DF75DF75DF73DEF5DEF5DEF9EF75DEF76
:105990007DF74E5B4E5B4E5B4E5B4E5B4E5B4E5BF4
:1059A0002E5B4E5B4E5B4E5B2E5B2E5B2E5B2E5B4F
:1059B0004E5B4E5B2E5B0E532E5B2E5BED52CD4A43
:1059C000AC4AED52ED526F63D16BB06BD16BF1739A
:1059D0008F63C829B0636E5BC821ED4AA821F16BC3
:1059E000AC422A328B3A2A2AF16B6B326B328C3AF8
:1059F0006F5B506B50637063B06B127CB073E939AE
:105A00002E6BD0738F6B8F634E5B6E5B8F632E5BE1
:105A10002E632E634E638F63F06B31743174317C6F
:105A20007284B0736208E4180519C3102942CB5A76
:105A3000AB5AEC5A8A526208C41835ADB7BDF49C13
:105A4000B3949294F07BF07BAF73107C5184D39429
:105A500075A597B5F8BDF8BD39C6D7BD76B5D49C48
:105A6000728C6E6B4E6B159D2D63C41009322E5BCC
:105A7000D06BD594B8B53AC67EF77EF75DEF7EF76A
:105A80005DF75DEF5DEF5DEF7DEF7DEF7DEF7DEF2E
:105A90007DEF6F636F634F5B4F5B6F636F636F632C
:105AA0004F5B4F5B4F5B4F5B4E5B2E5B2E5B2E5B0A
:105AB0002E5B2E5BED52ED522E5B2E5BCD52AC4A2F
:105AC000CC4A8C4A0D53B06BF173B06B906BB06BDA
:105AD0008F6366192D53AF6386198B3AC821AF6364
