:020000040800F2
:100000000000012061020008650200086702000884
:100010007D0200087F020008950200080000000031
:10002000000000000000000000000000AB0200081B
:10003000AD02000800000000AF0200081112000825
:10004000C5020008C5020008C5020008C502000874
:10005000C5020008C5020008C5020008C502000864
:10006000C5020008C5020008C5020008C502000854
:10007000C5020008C5020008C5020008C502000844
:10008000C5020008C5020008C50200080000000003
:10009000000000000000000000000000C502000891
:1000A000C5020008C5020008C5020008C502000814
:1000B000C5020008C5020008C5020008C502000804
:1000C000C5020008C5020008C5020008C5020008F4
:1000D000C5020008E50B0008FD0B00080000000049
:1000E000C5020008C5020008C502000800000000A3
:1000F000000000000000000000000000C502000831
:1001000000000000C5020008C5020008C502000882
:1001100000000000000000000000000000000000DF
:10012000C5020008C5020008C5020008C502000893
:10013000C5020008000000000000000000000000F0
:10014000000000000000000000000000C5020008E0
:10015000C5020008C5020008C5020008150C000809
:10016000C5020008C50200080000000000000000F1
:10017000000000000000000000000000000000007F
:1001800000000000C50200080000000000000000A0
:10019000C502000807B500F0B3FB274B2748834290
:1001A00026D3274B274900208B422DD301F0CEFDCB
:1001B000254E264C01A9684600F09AFBA41BA4100A
:1001C0000025AC4229DC224E224CA41BA4100025A1
:1001D000AC4227DCDDE9000101F0CEFD1E4D1F4CD5
:1001E000641B0646A410002C21DC304600F07CFB8A
:1001F000D3E900120C3353F8044C891A9442CED937
:10020000555815600432F9E753F8082B53F8044C9D
:100210009442C9D910600432FAE756F8253098475D
:100220000135CEE756F8253098470135D0E7013C37
:1002300055F824309847D6E7C8020008E0020008C5
:10024000E0020008F0020008F0020008F0020008D6
:10025000F0020008F0020008F0020008F0020008B6
:1002600014480047FEE71EF0040F0CBFEFF30880B0
:10027000EFF309807146104A1047FEE7FEE71EF0D3
:10028000040F0CBFEFF30880EFF3098071460B4AAF
:100290001047FEE71EF0040F0CBFEFF30880EFF3EA
:1002A00009807146064A1047FEE7FEE7FEE7FEE7D3
:1002B00070470000950100087B02000893020008C7
:0602C000A9020008FEE7A0
:1002C800C4CC00080000002038000020C4CC00087E
:1002D800000000100000001038000020300100204D
:0802E8000000001000000010EE
:1002F00010B5084B044618684FF47A73B0FBF3F05E
:1003000000F070F8002221464FF0FF3000F036F880
:10031000002010BD0800002008B50B4B1A6842F4FD
:1003200000721A601A6842F480621A601A6842F415
:1003300080721A60032000F00FF80F20FFF7D8FF3B
:1003400001F0E6FE002008BD003C0240014B1868A9
:10035000704700BF58000020074AD36823F4E063C9
:100360001B041B0C43F0BF63000243F4003300F492
:10037000E0600343D360704700ED00E0174B70B5B9
:10038000DC68C4F30224C4F10705042D04F104035E
:1003900028BF04254FF0FF36062B06FA05F38CBF65
:1003A000033C002421EA0303A34006FA04F422EAF2
:1003B0000404002843EA0403A8BF00F160404FEAA8
:1003C0000313BCBF00F00F00054ADBB2AABF00F563
:1003D0006140135480F8003370BD00BF00ED00E0B1
:1003E00014ED00E00138B0F1807F0AD2064B074AD5
:1003F0005860F02182F823100020072298601A60CC
:1004000070470120704700BF10E000E000ED00E001
:10041000044B1A6804280CBF42F0040222F00402C4
:100420001A60704710E000E00368F7B50446D8078B
:1004300038D4236899076DD423681E0700F1B9806A
:1004400023685D0728D500230193A64BA64D1A6C9F
:1004500042F080521A641B6C03F080530193019B9D
:100460002B6843F480732B60FFF770FF06462B6800
:10047000DA0540F1C0809D4B227A1A70A368002BE8
:1004800000F0C780FFF762FF964D064641F28837BD
:100490002B6F9B0740F1B680A269002A40F0C9800B
:1004A000002015E08F4B9A6802F00C02042A07D056
:1004B0009A6802F00C02082A0CD15B685A0209D52E
:1004C000884B1B689B03B4D56368002BB1D1012016
:1004D00003B0F0BD864B22791A7063686BB1FFF7E9
:1004E00035FF804D06462B689F03A2D4FFF72EFFF1
:1004F000801B6428F7D90320EAE7FFF727FF794D2F
:1005000006462B68980394D5FFF720FF801B6428CC
:10051000F7D9F0E7734B9A6812F00C0F07D09A687E
:1005200002F00C02082A16D15B68590213D46D4BF5
:100530001A68920702D5E268012AC8D11868F82221
:1005400092FAA2F2B2FA82F122698A4020F0F8010E
:100550000A431A6070E7E268664BDAB101221A605A
:10056000FFF7F4FE5F4D06462B689B070CD5296804
:10057000F82393FAA3F3B3FA83F22369934021F0AB
:10058000F80213432B6057E7FFF7E0FE801B0228B9
:10059000EAD9B0E71A60FFF7D9FE524D06462B683C
:1005A0009F077FF549AFFFF7D1FE801B0228F6D9E0
:1005B000A1E76269504B7AB101221A60FFF7C6FECB
:1005C000484D06466B6F98073FF53AAFFFF7BEFE02
:1005D000801B0228F6D98EE71A60FFF7B7FE414D5F
:1005E00006466B6F99077FF52BAFFFF7AFFE801BB9
:1005F0000228F6D97FE7FFF7A9FE801B02287FF6C5
:1006000036AF78E7FFF7A2FE801BB8427FF640AF17
:1006100071E7FFF79BFE334D064641F288372B6F9B
:1006200098077FF539AFFFF791FE801BB842F6D9E6
:1006300061E72C4DAB6803F00C03082B3FF447AF88
:100640002E4E0023022A33603ED1FFF77FFE07467D
:100650002B68990132D447F6C07797FAA7F74FF481
:100660004032B7FA87F792FAA2F24FF07061B2FA0D
:1006700082F091FAA1F1D4E907321343626A02FAD7
:1006800007F7A26A5208013A82403B431343E26AE9
:10069000144CB1FA81F102FA01F10B436B600123B2
:1006A0003360FFF753FE054623689A013FF5F8AE25
:1006B000FFF74CFE401B0228F6D91CE7FFF746FE69
:1006C000C01B0228C4D916E7FFF740FE04462B687A
:1006D0009B017FF5E5AEFFF739FE001B0228F6D936
:1006E00009E700BF00380240007000407038024047
:1006F0000238024000004742800E474260004742F5
:10070000194A936803F00C03042B10B503D0082B8F
:1007100003D0164800E0164810BD5168536801F038
:100720003F0113F4800F47F6C074536894FAA4F0A5
:10073000B0FA80F003EA040323FA00F314BF0C4874
:100740000A48B0FBF1F05843074B4FF440325B6866
:1007500092FAA2F2B2FA82F203F44033D3400133A8
:100760005B00B0FBF3F0D7E7003802400024F40050
:1007700080A81201554B1A6802F00F028A422DE937
:10078000F04105460E462FD32A68940736D4D00789
:100790003CD44E4B1A6802F00F02B24200F286803F
:1007A0002A68510700F18A80130707D5484A29694A
:1007B000936823F4604343EAC1039360FFF7A0FF0B
:1007C000434BF0229B6892FAA2F2B2FA82F203F053
:1007D000F003D3403F4AD35CD8403F4B18600F2012
:1007E000FFF786FD002007E0CAB21A701B6803F00D
:1007F0000F038B42C8D00120BDE8F0813449A868BE
:100800008B6823F0F00303438B60C0E76A68304BCA
:10081000012A1DD11B6813F4003FECD02C4CA368B7
:1008200023F003031343A360FFF790FD6B68012BD4
:10083000074641F2883815D1A36803F00C03042B56
:10084000A7D0FFF783FDC01B4045F5D90320D3E7B0
:10085000911E01291B6802D813F0007FDDE713F019
:10086000020FDAE7022B0AD1A36803F00C03082B6E
:100870008FD0FFF76BFDC01B4045F5D9E6E7032B92
:100880000FD1A36803F00C030C2B82D0FFF75EFDA1
:10089000C01B4045F5D9D9E7FFF758FDC01B4045BF
:1008A000D4D8A36813F00C0FF6D172E7F2B21A7025
:1008B0001B6803F00F03B3429DD171E70449E86858
:1008C0008B6823F4E05303438B606DE7003C0240E8
:1008D000003802401029000808000020014B186869
:1008E000704700BF0800002008B500F015F80000B0
:1008F00001230360014B0B60704700BF0000002024
:1009000008B500F01BF8024B024A9A6008BD00BF10
:1009100000ED00E000000008BFF34F8F0549064BD3
:10092000CA6802F4E0621343CB60BFF34F8F00BF8D
:10093000FDE700BF00ED00E00400FA050C4B1A686B
:10094000002142F001021A6099601A6822F0847254
:1009500022F480321A60074A5A601A6822F4802210
:100960001A60D960044B4FF000629A60704700BF74
:10097000003802401030002400ED00E0174A18490A
:10098000936803F00C03042B10B50DD0082B0DD089
:10099000144B0B60114B144A9B68C3F30313D25CD6
:1009A0000B68D3400B6010BD104BF2E754685068E1
:1009B00052686302C2F3881200F03F004CBF0B4B39
:1009C000084BB3FBF0F35343044A5268C2F30142AD
:1009D00001325200B3FBF2F3DBE700BF0038024004
:1009E000080000200024F4002029000880A812013B
:1009F000F8B5144606460F4600F034FD00210120EC
:100A000000F078FD0121084600F074FD644B9C4223
:100A100047D10421084600F06DFD062202216148FD
:100A200000F01CFF07220621022000F0A9FE072289
:100A300002215C4800F012FF07220220114600F05C
:100A40009FFE252000F082FDB57A002D63D0012D98
:100A500076D0727AEB03357943EA423343EA0533C1
:100A6000B579F27943EA852343EA4223E360337A96
:100A7000012B00F08A807FD3022B00F08280BB78AC
:100A80003A785B0243EAC2237A7843EA8223FA780F
:100A900043EA0223727943EA02332361002323608D
:100AA000F8BD414B9C4219D11121032000F022FDD9
:100AB000022201213B4800F0D1FE07220221012041
:100AC00000F05EFE03220121364800F0C7FE01203F
:100AD0000722032100F054FE2620B3E7334B9C424B
:100AE000B2D10521042000F005FD0C2201212D4882
:100AF00000F0B4FE08220C21012000F041FE0B2280
:100B00000121284800F0AAFE012008220B2100F054
:100B100037FE472096E733681FA1D1E900019A000C
:100B20009B0F01F075FD6422B0FBF2F102FB110393
:100B30001B013233B3FBF2F303EB0113A36088E72D
:100B400032680021921841EB010313A1D1E90001A1
:100B500001F05EFD6421B0FBF1FC01FB1C03DB0036
:100B60003233B3FBF1F303F007025B0002EB0C122C
:100B700003F4F8731344E1E7E36843F00803E36028
:100B80007DE7E36843F00803E360E36843F00403B0
:100B9000F5E700BFAFF3008000C2EB0B00000000E0
:100BA000001001401D0000200044014000140140DD
:100BB000C36843F40053C360704731B1012903D1C6
:100BC000C36843F02003C3607047C36823F0200369
:100BD000F9E74068C0B27047014B1860704700BF2A
:100BE0002C010020034B00221A60034B1B6803B149
:100BF00018477047001001402C010020034B0022D1
:100C00001A60034B1B6803B118477047004401404A
:100C100024010020034B00221A60034B1B6803B120
:100C200018477047001401402801002010B5044601
:100C300000F018FC0021012000F05CFC01210846B6
:100C400000F058FC601E042854D8DFE810F00500BE
:100C50005400A300D100FF000021042000F04AFC52
:100C600008220121904800F0F9FD012210460821D8
:100C700000F086FD092201218B4800F0EFFD0122E2
:100C80001046092100F07CFD0A220121864800F06F
:100C9000E5FD012210460A2100F072FD0B22012120
:100CA000814800F0DBFD012210460B2100F068FDB9
:100CB0007E4B1A6822F010021A601A6822F0200295
:100CC0001A601A6822F040021A601A6822F48072D0
:100CD0001A601A6822F400721A6008229A621A686E
:100CE00042F080021A600F22DA621A635A6942F0F7
:100CF00001025A6110BD0021032000F0FBFB052218
:100D00000121694800F0AAFD01221046052100F0EA
:100D100037FD03220221644800F0A0FD01220321D7
:100D2000022000F02DFD0A2202215F4800F096FD0E
:100D300001220A21022000F023FD032201215A484A
:100D400000F08CFD01220321104600F019FD4FF048
:100D500080439A6842F080029A601A6822F010027A
:100D60001A601A6822F020021A601A6822F0400203
:100D70001A601A6822F480721A601A6822F40072EB
:100D80001A6008229A621A6842F080021A600F22E2
:100D9000DA62ABE70121032000F0ACFB062201215F
:100DA000414800F05BFD02220621012000F0E8FC32
:100DB000072201213C4800F051FD022207210120B9
:100DC00000F0DEFC00220221374800F047FD02223D
:100DD0001046002100F0D4FC01220221324800F02C
:100DE0003DFD02220121104600F0CAFC304BB0E765
:100DF0000221032000F07EFB062202212A4800F097
:100E00002DFD02221046062100F0BAFC0722022125
:100E1000254800F023FD02221046072100F0B0FC17
:100E200008220221204800F019FD02221046082164
:100E300000F0A6FC092202211B4800F00FFD02224F
:100E40000921104600F09CFC1A4B82E7032108465A
:100E500000F050FB00220121134800F0FFFC0222A9
:100E60000021012000F08CFC012211460E4800F008
:100E7000F5FC01210846022200F082FC0222012139
:100E8000094800F0EBFC02221146012000F078FC3A
:100E900003220121044800F0E1FC02220321012089
:100EA00000F06EFC044B54E71D00002000000140E0
:100EB0000004004000080040000C0040012810B56C
:100EC00040F09080012927D1A74B196A21F0010138
:100ED0001962196A5868996921F0730141F060013B
:100EE00020F40070586099615A6300221A629A696E
:100EF00042F008029A619A6942F004029A611A6A01
:100F000042F001021A625A6C42F400425A641A68B2
:100F100042F001021A6010BD02291FD1924B196ADA
:100F200021F010011962186A5C68996921F44C512A
:100F300041F4C04120F0E00024F440645C60996119
:100F40009A6318629A6942F400629A619A6942F45B
:100F500080629A611A6A42F01002D3E703291FD116
:100F6000814B196A21F480711962186A5C68D96929
:100F700021F0330141F0600120F4606024F440541A
:100F80005C60D961DA631862DA6942F00802DA61FA
:100F9000DA6942F00402DA611A6A42F48072B1E757
:100FA0000429B8D1704B196A21F480511962186A6A
:100FB0005C68D96921F44C5141F4C04120F40050DF
:100FC00024F480445C60D9611A641862DA6942F4DE
:100FD0000062DA61DA6942F48062DA611A6A42F424
:100FE00080528FE7022840F0858001291ED14FF002
:100FF0008043196A21F001011962196A58689969D8
:10100000586021F0730141F0600199615A63002238
:101010001A629A6942F008029A619A6942F00402DF
:101020009A611A6A42F001021A6270E702291ED11F
:101030004FF08043196A21F010011962186A5C6848
:1010400099695C6021F44C5141F4C04120F0A0004A
:1010500099619A6318629A6942F400629A619A6986
:1010600042F480629A611A6A42F01002DCE70329B6
:101070001ED14FF08043196A21F480711962186AF9
:101080005C68D9695C6021F0330141F0600120F4B3
:101090002060D961DA631862DA6942F00802DA6125
:1010A000DA6942F00402DA611A6A42F48072BBE73C
:1010B00004297FF430AF4FF08043196A21F4805146
:1010C0001962186A5C68D9695C6021F44C5141F47A
:1010D000C04120F40050D9611A641862DA6942F400
:1010E0000062DA61DA6942F48062DA611A6A42F413
:1010F000805299E7032810D1012901D11B4B78E7D1
:10110000022901D1194B95E7032901D1174BB2E709
:1011100004297FF400AF154BCFE7042810D1012933
:1011200001D1134B65E7022901D1114B82E7032955
:1011300001D10F4B9FE704297FF4EDAE0C4BBCE7C8
:1011400005287FF4E8AE012901D10A4B51E70229B5
:1011500001D1084B6EE7032901D1064B8BE7042927
:101160007FF4D9AE034BA8E7000001400004004023
:1011700000080040000C0040044B1A6842F00402D2
:101180001A601A6842F002021A60704710E000E02C
:1011900038B501F075F84FF0834101F0C9F801F05E
:1011A00017FAB0F1807F194B20D300246FF07F45F0
:1011B0001A469C605D60196800F17F4041F00101B2
:1011C000013019601168C903FCD51168B0F1807F46
:1011D00021F001011160ECD29C605D60196841F062
:1011E000010119601168C903FCD5EEE700229A607D
:1011F00058601A6842F001021A601A68D003FCD5E0
:101200001A6822F001021A6038BD00BF10E000E049
:10121000134A08B51368012B02D9013B13600BE098
:101220005BB1104B002111600F4A996012685A603F
:101230001A6842F001021A6008BD0C4B1B681BB112
:101240000B490968116098470A4B1A78002AF3D0B5
:1012500000221A70034A136823F00103DEE700BF7F
:101260004000002010E000E044000020500000207A
:10127000480000204C00002010B5044600F0F2F8B1
:101280000021012000F036F90121084600F032F972
:10129000022C50D0032C00F09480012C4AD10C2158
:1012A000042000F027F907222146584800F0D6FA1A
:1012B00005220721204600F063FA06222146534802
:1012C00000F0CCFA05220621204600F059FA05224A
:1012D00021464E4800F0C2FA05221146204600F091
:1012E0004FFA4B4B1A6842F001021A601A6842F03A
:1012F00002021A601A6842F004021A601A6842F484
:1013000000721A601A6822F0380242F028021A604D
:101310001A6822F080021A601A6842F480721A6019
:101320001A6822F400621A6000225A601A6842F0B9
:1013300040021A6010BD0E21032000F0DBF80F22DE
:101340002146324800F08AFA05220F21204600F09B
:1013500017FA0E2221462D4800F080FA05220E21B0
:10136000204600F00DFA0D222146284800F076FABA
:1013700005220D21204600F003FA264B1A6842F0A0
:1013800001021A601A6842F002021A601A6842F0FA
:1013900004021A601A6842F400721A601A6822F095
:1013A000380242F028021A601A6822F080021A609D
:1013B0001A6842F480721A601A6822F400621A6095
:1013C000B4E70F21204600F095F8052202210F48CE
:1013D00000F044FA06220521022000F0D1F904228F
:1013E00002210A4800F03AFA06220421022000F005
:1013F000C7F922460221054800F030FA06222146AC
:10140000022000F0BDF9044BB8E700BF1D0000202A
:101410000030014000380040003C004002280BD062
:10142000032811D0012814D10B4B19739A681006A8
:1014300000D4704700BFF9E7084B19739A6811068A
:1014400000D4704700BFF9E7054B19739A6812067C
:1014500000D4704700BFF9E7003001400038004079
:10146000003C0040214B1A6822F400221A601A68DE
:1014700022F480221A609A6822F001029A609A6827
:1014800022F002029A609A6822F010029A609A682A
:1014900022F020029A609A6822F040029A609A68CC
:1014A00042F080029A609A6822F480629A609A6898
:1014B00022F400629A609A6822F480529A609A68D4
:1014C00022F400529A609A6822F480429A609A68E4
:1014D00022F400429A60064A5A605A6842F4800236
:1014E0005A601A6842F480321A607047003802402D
:1014F000204E04001F2925D80138032822D8DFE810
:1015000000F0020A121A104A0123106B03FA01F1CB
:101510000143116370470C4A0123506B03FA01F138
:10152000014351637047084A0123106C03FA01F12B
:10153000014311647047044A0123506C03FA01F11E
:1015400001435164704700BF003802404209012343
:1015500000F01F0003FA00F0014B43F8220070472F
:1015600000E100E00F2910B514D8022813D0032899
:1015700016D001280ED10C290CD80E4B1868490042
:1015800003248C4020EA04001860186802FA01F174
:101590000143196010BD8B1E022BFBD9064BEDE7F2
:1015A0000C29F7D9054B49001C68884024EA000043
:1015B000EAE700BF000002400004024000080240C9
:1015C0000F2910B50ED8CAB902280CD0032811D0A3
:1015D000012807D10C2905D8174A5368884023EA07
:1015E0000000506010BD8B1E022BFBD9134A5368BC
:1015F0000120F3E70C29F5D9114AF8E7012AF1D1C6
:1016000002280BD0032812D00128EBD10C29E9D8ED
:10161000094B5A68884010435860E3E78B1E022B41
:10162000E0D9064B5C6802FA01F02043F4E70C298C
:10163000D8D9034BF6E700BF000002400004024087
:10164000000802400F2910B514D8022813D003282F
:1016500016D001280ED10C290CD80E4B98684900E1
:1016600003248C4020EA04009860986802FA01F193
:101670000143996010BD8B1E022BFBD9064BEDE791
:101680000C29F7D9054B49009C68884024EA0000E2
:10169000EAE700BF000002400004024000080240E8
:1016A0000F2910B514D8022813D0032816D001280A
:1016B0000ED10C290CD80E4BD868490003248C405D
:1016C00020EA0400D860D86802FA01F10143D96029
:1016D00010BD8B1E022BFBD9064BEDE70C29F7D969
:1016E000054B4900DC68884024EA0000EAE700BFB7
:1016F0000000024000040240000802400F2910B51B
:101700000ED8CAB902280CD0032811D0012807D15D
:101710000C2905D8174A5369884023EA0000506114
:1017200010BD8B1E022BFBD9134A53690120F3E72E
:101730000C29F5D9114AF8E7012AF1D102280BD07A
:10174000032812D00128EBD10C29E9D8094B5A699A
:10175000884010435861E3E78B1E022BE0D9064B0B
:101760005C6902FA01F02043F4E70C29D8D9034B55
:10177000F6E700BF000002400004024000080240FB
:101780000F2970B514D807292DD8022811D00328A5
:101790001BD001280CD12E4C8E00236A0F21B140A2
:1017A00023EA01032362236A02FA06F11943216244
:1017B00070BD284C8D00236A0F21A94023EA010344
:1017C0002362236A02FA05F1F0E7234D8C002B6AAD
:1017D0000F21A14023EA01032B622B6A02FA04F1D4
:1017E0000B432B62E4E7022813D0032821D0012801
:1017F000DED1174CA1F10800636A80000F218140FF
:1018000023EA01036362616A02FA00F0084360623E
:10181000CEE71048A1F10803446A9B000F219940CC
:1018200024EA01014162416A02FA03F30B43436275
:10183000BEE7094B0839586A89000F248C4020EA1A
:1018400004005862586A02FA01F101435962AFE795
:1018500000000240000402400008024070B50C463F
:1018600006461546FFF7FEFD012C18D10021012088
:10187000FFF740FE327829462046FFF773FE2946DF
:1018800072782046FFF79CFEB2782046FFF7DAFE1A
:10189000F27829462046BDE87040FFF701BF022CD0
:1018A00001D10121E3E7032CE4D10221DFE70000AD
:1018B00038B5074B04460D469878D9780122FFF7D2
:1018C0001DFFE9B22046BDE83840FFF7A7BD00BFC5
:1018D0002200002038B5074B04460D469878D97889
:1018E0000022FFF70BFFE9B22046BDE83840FFF7C2
:1018F00095BD00BF2200002070B5294C294E6278AA
:10190000217805463046FFF7A9FFE278A1783046F6
:10191000FFF7A4FFFFF730FC2846FFF7ADFC617826
:1019200020780122FFF7EAFE40F27620FFF730FC34
:10193000617820780022FFF7E1FE0620FFF728FCFF
:10194000617820780122FFF7D9FE40F27620FFF778
:101950001FFC617820780022FFF7D0FE40F276204D
:10196000FFF716FC012261782078FFF7C7FE0E48CA
:10197000FFF70EFC11212846FFF7ACFF0B48FFF7DD
:1019800007FC28463A21FFF7A5FF28460521FFF767
:101990008FFF28462921BDE87040FFF79BBF00BF9D
:1019A0002200002018000020C0D40100F0490200ED
:1019B0002DE9F041044688462A211646FFF78AFFA2
:1019C00000212046FFF774FF00212046FFF770FF3B
:1019D00000212046FFF76CFF7F212046FFF768FFBC
:1019E0002B212046FFF776FF00212046FFF760FFFE
:1019F00000212046FFF75CFF00212046FFF758FF3B
:101A00009F212046FFF754FF2C212046FFF762FF5D
:101A10000025013EAE4201D8BDE8F08138F81570CE
:101A20002046390AFFF744FFF9B22046FFF740FF8E
:101A30000135EFE72DE9F047142906460C46154617
:101A40001F46BDF820805FDC132A5DDCC4F114045E
:101A500004EB440464002A2164B2FFF73BFFA4B204
:101A600000213046FFF724FF21463046FFF720FFD4
:101A700000213046FFF71CFFC5F11305E11D89B2B7
:101A80003046ED00FFF714FF6DB22B213046FFF713
:101A900021FFADB200213046FFF70AFF294630464C
:101AA000FFF706FF00213046FFF702FF05F10801AE
:101AB00089B23046FFF7FCFE2C213046C7EBC70742
:101AC000FFF708FF144BA7F1DA041C44E13B4FEA8F
:101AD00018291F445FFA88F807254FF0010A237878
:101AE0000AFA05F213402B41012B0FD1494630462B
:101AF000FFF7DEFE41463046FFF7DAFE15F1FF350F
:101B0000EDD2013CA742E7D1BDE8F0870021304685
:101B1000FFF7CEFE0021EEE7302900082DE9F7435C
:101B2000BDF8289007460E4690461D46002463B235
:101B3000A119EB5C49B2013413B903B0BDE8F083DD
:101B4000CDF800905BB242463846FFF773FFEEE7F0
:101B500037B5C5B20190C0F307442846FFF766F8D1
:101B6000A54205D0204603B0BDE83040FFF75EB87F
:101B700003B030BD07B50A460190C0F30721C0B2DB
:101B8000FFF79CF99DF807109DF80600002203B0AE
:101B90005DF804EBFFF792B913B5002201900C46F3
:101BA000C0F30721C0B2FFF789F99DF807109DF82F
:101BB0000600224602B0BDE81040FFF77FB907B526
:101BC000C0F3072101900022C0B2FFF777F99DF81A
:101BD00007109DF80600002203B05DF804EBFFF744
:101BE0006DB900000138072819D8DFE800F00409B2
:101BF0000B0D101214160D2203210948FFF72EBEFB
:101C00000E22F9E70F22F7E703220121F5E704226C
:101C1000FBE70522F9E70622F7E70722F5E7704719
:101C2000180000200138072820D8DFE800F0040958
:101C30000C0F1316191C01220D210320FFF75EBDA6
:101C400001220E21F9E701220F21F6E701220321EB
:101C50001046F3E701220421FAE701220521F7E704
:101C600001220621F4E701220721F1E7704701383C
:101C7000072820D8DFE800F004090C0F1316191C00
:101C800000220D210320FFF739BD00220E21F9E7C4
:101C900000220F21F6E7002203210120F3E70022B2
:101CA0000421FAE700220521F7E700220621F4E7E4
:101CB00000220721F1E7704770B594B00024214B52
:101CC00001941A6C42F080521A641B6C03F080532A
:101CD0000193019B1C4B02941A6842F440421A6023
:101CE0001B6803F440430293029B01234FF48002DC
:101CF000CDE908331223CDE90F2304264FF4A8734E
:101D00000225CDE9113608A8072313930E95FEF797
:101D10008BFB0F232946CDE9033503A84FF48053ED
:101D2000CDE906340594FEF725FDFEF7D7FD4FF407
:101D30007A73B0FBF3F0FEF755FB3046FEF768FB15
:101D400014B070BD003802400070004008B5FEF7C6
:101D5000E3FAFFF7B1FFBDE80840FEF70FBE000051
:101D600008B50348FEF735FF024B187008BD00BFE9
:101D700000100140540000202DE9F74FC74AC84920
:101D8000C848C94DC94ECA4FCA4CFEF731FECA48B1
:101D9000FEF722FF0121C148FEF70FFFBF48FEF703
:101DA00007FF2868FFF7D4FE3068FFF7D1FE3868D8
:101DB000FFF7CEFE2068FFF7CBFE0120FFF712FFF2
:101DC0000220FFF70FFF0320FFF70CFF0220FFF7B1
:101DD00093FD4FF6E0784FF4A042B8490220FFF798
:101DE000E7FDCDF80080B64B032201210220FFF76A
:101DF00095FECDF80080B34B042201210220FFF7AD
:101E00008DFEA046B04B1C78C4F3C20304B9FEE7B4
:101E1000002B00F0328114F0070A03F10A093CD1CB
:101E20001FFA89FB59462868FFF7B6FE5946306805
:101E3000FFF7B2FE59463868FFF7AEFE5946D8F8AC
:101E40000000FFF7A9FE4FF6E07300939F4B0322BB
:101E50000C210220FFF762FEB9F10B0F40F0C680A3
:101E60000320FFF7DFFE0220FFF701FF0120FFF74D
:101E7000FEFE4FF6E0730093954B04220C210220E6
:101E8000FFF74CFEA00940F0D4804FF4806300932C
:101E9000904B052201210220DEE0BAF1010F17D19B
:101EA0001FFA89FB59462868FFF764FE59463068D7
:101EB000FFF760FE59463868FFF75CFE5946D8F8D0
:101EC0000000FFF757FE4FF6E0730093824BBEE72A
:101ED000BAF1020F15D12868FFF771FE1FFA89FBCE
:101EE0003868FFF76CFE59463068FFF755FE5946D3
:101EF000D8F80000FFF750FE4FF6E0730093774BE1
:101F0000A5E7BAF1030F15D11FFA89FB59462868D6
:101F1000FFF742FE59463868FFF73EFE3068FFF78C
:101F20004EFED8F80000FFF74AFE4FF6E07300932C
:101F30006B4B8CE7BAF1040F4FF00A01286813D1FC
:101F4000FFF72AFE0A213868FFF726FE0C213068C9
:101F5000FFF722FE0C21D8F80000FFF71DFE4FF618
:101F6000E07300935F4B72E7BAF1050F13D1FFF7EF
:101F700013FE0A213868FFF70FFE0C213068FFF7C7
:101F80000BFE0C21D8F80000FFF706FE4FF6E073B9
:101F90000093554B5BE7BAF1060F13D1FFF7EAFD4B
:101FA0000A213868FFF7E6FD0C213068FFF7E2FDF3
:101FB0000C21D8F80000FFF7DDFD4FF6E073009329
:101FC0004A4B44E7FFF7D6FD0A213868FFF7D2FDF8
:101FD0000C213068FFF7CEFD0C21D8F80000FFF788
:101FE000C9FD4FF6E0730093414B30E7B9F10C0F98
:101FF0000DD10320FFF716FE0220FFF738FE012067
:10200000FFF735FE4FF6E07300933A4B35E7B9F131
:102010000D0F7FF437AF0120FFF704FE0220FFF71A
:1020200026FE0320FFF723FE4FF6E0730093324BAA
:1020300023E7012804D14FF4784300932F4B28E77E
:10204000022815D1AAF10403012B08D84FF47843D4
:1020500000932B4B05220121FFF760FDD2E6BAF178
:10206000000F7FF4CFAE4FF478430093254BF1E798
:102070004FF478430093244B0BE70220FFF7D2FD87
:102080000120FFF7F4FD0320FFF7F1FD4FF6E073A9
:10209000009304221D4B0C21FDE600BF00100140FF
:1020A000390000200C000020260000202A0000201B
:1020B0002E00002032000020611D0008D02B0008F7
:1020C000D0CB0008E4CB000854000020F8CB000877
:1020D00041CC000856CC000801CC00080ACC00080E
:1020E00013CC00081CCC000825CC00082ECC00081E
:1020F00038CC000848CC00084FCC000868CC000859
:102100007ACC00088CCC00089ECC0008B4CC000827
:102110007047000080F0004002E000BF81F0004105
:1021200042001FBF5FEA410392EA030F7FEA226C7D
:102130007FEA236C6AD04FEA1262D2EB1363C1BF0D
:10214000D218414048404140B8BF5B42192B88BF7C
:10215000704710F0004F40F4000020F07F4018BF9F
:10216000404211F0004F41F4000121F07F4118BFBF
:10217000494292EA030F3FD0A2F1010241FA03FC67
:1021800010EB0C00C3F1200301FA03F100F000434F
:1021900002D5494260EB4000B0F5000F13D3B0F117
:1021A000807F06D340084FEA310102F10102FE2A86
:1021B00051D2B1F1004F40EBC25008BF20F00100F6
:1021C00040EA03007047490040EB000010F4000FA4
:1021D000A2F10102EDD1B0FA80FCACF1080CB2EB37
:1021E0000C0200FA0CF0AABF00EBC2505242184396
:1021F000BCBFD0401843704792F0000F81F400013B
:1022000006BF80F400000132013BB5E74FEA41030D
:102210007FEA226C18BF7FEA236C21D092EA030F79
:1022200004D092F0000F08BF0846704790EA010FF3
:102230001CBF0020704712F07F4F04D1400028BF20
:1022400040F00040704712F100723CBF00F5000002
:10225000704700F0004343F0FE4040F40000704738
:102260007FEA226216BF08467FEA236301464202E4
:1022700006BF5FEA412390EA010F40F480007047F7
:102280004FF0000304E000BF10F0004348BF40429D
:102290005FEA000C08BF704743F0964301464FF0D9
:1022A00000001CE050EA010208BF70474FF0000335
:1022B0000AE000BF50EA010208BF704711F0004376
:1022C00002D5404261EB41015FEA010C02BF844646
:1022D0000146002043F0B64308BFA3F18053A3F5A5
:1022E0000003BCFA8CF2083AA3EBC25310DB01FAEC
:1022F00002FC634400FA02FCC2F12002BCF1004F70
:1023000020FA02F243EB020008BF20F00100704700
:1023100002F1200201FA02FCC2F1200250EA4C0054
:1023200021FA02F243EB020008BF20EADC7070479A
:102330004FF0FF0C1CEAD0521EBF1CEAD15392EAA8
:102340000C0F93EA0C0F6FD01A4480EA010C400284
:1023500018BF5FEA41211ED04FF0006343EA5010DE
:1023600043EA5111A0FB01310CF00040B1F5000F20
:102370003EBF490041EAD3715B0040EA010062F1CF
:102380007F02FD2A1DD8B3F1004F40EBC25008BFB9
:1023900020F00100704790F0000F0CF0004C08BFD7
:1023A00049024CEA502040EA51207F3AC2BFD2F1A4
:1023B000FF0340EAC250704740F400004FF00003B2
:1023C000013A5DDC12F1190FDCBF00F000407047EC
:1023D000C2F10002410021FA02F1C2F1200200FA2A
:1023E00002FC5FEA310040F1000053EA4C0308BFF1
:1023F00020EADC70704792F0000F00F0004C02BF42
:10240000400010F4000F013AF9D040EA0C0093F0BC
:10241000000F01F0004C02BF490011F4000F013B16
:10242000F9D041EA0C018FE70CEAD15392EA0C0F84
:1024300018BF93EA0C0F0AD030F0004C18BF31F0EF
:10244000004CD8D180EA010000F00040704790F0C5
:10245000000F17BF90F0004F084691F0000F91F069
:10246000004F14D092EA0C0F01D142020FD193EA2F
:102470000C0F03D14B0218BF084608D180EA0100B7
:1024800000F0004040F0FE4040F40000704740F093
:10249000FE4040F4400070474FF0FF0C1CEAD05261
:1024A0001EBF1CEAD15392EA0C0F93EA0C0F69D0BD
:1024B000A2EB030280EA010C49024FEA402037D028
:1024C0004FF0805343EA111143EA10130CF000401F
:1024D0008B4238BF5B0042F17D024FF4000C8B420F
:1024E00024BF5B1A40EA0C00B3EB510F24BFA3EBEF
:1024F000510340EA5C00B3EB910F24BFA3EB9103BF
:1025000040EA9C00B3EBD10F24BFA3EBD10340EA18
:10251000DC001B0118BF5FEA1C1CE0D1FD2A3FF65E
:1025200050AF8B4240EBC25008BF20F00100704713
:102530000CF0004C4CEA50207F32C2BFD2F1FF03B6
:1025400040EAC250704740F400004FF00003013AE7
:1025500037E792F0000F00F0004C02BF400010F48B
:10256000000F013AF9D040EA0C0093F0000F01F09F
:10257000004C02BF490011F4000F013BF9D041EAC1
:102580000C0195E70CEAD15392EA0C0F08D14202F4
:102590007FF47DAF93EA0C0F7FF470AF084676E7C7
:1025A00093EA0C0F04D14B023FF44CAF08466EE7A0
:1025B00030F0004C18BF31F0004CCAD130F000426E
:1025C0007FF45CAF31F000437FF43CAF5FE700BFC6
:1025D00042000ED2B2F1FE4F0BD34FF09E03B3EB8D
:1025E000126209D44FEA002343F0004323FA02F0B9
:1025F00070474FF00000704712F1610F01D14202A5
:1026000002D14FF0FF3070474FF00000704700BF1D
:1026100053B94AB9002908BF00281CBF4FF0FF3149
:102620004FF0FF3000F072B9ADF1080C6DE904CE47
:1026300000F006F8DDF804E0DDE9022304B070479D
:102640002DE9F047089E04468846002B4BD18A426C
:10265000154667D9B2FA82F24AB1C2F1200701FAEF
:1026600002F320FA07F7954047EA030894404FEA3F
:10267000154E230CB8FBFEF71FFA85FC0EFB1788DE
:1026800043EA084307FB0CF1994209D9EB1807F11B
:10269000FF3080F01B81994240F21881023F2B44A9
:1026A0005B1AA4B2B3FBFEF00EFB103344EA034402
:1026B00000FB0CFCA44509D92C1900F1FF3380F074
:1026C0000781A44540F2048102382C4440EA0740C7
:1026D000A4EB0C0400271EB1D4400023C6E900433C
:1026E0003946BDE8F0878B4209D9002E00F0EB8017
:1026F0000027C6E9000138463946BDE8F087B3FA3D
:1027000083F7002F47D18B4202D3824200F2FA8036
:10271000841A61EB030301209846002EE0D0C6E93D
:102720000048DDE702B9FFDEB2FA82F2002A40F08B
:102730008F80491B4FEA154E1FFA85F80127B1FB20
:10274000FEFC230C0EFB1C1143EA014308FB0CF1B9
:10275000994207D9EB180CF1FF3002D2994200F2EE
:10276000CD808446591AA3B2B1FBFEF00EFB1014C3
:1027700043EA044408FB00F8A04507D92C1900F1EE
:10278000FF3302D2A04500F2B6801846A4EB08043D
:1027900040EA0C409FE7C7F1200CBB4022FA0CFE38
:1027A0004EEA030E01FA07F420FA0CF521FA0CF3B5
:1027B0004FEA1E482543B3FBF8F92C0C08FB1933EC
:1027C0001FFA8EFA44EA034309FB0AF49C4202FA18
:1027D00007F200FA07F10BD91EEB030309F1FF30F2
:1027E00080F087809C4240F28480A9F10209734402
:1027F0001B1BADB2B3FBF8F008FB103345EA0344F2
:1028000000FB0AFAA24508D91EEB040400F1FF33CD
:102810006BD2A24569D90238744440EA0940A0FB52
:102820000289A4EB0A044C45C2464B4654D351D00E
:10283000002E69D0B1EB0A0564EB030404FA0CFC2A
:10284000FD40FC404CEA0505C6E90054002747E777
:10285000C2F1200320FA03F7954001FA02F021FAB1
:1028600003F34FEA154E3843010CB3FBFEF71FFA92
:1028700085F80EFB173341EA034107FB08F38B424F
:1028800004FA02F407D9691807F1FF3C2FD28B42F2
:102890002DD9023F2944CB1A81B2B3FBFEF00EFBC7
:1028A000103341EA034100FB08F38B4207D9691852
:1028B00000F1FF3C17D28B4215D902382944C91ABE
:1028C00040EA07473BE73746304609E70746E7E671
:1028D0001846FBE64145ABD2B8EB020A69EB0E02A3
:1028E00001381346A4E76046E9E7184695E76746CE
:1028F000D1E781467CE702382C4447E7ACF1020C73
:102900002B442FE7384608E73746E9E6704700BF13
:102910000000000001020304010203040607080985
:10292000000000000000000001020304060708097F
:1029300000000000000000040404040400040A0A6B
:102940000A000000000A0A1F0A1F0A0A041E050ED8
:10295000140F0403130804021918060905021509C7
:102960001606040200000000080402020204080225
:10297000040808080402000A041F040A00000404F2
:102980001F040400000000000604020000001F00F5
:10299000000000000000000606001008040201000C
:1029A0000E11191513110E0406040404040E0E1161
:1029B000100804021F1F08040810110E080C0A0951
:1029C0001F08081F010F1010110E0C02010F11112A
:1029D0000E1F1008040202020E11110E11110E0E2C
:1029E00011111E1008060006060006060010080455
:1029F000020408101008040204081000001F001F41
:102A00000000010204080402010E11100804000471
:102A10000E11101615150E0E1111111F11110F1197
:102A2000110F11110F0E11010101110E07091111E2
:102A30001109071F01010F01011F1F0101070101FA
:102A4000010E11010119110E1111111F1111110E99
:102A500004040404040E1C080808080906110905EA
:102A6000030509110101010101011F111B151111BC
:102A70001111111113151911110E11111111110E3E
:102A80000F11110F0101010E1111111509160F116E
:102A9000110F0509111E01010E10100F1F0404046F
:102AA0000404041111111111110E11111111110A47
:102AB0000411111115151B1111110A040A1111111C
:102AC000110A040404041F10080402011F1C04045A
:102AD0000404041C00010204081000070404040498
:102AE0000407040A11000000000000000000001F9D
:102AF0000204080000000000000E101E111E01015B
:102B00000D1311110F00000E0101110E10101619F6
:102B100011111E00000E111F010E0C1202070202FD
:102B20000200001E111E100C01010D1311111104E1
:102B300000060404040E08000C080809060202122C
:102B40000A060A120604040404040E00000A1515FD
:102B5000111100000D1311111100000E1111110EB1
:102B600000000F110F0101000016191E10100000C7
:102B70000D1301010100000E010E100F02020702E9
:102B800002120C0000111111191600001111110A86
:102B9000040000111115150A0000110A040A1100A1
:102BA0000011111E100E00001F0804021F0804046B
:102BB00002040408040404040404040204040804D1
:102BC00004020004081F0804000004021F0204009D
:102BD000620862086208A310C310E418C310C3108F
:102BE000A310A310C310C310E418E418C310C3103B
:102BF000A310A310A310A310A310C310C310C310DD
:102C0000E418E418E310C310A310820882088208B5
:102C100062088208820882088208A208A310C310F2
:102C2000A310A310A310A310C310C310A3108208F5
:102C3000620882088208A208A310A310C310C31060
:102C4000C310C310A20882088208A310A310820830
:102C50008208A208A310C310C310C310A310A310AE
:102C6000A310A310A310A310A208A208A208A310E7
:102C7000820882088208A210A210820882086208D4
:102C8000820882088208A210A310A310A310A31028
:102C9000A310A310A310A310A310A310A2088208CE
:102CA00082088208820862084100410041006100F8
:102CB0006208620862086100410041006100620828
:102CC0006208620862084100410061008208A310A6
:102CD00082088208A310E4180419E418C310C31072
:102CE000C310E418E41804190419E310C310A31066
:102CF000A310A310A2088208A310C310C310C3100E
:102D0000C310C310C310A310A310A310A310C310AB
:102D1000C310C310A310A208820882088208820888
:102D20008208A310A310C310C310C310A3108208FD
:102D30008208A310A310C310C310C310C310C31084
:102D4000C310A310A3108208A310C310C310C31094
:102D5000A310A310C310C310C310C310C310A3103B
:102D6000E310C310C310C310A310820882086208C6
:102D700062086208620862086208620862088208E3
:102D80008208A210C310C310E318C310A310A2102E
:102D9000A208A208820882088208820862086208E3
:102DA0006208820882088208620862086208820853
:102DB000820882088208620862088208A310C31091
:102DC000A208A208820862086100410041002100B7
:102DD0008208A310C310E418E418C310C310C31072
:102DE000C310E418041925210419E310C310A3101B
:102DF000C310C310C310C310C310E418E418E418C0
:102E0000C310C310A310A310A310C310C310E41861
:102E1000E418E310A310820882088208820882085E
:102E20008208A310C310C310C310C310C310A31093
:102E3000A310C310C310C310C310E310E418E418A8
:102E4000E310E418E310C310C310E310E418E4180F
:102E5000C310C310C310E310E418E418E418E3101F
:102E6000E310C310C310C310A310820862086208E5
:102E7000620862086208620861084100620862082C
:102E800062088208A310C310E318C310C310A31074
:102E9000A310A310A310A310A2088208820882081E
:102EA00082088208A208A310A310A310A310A208EE
:102EB000A310C310C310C310C310C310C310C3109A
:102EC000C310C310C310C310C310A310820862083C
:102ED000C310C310C310C310C310C310C310E3103A
:102EE000C3100419252125210419E418C310C310A7
:102EF000C310C310C310E310E41804190419041913
:102F000004190419E418E310C310E310E4180419B9
:102F1000E418E310A310A310A310A310A310A31090
:102F2000E310E418E310C310A310C310C310E310A0
:102F3000E418E418E418E418E4180419E418E41890
:102F4000E418E418E418E310E418E418E418E418AA
:102F5000C310C310C310C310E310E310C310C31099
:102F600082088208A208A208A208820882088208B1
:102F70006208620882088208820882088208820841
:102F800082088208A310A310A310A310A310A310FB
:102F9000C310C310E418E310C310C310A310C31070
:102FA000C310C310C310E310E310C310C310A31069
:102FB000C310C310E310E418E418E310C310C310E7
:102FC000C310C310A310C310E41804190419E418A3
:102FD0000419E418C310C310E310E418E41804192A
:102FE00004192521252125210419E418E418E418E1
:102FF000E418E4180419041904192419041904190B
:103000004521252124190419E418E418E4180419A9
:103010000419E418E310E310E418E418041904197F
:1030200004190419E418C310C310C310E4180419D8
:1030300004190419E418E41804190419E418E31035
:10304000C310C310C310C310C310E418C310A310DF
:10305000A310A310A310A310A31082088208620873
:1030600062086208820882088208A208A310A310DE
:10307000820882088208A208A310A310A310A3103C
:10308000E418E310C310C310A3108208820882085A
:10309000A310C310E310E418E310C310E310E41806
:1030A000E418E418E41804190419E418E418C31027
:1030B000C310C310C310A310C310C310E418041925
:1030C0000419E310C310C310E418041925212521A5
:1030D000E418E310C310C310E418E310E310E31086
:1030E00004190419041904190419041904190419F8
:1030F000E4180419041904190419E418041904192A
:103100000419041904190419E418E418E418E4185B
:10311000E418E418E418E418E418E418E418E418CF
:10312000E418E418E418E310C310E310E418E418FA
:10313000E418C310C310C310041904190419E418C7
:10314000C310C310C310C310C310C310A310820850
:10315000820882088208A208A208A208A208A2087F
:10316000A310A310C310C310C310C310C310C31007
:10317000C310C310A310A310A310C310C310C31017
:10318000041904190419E418C310A310A310A20809
:10319000A310C310C310E310E310E310E418E41805
:1031A0000419041904190419041904190419041937
:1031B000E418E418E418E418E418E41804190419ED
:1031C00025210419E418C310E41804192521252128
:1031D000E418C310C310E310E310E310E310E41885
:1031E00004190419041924192521452145212521F3
:1031F000E310E310E418C310A3108208A310C31057
:10320000E418E41804190419041904190419E41839
:103210000419041904190419E418E418E418E31053
:10322000E310E4180419E418E418E418E418E418A6
:10323000E310C310C310E310E4180419E418E418F1
:10324000E418E418E418E418E418E418C310A31010
:10325000A310A310C310C310C310E310E418041983
:10326000E418E4180419041904190419E418E418FA
:1032700004190419E418C310C310C310E310E418B0
:10328000E418E41804190419E418C310C310C31097
:10329000C310C310E418E418E418E418E418E418A0
:1032A0000419041904190419E418E4180419041978
:1032B000E418041925214521252124190419E418AD
:1032C000E310E310E310E310E418E4180419041900
:1032D000041904190419041904190419241945219D
:1032E00025212521252145216629662945212521DC
:1032F000041904190419E418A3108208A310E31098
:1033000004190419252145214521252124190419D1
:1033100025212521452125212521041904190419D8
:10332000041924192419041904192419252124190C
:1033300025212521252124190419E418E418E4186D
:10334000E310E418E418E418041904192419041902
:103350000419041924190419041904190419041965
:10336000E4180419041904190419E418E418C31022
:10337000E418041904190419E418E41804190419C8
:103380000419041904190419E418C310C310C31054
:103390000419E418E418E41804190419E418E418EA
:1033A0000419041904190419E418C310E310E418EB
:1033B000E4180419241925212521252104190419AB
:1033C000C310E418041925212521241924192521C5
:1033D0002521252145212521041925216521452166
:1033E0000419E418E4182419452165216629662981
:1033F0006629862986296629452145216521662970
:103400006629662966298629662925212419252108
:10341000E41804190419041904194521452145210A
:10342000452125214521452165214521452145216C
:10343000452125212419E418C310C310E418E41809
:10344000E4182419041904192521452125214521B1
:103450004521252104190419041904190419041912
:103460000419252125212521041904190419E4181A
:10347000C310C310E310C310E4180419041904198D
:103480000419E418E418E310E310E310E418041935
:103490002419041904190419241924190419E41805
:1034A000E418E418E418E418E418E418E310C3106E
:1034B000E418041904190419041904192419041925
:1034C0002419041925214521452125214521662955
:1034D0002519251945216521452145214521041935
:1034E000E310E4100419452145214521652165219A
:1034F0008629A729C731A72986298629A629A72988
:1035000066218629A629A729862945210419E410C0
:10351000C310E310E310E410241965218629A629BD
:103520006621452145212519241904190419041976
:10353000E410E410E4100419241945214521452123
:1035400065216621652145216621662145214521A8
:103550006521452124190419041904192419241971
:103560000419241925192419041904190419041912
:10357000E310E310E310E418041925214521652127
:10358000452125212521241904190419041925216F
:103590002519041904190419041904190419E4104B
:1035A000E410E410E410E4100419041904190419D7
:1035B000E310E410E410041904190419041904199F
:1035C00004192419251925192519452145214521B5
:1035D000662166218629A729A6298629652125191C
:1035E00004192519452166214521452145216521DB
:1035F00065218629862986296521662186298629CD
:103600008629A629C731C731A72945210419E31006
:10361000C310E4100419251945216621862986293D
:1036200065212519E410C310A2088208A208A30886
:103630002519251945216621A729C731A7298629DA
:1036400066216621662166218629862965216521F4
:10365000862965214521241924192419241924199E
:103660000419241924192519241904192419452188
:1036700045212521041904192521252145216521EC
:1036800045214521252125212521252125214521AA
:10369000251925192419241925192519241904195E
:1036A000251904190419E4100419241925192519D8
:1036B000251925192419041904190419E410E41012
:1036C0000419041924190419041945214521241940
:1036D00065214521662186298629662166214521A5
:1036E00065216521662166214521452166218629BE
:1036F000A629A62986296621652165218629A6296C
:10370000C731E731E731E731A7298629452145212E
:1037100004192519452165216521452145214521AA
:10372000452125190419E410E310E4102519652139
:10373000C731C731C731C731C731C731A729A6291A
:103740008629862966218629A72986296521662159
:103750006521452145214521452145214521452119
:1037600045214521652186298629662166218629EC
:103770006629452125212521252104190419252102
:10378000041904190419241925212521252145216D
:1037900024194521652165216521452145214521C2
:1037A00025190419E310E310E4100419241924194D
:1037B000251925192419251945214521452145217A
:1037C0004521452145214521452166216521452188
:1037D00045214521652186296621652166218629A5
:1037E000662165216521662186298629C731E83150
:1037F000E831E731C731A72986298629A629A729D3
:10380000083A083AE731C731A62986298629662170
:103810004521452145214521452145216521662137
:10382000A62986298629662165216621A629C73110
:10383000C731E731C731A729862966218629A629FC
:10384000A729A72986298629A62986294521452130
:10385000652165216521662186298629A629A72952
:103860006621652165216521652165216521662126
:10387000452145212419241924190419241924192E
:1038800024190419241945214521452145214521A3
:103890002419452165216521452145216621862977
:1038A0006521452104190419251945216621862918
:1038B000452125192519452166216621662186297C
:1038C00086294521452145216521652165216621FE
:1038D00066216621A729C731A6298629A729A729F4
:1038E00086298629A629C731E831E831083A083AFD
:1038F000E731C731C731C731A629862986298629EC
:10390000E831E731C731862986296621662165219C
:1039100045214521452145214521652166218629ED
:10392000C731A729A629A6298629662166216621ED
:10393000A629C731C731A72986296621A729E831D9
:10394000C731E831C731A729A729A72986298629A0
:103950004521452125192419251945214521652190
:1039600086296621452125194521452165214521C5
:10397000662186296621452125192519251925192C
:1039800065214521452145216521452145214521C7
:103990002519452145214521251945218629A62995
:1039A000A72986298629662186298629A729C7313C
:1039B0006621652145216521662165214521452135
:1039C00045212419041924192519241925194521DB
:1039D00086298629C731C731A729A729C731A72931
:1039E000C731C731E831283A293A083A083AE8316C
:1039F000E731E731E731E731C731A729A629A62901
:103A0000C731C731A729862986298629862986298B
:103A1000862986298629A629A629862986298629EE
:103A2000A629A629A729C731E731C731A6298629A2
:103A30008629A729C731C731C731A729C731C7315F
:103A4000E731083A083AC731E831083A083AE8312C
:103A5000C731C731A72986298629A629A729C731B1
:103A6000C731C731862965216621862986294521E6
:103A70006521A629C731A629862966216621452107
:103A8000862966214521452145214521452165217C
:103A90006521452145214521452166218629A72902
:103AA000A629A629862986296621662186298629AE
:103AB0006621652165218629A629862986298629E8
:103AC00066216521452145214521251925192519FD
:103AD000A729C731E731C731C731E831E831C731EC
:103AE000C731E731083A293A293A083AE831E7314B
:103AF000083AE731E731E831E831E731E731E831D9
:103B0000E731E731C731C731C731E831083A083A00
:103B1000E831C731A729C731C731C731C731E831CB
:103B2000E831E831083A283A083AC731862966214F
:103B3000A629A729C731E731C731A6296621652102
:103B4000A629E831E731A629A729E731E831E8318C
:103B5000E731E731E831E831E831083A083A283A04
:103B6000083AE831C7318629662186294521C310E4
:103B7000E3104521C731C731C731C731C731862965
:103B8000A629662145214521452145216521862912
:103B900086298629652166218629A729A729A6299C
:103BA00086298629A6298629862986298629A7295C
:103BB000C731A629A629A729C731A629862986297A
:103BC00086298629862945212519251924190419AC
:103BD000E731A729A729E831293A493A0832C731FC
:103BE000A729C731293A293AE831E831083A083A91
:103BF00049426A42283A083A293A083AE831C73134
:103C0000E831083A083AE831C731E731E831E831BC
:103C1000E831C731E731083A083A49426A42494235
:103C2000283A283A293A283A083AC7318629C7312A
:103C3000C731C731C731A7298629A729C731C7315D
:103C4000E831C731A729A729E831283AE831A7295F
:103C5000A729E731083A283A0832C731C731E83195
:103C6000A729C729E731E831E73186292519E4106A
:103C7000E4106621C731C731E831293A083AE83102
:103C8000E731E731C731C731C731C731A729A62985
:103C9000C731E839C731A731E839083AC731862931
:103CA000A731862986298629A731A731A731A731CF
:103CB000A7316629A731083AC731A731A73186292C
:103CC00086292519C310C310041945216629A73177
:103CD000A629C731083A293A283A0832E831083A81
:103CE000C731083A49424942283A083A083A083A5C
:103CF00049426A42293A293A49424942293A083A0C
:103D0000E831083A083A083AE831083A083A293AD4
:103D1000283A293A4942694249426A426A42283A63
:103D2000083A083A4942293A083A083AE831293A21
:103D30004942083AE731C731E831083A293A293A85
:103D4000C731C731C731E731E831E831083A083ABD
:103D5000083A283A293A283AC73186218629C729BC
:103D6000C731E731E831083A083A0832E831C7315B
:103D7000E831E831083A283A293A083A083A293A23
:103D80006942293A083AC731C731C731C731C7310B
:103D90008629C731E839083A083AC731C731E839C6
:103DA000E839083A083AE839A731662966216629D0
:103DB000A7298629E8312942E839A7316629252132
:103DC000A3106208C31025214521C731083AA73145
:103DD000A629E731293A6A426942493A293A293AF9
:103DE0008A4AAB4ACB52AB4A8A4A4942293A4942AB
:103DF00049426A42494249426A4249424942293A51
:103E0000283A083AE831E831E831283A69428A4AE2
:103E10008A4AAA4AAB4A6A42293A49426942293A3D
:103E2000083A283A4942293A083A293A283A49426E
:103E30006942293A083A083A083AE731E831283A1B
:103E4000E831E831083A083AE831C731A729C731E3
:103E50004942293A283A283A0832E731E831083A03
:103E6000283A083A0832E8310832083A293A293A19
:103E7000E831083A283A083A083A293A69426A4247
:103E80004942293A283A083A083A083AE831E831EA
:103E9000A731C731083A49424942083AC731083A7E
:103EA000083A083A294229422942083AE839C731F2
:103EB000E839C731A731862966294521252104190A
:103EC000C3108208E41866216629C731083AC73151
:103ED000494249424942494269426A428A4AAB4A96
:103EE000CB52EB52AB4A8A4A8A4A6A4A49426A4AE8
:103EF000AB4AAB4A8A4AAB4ACB52CB52CB52CB529B
:103F00004942283AE831E831083A293A69428A4A6E
:103F10006A428A4A8A4A4942083A083A4942494228
:103F2000494249428A4A6A4269428A4A4942494266
:103F30004942293A083A083A283A083A283A293AA6
:103F4000283A283A293A494249424942283A083A05
:103F5000293A69426A424942283A083A293A69426A
:103F6000293A293A293A49424942293AE831C7319E
:103F70006621C731083A083AE731083A49426A42AD
:103F8000293A494249426A426942494249424942C0
:103F900049424942083AE831083A083A083A283A88
:103FA000E831E831083A293A6A424942083AC731C9
:103FB000662145210419E410251945216621862929
:103FC000E831E731A6298629862945212519862940
:103FD0008A42AA4ACB4AAB4A8A4A8A4A8A4A8A4AC7
:103FE000CB52AB4A6A426A428A4AAB528A4AAB52C5
:103FF000CB52AB4AAA4ACB52EB52EC520C5B0C5B55
:104000008A4A6A4249426A426A426A42494249428B
:10401000293A69428A4A8A4A6A42494249426A427C
:104020006A4249428A4A8A4A6A42AB4A8A4A694291
:104030006A428A4AAA4A4942E831E831083A494282
:10404000283A4942494249426A428A4A6A42293ADE
:104050006A42EC522D5BCB524942293A49426A42AC
:104060004942283AE831E831083A083AE831C7319C
:10407000E731C731083A4942083AC731083A293A84
:1040800049424942694269424942293A293A4942E8
:104090006A428A4A8A4A6A424942293A293A6A4223
:1040A0006A428A4A6A42293AE731A729A629A729FA
:1040B000C731C731E831283A6A428A4A6A424942DE
:1040C0006A428A4A4942083A283AC731662166213B
:1040D0008A4AAA4ACB52EC52EC52CB526A42283A54
:1040E000CB52AB52AB4AAB52EC5AEC5AEC52CB52DD
:1040F0000C5BEC5AEC5A0C5B0C5B0C5B4D632D5B60
:10410000EC5ACB52AB4AAB4ACB52EC52CB528A4A16
:104110006A428A4AAB4ACB52AB4A6A4249428A4A0D
:104120008A4A49426A426A426A42AB4AAB4A8A4A6E
:104130008A4ACB52EC52AA4A293A083A083A083A33
:10414000083A49426A424942293A49426942293A6F
:104150006A42CB520C5BCB528A4A8A4A8A4A6A42EA
:104160006942083AC731A729C731083A283A293A9B
:104170006A42494269426942494269428A4A6942FD
:10418000293A49426A426A424942083A083A293A77
:10419000AB4A8A4A8A4AAB4ACB528A4A6A42AB4AFB
:1041A0000C5BEC528A4AE8318629A629083A6A4211
:1041B0004942494269428A4AAB4AAA4A8A4A6A4201
:1041C0006A426A426A4269426A428A4A293A6621D6
:1041D000EB52AB4A8A4A8A4AAB4AEB52CB528A4AE2
:1041E000CB52CB52EC5A0C5B0C5B0C5BEC5ACB52B7
:1041F000CB52CB52CB520C5B0C5BEC5A0C5BCB52D0
:10420000EC5ACB52AB52AA4AEC5A2D632D63EC5AAE
:10421000CB52EC5ACB528A4A8A4A6A4A6A4A8A4A3A
:104220000C5BAB52CB52CB52AB52CB52EB52CB527C
:10423000AB52AB4A8A4AAB52CB52CB528A4A294242
:10424000294249426A42494249428A4AAB52CB52C8
:104250006942694269426A428A4AAA4A8A4A6A4269
:10426000694269426A426A428A4A6A424942293A32
:104270008A4AAB4ACB526A424942EB522D5BCB523F
:104280006A428A4A8A4AAB4AAB4A6A426A426A42EC
:10429000CB526A42083A083A69426A426A42AB4AD9
:1042A000AB4A8A4A283AE731E8314942CB52EC52CC
:1042B0006942293A49426A42494249428A4AAB4ADA
:1042C0008A4A6A426A426A424942283AA72925191B
:1042D000AA4AAB4ACB52AB4AAB4ACB52CB52CB5297
:1042E000CB52EB524D636E6B4D634D632D630C5B94
:1042F0006A4A6A4AAB520C5B0C5B0C5B2D63EC5A4E
:10430000AA4AAB528A4AAA4AEC5A4D630C5BAB529A
:104310004D636E6B2D63EC5A0C5B0C5BEC5A0C5BC3
:104320002C5BCB520C5B2C5BCB52EC5AEC5AEC5A0C
:10433000CB52CB52CB52AB526A4A49426A4ACB5219
:10434000AB528A4A6A42494249426A4AAB4ACB5214
:10435000CB52CB52CB52CB528A4A6A426A4AAB52B8
:10436000AB52AB52AB528A4A8A4A8A4A8A4A8A4A32
:10437000EC52CB52EC5ACB5249428A4AEC5AEC5A94
:10438000CB528A4A6A4A8A4A8A4A6A4A8A4AAB4A63
:104390006A428A4A6942293A494249424942494263
:1043A000293A49426A42AB4AEB520C5BCB52AB4AC8
:1043B000AA4A8A4ACB520C5B8A4A49428A4ACB5261
:1043C0008A4ACB52AB4AEB52EC52083A6621E831AA
:1043D000CB52EB52EC5ACB52CB52EC5ACB52CB5283
:1043E0000C5BEC5A4D636E6B2C636E6BEC5A0C5B82
:1043F0002D63EC5ACB520C5B2D63EC5AEC5A4D6397
:104400002D634D632C63AB520C5B6E6B0C5BEC5AF3
:104410004D636E6B6E6B4D632C5B2D636D638E6BAA
:104420006E6B6D63EC5ACB522D636E6BEC5A4D6321
:104430000C5B8E6B0C5B0C5B0C5BEC5ACB52EC5A3E
:10444000CB52EC5A6A4AAB4AAB520C5B0C5BAB5298
:104450008A4ACB52EC5AAB4A8A4A8A4A6A4AAB52D7
:104460008A4A6A4AAB52AB5249428A4AEC5A6A4A71
:10447000EC52AB52CB52EC5AAB520C5BEC5A0C5B8D
:104480000C5BCB52AB52AB526A4A49426A42AB4ACE
:10449000CB52AB4A6A42E831C731083A49428A4AAC
:1044A0008A4ACB52CB520C5BEC52EC528A4A6A429B
:1044B00049428A4A8A4A6A428A4ACB520C5B4D6315
:1044C0006D63CB526A4249424942A629A629083A5D
:1044D0000C5BAB52AB52EB520C5B0C5B0C5B8E6B10
:1044E0006E6B2D634D632C630C5B6D6B6E6BCF73CA
:1044F0002D638E6B8E6B2D63EC5AEC5A0C5B2D6327
:104500004D63CB52EC5A2C630C5B0C5B4D638E6B92
:104510008E6B4D634D636E6B8E6B2C5B2D636E6B80
:10452000F07BCF734D630C5B6D63AF734D632D6395
:104530006E6B6E6B2C5BEB52CB52EC5A2D63CB52F5
:10454000AB520C5B0C5B0C5BCB52CB522D636D639F
:10455000CB52AB528A4AAA4AEB52CB52AA4ACB520E
:10456000AB520C5B0C5BEC5A2D630C5BEC5A4D634D
:10457000EC5AEC5A4D632D5BAB528A4AAB4AEC5A6B
:104580008A4A494249426A426A4A6A4A4942294237
:104590004942C731A729283A8A4ACB52CB520C5BF1
:1045A000CB52CB52CB52AB4AAB4AAB4A8A4A8A4A2D
:1045B0008A4ACB52CB528A4A8A4AAA4A6A4249421A
:1045C0004942E831A729A629E831083A49428A4AEE
:1045D0002D63EC5A2C5B8E6BCF738E6B2D638E6BC1
:1045E000107C6E6B2D636E6BCF738E6B6E6BAF73C7
:1045F000F07B107CCF738E6B6D6B4D632C632C63E3
:104600006D6B0C5B2C636D6B0C5B0C5B8E6BAF731B
:104610008E6BAF73CF736E6BAF738E6BAE736E6B4F
:104620004D636E6B4D630C5BEB5A4D630C5B0C5B27
:104630004D632D636D6B2D630C5B2D638E6BAB52E5
:10464000EC5A0C5B2D634D636E6B6D6B8E6B8E6BDA
:104650000C5B4D630C5BAB520C5B8E6B6D63EC5A69
:104660000C5B2C5B6E6B6D634D632D630C5B8E6B13
:104670000C5BCB52EC5A6A4A4942083A6A42AB4A4E
:10468000293A29426A4A8A4A2942083AE839A7312E
:104690008629A7296A42EC52EC52EC52EC520C5B90
:1046A0000C5B0C5B2D5B0C5B2D5BEC520C5BEC52E2
:1046B0008A4A4942293A49426942293A283A4942B2
:1046C00049426A42AA4AEB52EC524D632C5BCB52F0
:1046D0002D630C5B0C5B0C5B4D634D632D636D6B4D
:1046E0008E6B6E6BAE73F07B107C2D634D63AF737E
:1046F000CF73F07BF07BAF736E6B4D638E6B107C72
:10470000AF73F07BAE738E6BAE734D638E6BCF73F6
:10471000AE736E6BAE736E6BCF734D638E6BCF7378
:104720006E6B8E6BCF738E6B2D636E6B8E6B8E6B21
:104730004D636E6BAF736E6B2D638E6BEF7B2D6372
:104740006D6B6D6B8E6B8E6BF07BCF73CF738E6BDF
:104750008E6B8E6B2C63EC5AEC5A4D636E6B4D6313
:104760004D63CB522D636E6B8E6BAF736E6B4D636F
:104770006E632D632D630C5B2D632D630C5BCB523D
:104780002D63CB52EC520C5B2D634D632D63CB52EA
:10479000293AC731293A2942083A49426A4A6A4ABB
:1047A0006A4A6A4AAB52CB52EC5AAB52AB4AAB5252
:1047B000CB52CB52CB522D634D630C5BCB520C5B77
:1047C0008A4ACB52EC5A0C5BCB522D5B0C5BCB5222
:1047D0008E6BAF73CF73AF73AF738E6B4D634D63DF
:1047E0002D63AE73AF734D6B8E738E6BCF7BF07B8F
:1047F0008E6BCF73AF734D632C632D638E6B107C08
:10480000107C3184CF73EF7BEF7B6E6BCF73518461
:10481000107CCF73AF736E6BF07B8E6BAF73107CBD
:10482000EF7BAF73AF73CF736E6BCF73AF73AF7339
:104830008E6BAF738E6B2C63EB5A6E6BAF738E6B9C
:104840006D6BAF73F07B8E6B8E6B6D6B8E6B6E6B67
:104850006D6B6E6BEC5ACB528A4ACB522D634D6313
:10486000AB520C5BAF738E6B4D630C5BEC5A4D63BC
:10487000EC520C5BEC5AEC52EC522D632D630C5B4A
:104880006E630C5B0C5B6E6B8E6B8E6B4D630C5BA7
:10489000294266298629C731083A6A4ACB520C5BFD
:1048A0004D634D634D638E6B6E6B6E6B6E638E6B83
:1048B0004D638E6B6E6B4D638E6B8E6B4D63EC5ADE
:1048C0002D5B2D632D632D63EC5A4D636E6B4D6331
:1048D0008E6B8E6BCF73CF73CF73CF73AF73107C30
:1048E000728C5184F07B8E73CF7B10843184318441
:1048F000F07BCF7BAF73CF73AF736E6B4D6B8E6BF3
:10490000F07BF07BF07BAF734D6B8E733184318421
:10491000107CEF7B8E6B0C5BAF73AE738E6B8E6B0C
:10492000EF7BAF73AF73CF738E6BCF73AF73AF7318
:104930004D638E6B4D634D634D63AF736E6B6E6BEA
:104940006E6B8E6BEF7BAE73AE73AE734D630C5BB1
:104950002C638E6B2D634D630C5B6E6B6E6B0C5B0F
:104960006E6B4D636D6B6E6B2D634D634D63CB5200
:104970002D636E6BEC5ACB52EC5A6E6BAF6B8E6B39
:10498000AF736E6B2D630C5BAB522942083A294220
:1049900009422942CB520D632D636E6B8E6BAF7350
:1049A000AF73AF736E6BAF736E6B8E6B6E6B8E6B24
:1049B000AF738E6B2D630C5B4D638E6B6E6B0C5BFC
:1049C0008E6B6E6B4D636E6B4E6B6E6B4D630C5BE3
:1049D000F07BF07B318451843184AF736D6BAF73A6
:1049E000728CF07B107CF07B8E736E6B6E6BCF7B6A
:1049F000F07BF07B1084728C518CAF73AF7310849A
:104A0000F07B108431848E736E6B3184728C107CD9
:104A10003184CF736E6BAE73107CAF736E6BF07BB3
:104A20008E6B8E6BCF73CF738E6B8E6B2D630C5B27
:104A30002D634D63AF73F07B107C107C8E6B6E6BBF
:104A4000AF738E6BAF73CF73F07B107C6E6B0C5BB0
:104A5000AE738E6B6E6B728C3084CF73AF738E6B54
:104A6000AF738E6B8E6BCF736E6B8E6B107C8E6B99
:104A7000AF73CF738E6BAF73F073CF736E6B0C5BD2
:104A8000CB52AB526A4A6A42AB52CB520C5B6E6B52
:104A90002D63AF73107CCF73CF731184D07B6E6B9B
:104AA000AF738F738E6B8F738E6B8E6B6E6B4E6B63
:104AB0004D632D630C5B2D636E6B6E6B2D630C5B16
:104AC0008F736E6B2D630C5B4D634D632D630D63B4
:104AD000107CF07BF07BEF7BCF73CF73EF7B518447
:104AE0003184CF7B3184728C107C1084AF7310843E
:104AF00031843184107C108431843184108410849A
:104B0000728C728C3184107C928CF49C518C318428
:104B1000AF73F07BCF73CF73107CCF738E6BF07B52
:104B2000F07BF07BF07BF07BCF73CF73EC5A494284
:104B30006E6B2D63CF73CF73EF7BAF73AE73AE73BA
:104B40008E6B8E6B8E6B8E6B2D634D630C5B4D632A
:104B5000CF73F07BAF73728C107CF07BF07BCF73E4
:104B60008E6B107C8E6BAF73107C8E6B8E6B8E6B2E
:104B7000AF73CF738E6B8E6BAF6BCB524942E83104
:104B80008A4A6E6BF07B107C107CAF736E6BCF73B8
:104B90004D63AF73107C107C3184728C3184F07B58
:104BA0008F738E6B8E6B4E6B8E6B8E6BAF738E6B4B
:104BB000AF73CF73AF734D634D636E6B6E6B4D63AD
:104BC000EC5A0C5B0C5B0C5BAF73CF73F07BF07B30
:104BD000107C31843084EF7B5184107C3184B39419
:104BE00031848E6B31845184EF7B5184728C728C52
:104BF000928C5184728C3084728CF49C928C51848F
:104C0000B394F49CB3943184728C107C928CB394E2
:104C1000CF7B107C92945184518C3184F07B9294A0
:104C2000518C2D632D63AF73518CAF736E6B3184D8
:104C3000308430848E6BCF73EF73AE6B107CCF7388
:104C4000CF736E6B8E6B4D634D638E6B6D636E6B4E
:104C50006E6B4D6351845184CF7BCF7BCF7B518C66
:104C6000CF7B3184108431843184CF739294D39C70
:104C70005084AE734D6B8A520B5B0B5B6D6BCE73C6
:104C80005084CF73107C308451840F7CCF7BCF7BDA
:104C9000CF7B518C728C518C318C31841184CF7BC1
:104CA0006E732D630C63AB5ACC5A4D6B2D63EC6263
:104CB0008E6B2C634D63CF73CF73CF73EF7BF07B21
:104CC000EF7BAE73F07BCF730C5B0C636D6B4D6B46
:104CD000728C9294518CF07B3184518C728C728CDA
:104CE0003184518C728C3184728CF49CB394929484
:104CF000728C518CCF7B518CF49C728C518CD39CD8
:104D0000B394728CD39C728C928C9294B3943184B1
:104D10005184728CB394B3943184F07B9294CF7BA2
:104D2000CF7B4D6B518C518C9294F07B3184AF735F
:104D30008E6B107CEF7BCF735184718CEF7B8E6B0D
:104D4000F07B8E6B8E6BAF73107C107C107CCF73FE
:104D50004D6BCF7BAF73AF73CF7BCF7B728C4D6BC3
:104D60006E6BCF73F07B10845184107CF07B2D63CD
:104D7000494ACB524D6BEC5A8E7310841184D07B10
:104D80008E73CF7BCF7B518C10846E6BEF7B318425
:104D90001084728C318CF07BAF73D07B518C518C32
:104DA000F07BF07B8E73AF736E733184AF7BCF7B00
:104DB000308451845184107CCF73CF7BF07B10847E
:104DC000EF7BAF73107C3184F07B518C3184F07BAE
:104DD000518C518C518C9294B294B2949294B3941D
:104DE00092949294F49CF39CF39C34A5D39C728C83
:104DF00092943184B294518C3184718C518C14A56D
:104E0000D39C30849294518C518C718C518CF07B5A
:104E1000108492946E6BAB52CF7BF07BCF7B51842E
:104E20001084728CB394728C718C30845184EF7BBB
:104E3000F07BCF73107CAE73CF735184EF7BAF7375
:104E4000AF73AF73AF73F07BAF730C5BAE73F07B7C
:104E5000318492941084CF7B51848E73CF7BCF7B2F
:104E600051846E6B2D632D632D63EC5A0C630C5BC8
:104E70008F733184B3943184AF7BAF7BAF7BD083AE
:104E8000F083D083CF7B1184F07BCF7B8F735184F1
:104E9000EF7BAF736D6B1084518C1084518C518CEF
:104EA00010841084F07BCF7B10843184CF7BCF7B48
:104EB000EF7B51841084AF73EF7BF07BEF7BF07B53
:104EC0008E6BCF7B718C9294308431843084518C82
:104ED000B294F39CD39C718CEF83518C518CEF83F3
:104EE000518C718CD39CB294718C92947294718C0D
:104EF0003184318CB294F4A4728C1084718C9294AD
:104F0000B39CB39C9294F08331841084F07B318401
:104F10003084718CF07BAE739294728C1084108408
:104F20001084728C3184518C518C1084F07BCF7B37
:104F3000AF73AE733084F07BF07B5184CF7BCF7B3B
:104F40001084F07B6E6BAF73107C518C31846E6B70
:104F5000CF7BAF731084318431843184728C1084A0
:104F60008E6BCB524D63AF73AF738E731084D39C33
:104F7000928472847284318411847294728C728CE3
:104F80009394318CD07BD07B31843184CF73117C6E
:104F9000CF7B3184107C108430841084928C5184B7
:104FA000318431843084F07B928C728C51843084D3
:104FB000308431843084518C728C518C3184518C8A
:104FC000F07B1084518CB294728C92943184728CE8
:104FD000F3A4B29472949294108410841084108478
:104FE0008E73B39C14A59294B29C9294EF7BCF7B6A
:104FF0001084718C308C718CB29472949294D39C86
:105000007194F3A4B294F083EF7BCF7BEF83F083B2
:105010003084718C3084518CEF7B8E73B2943084E9
:10502000EF7B6D6BAE73CF7B1084AE73518CCF7BF7
:10503000CF7B728CAF73AB526E6BF07BCF7B518C9E
:10504000107C4D6B2D63518C3184D07B8E73107C22
:10505000CF7B518410849294518CAF736E6B0C6330
:10506000EC5A4D6B9294D39C9294518C107CCF73DC
:10507000EF73317C72845184107C928C728C728CB0
:10508000F07B9394D07B5184D3945184149DB38C42
:10509000518C3084CF7B5184718C1084518C518C15
:1050A000728CB394718C728C728C928C3084718CF3
:1050B000518C31849294D39CB294728CB294D39CD0
:1050C000F39CB2949294F39CF39CB394518C92947D
:1050D000518C9294B294B294929414A5F3A47194C6
:1050E000B29414A5F39C9294B2949294518C7194BE
:1050F000518C318C7194308C518CD39CD39C14A5E1
:10510000B294B294B294D39C718C1084518C10845C
:10511000CF7B718C718C1084308410849294518C6C
:10512000308410841084EF7B10841084518C1084A0
:10513000AF7331846E6B2D63F07B318411843184C5
:10514000728C3184107C728C3184518C107C31844F
:1051500031842D63EB5ACB52E839CB526E6BCF734F
:10516000107CF07B5184CF73AF73107C3084F07B64
:105170003184F07BF07B5184507C928C507CEF73B7
:10518000307CF394928C7184718CCF7B728C108400
:10519000AE739294D39C9294318431849294928C85
:1051A000928CD394B294928C728C30845184718C92
:1051B000518C3084518C9294518C718CB294929415
:1051C000718C728CD39C9294518CCF7BAF7B318C41
:1051D000D39CB294D39CF39CF39CB39CD39CF39C40
:1051E000D39C71949294F3A4B29C718C9294B294D7
:1051F000518C518C518C14A5728CCF7BB294718CD4
:10520000D39C9294B39CF49C92947294B294929492
:10521000518C107C728C10843084928C518CF07B79
:10522000AE733084F07BF07BEF7B10846E6B6D6B24
:105230004D6B0C630C63AF73CF7BCF73F07BAF739D
:10524000CF738E738E6B107CD07B2D636E6B8F73E0
:105250006D6BEC5AAB52E8396A4A3184F07B318489
:105260003184EF7B107C30845184318431845184CB
:10527000308CEF83518C718CEF7BCE73EF7B50843D
:105280007184918CF39C718C7194929C729CB3A4E8
:10529000B3949294B294929492949294728CB394A4
:1052A000718C718CB294728CF39C718CD394B39486
:1052B000F49CB394718C518C518C718C728C518C88
:1052C000718C728CD39C72949294518C518C728C90
:1052D000F07B518CF39CF49CF49CB294F39CF49C72
:1052E000B394F49CD39CB394B294318410843184ED
:1052F000728CB394728C1084AF73CF7BF07BF07B95
:105300008E73318431844D6B6E6B11841084F08305
:105310005184F07BF07B107C728C5184718C107CFA
:10532000718C107C718C107C107C51843184CF7313
:1053300031843184107CF07BAF738E6B6E6B6E6B3F
:105340004D634D636E6BF07BF07B6A4AEC5ACC5236
:10535000AF738E6B4D632D638E6BF07B3184318424
:105360003184F07B107C5184728CEF7B107C928CAA
:105370008E7BCF83929C929410843084718C718C3C
:10538000918C918C71945194F08B5194519C72A496
:10539000518C1084518C3084518CB294518C729405
:1053A000518C318C1084718C9294518C718C10843E
:1053B000B2949294518C3084518C518C518CB39412
:1053C00092949294D39C518C929492949294318C16
:1053D000D39C149D728CF07BF07BD394B394518456
:1053E000728C518C5184518C3184F07B1084928C5E
:1053F00010843184F07BCF7B107C3184F07B8F7301
:105400008E73CF7B107CAF73D07BAF738E734D6B7D
:105410006E6B4D63AF73F07B6E6B8E6BCF738E6B69
:10542000CF73CF732D63F07B8E6B6E6B6E6BAF7330
:105430008E6B8E6BAF6B6E636E6B0C5B4D63AF737D
:10544000CF73AF736E630D5B2942293AAB52AF73D2
:105450006D6B8E6B8E6BAF73F07BF07BAF738E6B6F
:105460008E6B4D638E6BCF73CF73107C107CAE73DD
:10547000F083AF7BAF7BAF7310841084CF730F7C4E
:10548000107C30843084CF7BCF83318C729C729CB3
:10549000718C718C929430841084929C929CD3A4D1
:1054A00092947294518C518CF083F07B718C518C5E
:1054B0001084718C3184518CD39CD39C728CD39C7E
:1054C000929492949294D39CB39C7294B294D39CF1
:1054D0008E6B4E6B8E6BAF73728C9394728CD07B91
:1054E000728C5184318431843184F07BF07B51841F
:1054F000F07B107C1184F07B8E6B8E6BCF73AF735F
:10550000F07B107C107CAF73D07BAF73AF738E6B6E
:105510006E632D5B4D634D63EC52CB52EC52AA4A45
:105520000C5B2D5BCB524D630C5B0C5B2C5B2C5BE3
:105530002C5BCB52AB4A2C5B8E6BAF6BAF6BF073BB
:10554000AF6B8A4AE7318A4A2D5B8E6B8E6BD073C4
:105550004D634D636D6B6E6B6E6B6D6B4D634D6329
:105560006E6BCB52EB5A4D636D6B4D632D630C5BD1
:10557000EC5A6E63CF738F6B6E6B6E6B4D6BAF734C
:10558000AF738E73AF73318411848F738F73117CFB
:10559000308430849294718C9294D39C5194318C49
:1055A0007294B39CB39C92949294B39414A5D39C9C
:1055B0009294B294B3949294B294518C728CD39C82
:1055C000B394B39CB294D39CD39CB39CF39C14A58A
:1055D0002D634D63F07B31843184CF73107C107C5C
:1055E0005184107CAF6B6E6B8E6BAF6BAF73F07BC7
:1055F000317C6E6B4D636E6B6E638F6BAF6B2D5B2F
:105600004E634E634D630D5B2D630D5B0D5B0D5B58
:105610002D630C5BEC52EC52AB52AB4AAB4A6A4A7C
:105620006A42CB528B4ACB52AB4AAB4ACC52AB4AC2
:10563000EC52EB528A4AAA4A8A4ACB52AB4A8A4A6D
:10564000C731283AAB4A4D634D632D5BEC520C5B7E
:10565000AB52CB52CC5ACC5AAB52AB52CB52CB52B0
:10566000AB526A4A8A4AAB52AB52EC5A2D634D6335
:105670004E5B4E5B4E634E636E6B8F736F738F73B7
:105680006E736F738F73B073AF6B8F6BB06B11747E
:10569000CF738E73CF7BCF7B1084518CF083F083DC
:1056A000F0831084518C5194D39C9294D39CD39CBE
:1056B000D394F49CD39C718C34A592949294F49CD2
:1056C000D39CD39CD39CD39CD39CB394D39CD39C8A
:1056D0006E6B6E6B8E6BAF732D638E6BAF738E6B59
:1056E0002D632D630C5B2D636E6B8E6B6E6B6E6327
:1056F0004D634D636E634D63CB52CB520C5B0C5BC1
:10570000CB52CB52CB52CB52CB52AB52AB4AAB5219
:105710008A4A8A4A6A4269426A428A4A8A4A8A4A62
:10572000293A6A428A4A6A426A4249428A4A494254
:105730002942494249422942E839294249422942FB
:105740008A4AAB52CB52CB52AB52CB52AB528A4A63
:105750008A4A8A4AAB52AB526A4A6A4AAB52AB5245
:105760008A4A8A4A8A4A8A4A6A4A8B528A4A294219
:10577000CC528B4A8B4A8B4AAC5ACC62AC62ED62FB
:10578000EC622E6B4E6BED62ED5A6F6BD06BB06BB3
:105790006E636E6BAF73CF73CF7BF07BCF7BF08389
:1057A000F083F08311843184B39C31843184518C33
:1057B00051843084718C31849294928CB294518C47
:1057C000718CB294B294B394B394D39C14A5F4A402
:1057D0004D630C5BEC5AEC5AAB520C5BEC5A6A4AC8
:1057E00029424A4A4A4A4A4A8A4A8A4A4A4A2942EB
:1057F0002842083AC731A631A731C7318629452149
:10580000452145212521452145212521041904193A
:10581000041924190419E41804190419E4180419C2
:10582000C310C310E418C310E418A208C310C310B7
:10583000A21021006108C310E418C3100419252127
:105840002521452166298629862946296629862912
:105850008629662966296629252145216629462942
:1058600045212521462986298629A731C839083AA4
:10587000093A093A2942294229426A4A494A494A87
:1058800009426A4A6A4A6A4A8A4ACB52CC52AB4AAD
:105890002C5B2C5B6D638E6B6E6B6E6B6E6BAF7384
:1058A0008E73AF7BD07B8E7331841084F07BAF73AB
:1058B0008E7351843184EF7B518C728C3184518C86
:1058C000518CB294B394B394B294B394F49CF49C7A
:1058D00066294529862945292521E4180419C31874
:1058E000C318C318A310620862086208620862083D
:1058F0004100620841082000410041000000000012
:105900000000200000000000000000000000000077
:105910000000000000000000000000000000000087
:105920000000000000000000000000000000000077
:105930002000000000000000200000000000000027
:10594000210000002100210062086208620841086D
:105950002100000000000000000000000000000026
:105960000000000000000000210041008208A31098
:1059700045218529C629A521A521472A672A672A05
:105980008732883288326832893AAA42CA4ACA4A79
:10599000AA42AA42AB4AEB52EC52EC520C5B2D638A
:1059A0000C5B2D634D6B0D63AF73AF738E6B8E6BA2
:1059B000AF73EF7B1084107CF07B718C92943084F9
:1059C000718CD394D39CD39CB394D39CF49CF49CBF
:1059D0002000000000000000200000000000000087
:1059E0000000000000000000200000000000000097
:1059F00000000000000000000000000000000000A7
:105A00000000000000000000000000000000000096
:105A10000000000000000000000000000000000086
:105A20000000000000000000000000000000000076
:105A30000000200020000000000000002000000006
:105A4000000000004108000000000000000000000D
:105A500000002100000000002100210021002100A1
:105A60002100210021006208E4180419C3108208F3
:105A700080004209872AE832E722E61AA50A840252
:105A80008402840264022402040A451A4622262261
:105A90006932693A8A42CB4AEB52CB52CB52CB5253
:105AA0002D5B0C5B2D632D636E6B6E632D636E6BD4
:105AB0004D638E6B8E6B4D63CF73CF7BCF7BAF739C
:105AC0001084518C518C718C728C9294D39CD39C89
:105AD00000002000000000000000000000000000A6
